{
	"contracts/SimpleDEX.sol": {
		"SimpleDEX": {
			"abi": [
				{
					"inputs": [
						{
							"internalType": "address",
							"name": "_tokenA",
							"type": "address"
						},
						{
							"internalType": "address",
							"name": "_tokenB",
							"type": "address"
						}
					],
					"stateMutability": "nonpayable",
					"type": "constructor"
				},
				{
					"anonymous": false,
					"inputs": [
						{
							"indexed": true,
							"internalType": "address",
							"name": "korisnik",
							"type": "address"
						},
						{
							"indexed": false,
							"internalType": "uint256",
							"name": "iznosA",
							"type": "uint256"
						},
						{
							"indexed": false,
							"internalType": "uint256",
							"name": "iznosB",
							"type": "uint256"
						}
					],
					"name": "Swap",
					"type": "event"
				},
				{
					"inputs": [
						{
							"internalType": "uint256",
							"name": "_iznos",
							"type": "uint256"
						}
					],
					"name": "depositTokenA",
					"outputs": [],
					"stateMutability": "nonpayable",
					"type": "function"
				},
				{
					"inputs": [
						{
							"internalType": "uint256",
							"name": "_iznos",
							"type": "uint256"
						}
					],
					"name": "depositTokenB",
					"outputs": [],
					"stateMutability": "nonpayable",
					"type": "function"
				},
				{
					"inputs": [],
					"name": "owner",
					"outputs": [
						{
							"internalType": "address",
							"name": "",
							"type": "address"
						}
					],
					"stateMutability": "view",
					"type": "function"
				},
				{
					"inputs": [],
					"name": "rate",
					"outputs": [
						{
							"internalType": "uint256",
							"name": "",
							"type": "uint256"
						}
					],
					"stateMutability": "view",
					"type": "function"
				},
				{
					"inputs": [],
					"name": "stanjeDEX",
					"outputs": [
						{
							"internalType": "uint256",
							"name": "stanjeA",
							"type": "uint256"
						},
						{
							"internalType": "uint256",
							"name": "stanjeB",
							"type": "uint256"
						}
					],
					"stateMutability": "view",
					"type": "function"
				},
				{
					"inputs": [
						{
							"internalType": "uint256",
							"name": "_iznosA",
							"type": "uint256"
						}
					],
					"name": "swapAzaB",
					"outputs": [],
					"stateMutability": "nonpayable",
					"type": "function"
				},
				{
					"inputs": [
						{
							"internalType": "uint256",
							"name": "_iznosB",
							"type": "uint256"
						}
					],
					"name": "swapBzaA",
					"outputs": [],
					"stateMutability": "nonpayable",
					"type": "function"
				},
				{
					"inputs": [],
					"name": "tokenA",
					"outputs": [
						{
							"internalType": "contract TokenA",
							"name": "",
							"type": "address"
						}
					],
					"stateMutability": "view",
					"type": "function"
				},
				{
					"inputs": [],
					"name": "tokenB",
					"outputs": [
						{
							"internalType": "contract TokenB",
							"name": "",
							"type": "address"
						}
					],
					"stateMutability": "view",
					"type": "function"
				}
			],
			"devdoc": {
				"kind": "dev",
				"methods": {},
				"version": 1
			},
			"evm": {
				"assembly": "    /* \"contracts/SimpleDEX.sol\":110:2242  contract SimpleDEX {... */\n  mstore(0x40, 0x80)\n    /* \"contracts/SimpleDEX.sol\":278:279  2 */\n  0x02\n    /* \"contracts/SimpleDEX.sol\":256:279  uint256 public rate = 2 */\n  0x03\n  sstore\n    /* \"contracts/SimpleDEX.sol\":365:518  constructor(address _tokenA, address _tokenB) {... */\n  callvalue\n  dup1\n  iszero\n  tag_1\n  jumpi\n  revert(0x00, 0x00)\ntag_1:\n  pop\n  mload(0x40)\n  sub(codesize, bytecodeSize)\n  dup1\n  bytecodeSize\n  dup4\n  codecopy\n  dup2\n  dup2\n  add\n  0x40\n  mstore\n  dup2\n  add\n  swap1\n  tag_2\n  swap2\n  swap1\n  tag_3\n  jump\t// in\ntag_2:\n    /* \"contracts/SimpleDEX.sol\":430:440  msg.sender */\n  caller\n    /* \"contracts/SimpleDEX.sol\":422:427  owner */\n  0x00\n  0x00\n    /* \"contracts/SimpleDEX.sol\":422:440  owner = msg.sender */\n  0x0100\n  exp\n  dup2\n  sload\n  dup2\n  0xffffffffffffffffffffffffffffffffffffffff\n  mul\n  not\n  and\n  swap1\n  dup4\n  0xffffffffffffffffffffffffffffffffffffffff\n  and\n  mul\n  or\n  swap1\n  sstore\n  pop\n    /* \"contracts/SimpleDEX.sol\":467:474  _tokenA */\n  dup2\n    /* \"contracts/SimpleDEX.sol\":451:457  tokenA */\n  0x01\n  0x00\n    /* \"contracts/SimpleDEX.sol\":451:475  tokenA = TokenA(_tokenA) */\n  0x0100\n  exp\n  dup2\n  sload\n  dup2\n  0xffffffffffffffffffffffffffffffffffffffff\n  mul\n  not\n  and\n  swap1\n  dup4\n  0xffffffffffffffffffffffffffffffffffffffff\n  and\n  mul\n  or\n  swap1\n  sstore\n  pop\n    /* \"contracts/SimpleDEX.sol\":502:509  _tokenB */\n  dup1\n    /* \"contracts/SimpleDEX.sol\":486:492  tokenB */\n  0x02\n  0x00\n    /* \"contracts/SimpleDEX.sol\":486:510  tokenB = TokenB(_tokenB) */\n  0x0100\n  exp\n  dup2\n  sload\n  dup2\n  0xffffffffffffffffffffffffffffffffffffffff\n  mul\n  not\n  and\n  swap1\n  dup4\n  0xffffffffffffffffffffffffffffffffffffffff\n  and\n  mul\n  or\n  swap1\n  sstore\n  pop\n    /* \"contracts/SimpleDEX.sol\":365:518  constructor(address _tokenA, address _tokenB) {... */\n  pop\n  pop\n    /* \"contracts/SimpleDEX.sol\":110:2242  contract SimpleDEX {... */\n  jump(tag_6)\n    /* \"#utility.yul\":88:205   */\ntag_8:\n    /* \"#utility.yul\":197:198   */\n  0x00\n    /* \"#utility.yul\":194:195   */\n  0x00\n    /* \"#utility.yul\":187:199   */\n  revert\n    /* \"#utility.yul\":334:460   */\ntag_10:\n    /* \"#utility.yul\":371:378   */\n  0x00\n    /* \"#utility.yul\":411:453   */\n  0xffffffffffffffffffffffffffffffffffffffff\n    /* \"#utility.yul\":404:409   */\n  dup3\n    /* \"#utility.yul\":400:454   */\n  and\n    /* \"#utility.yul\":389:454   */\n  swap1\n  pop\n    /* \"#utility.yul\":334:460   */\n  swap2\n  swap1\n  pop\n  jump\t// out\n    /* \"#utility.yul\":466:562   */\ntag_11:\n    /* \"#utility.yul\":503:510   */\n  0x00\n    /* \"#utility.yul\":532:556   */\n  tag_20\n    /* \"#utility.yul\":550:555   */\n  dup3\n    /* \"#utility.yul\":532:556   */\n  tag_10\n  jump\t// in\ntag_20:\n    /* \"#utility.yul\":521:556   */\n  swap1\n  pop\n    /* \"#utility.yul\":466:562   */\n  swap2\n  swap1\n  pop\n  jump\t// out\n    /* \"#utility.yul\":568:690   */\ntag_12:\n    /* \"#utility.yul\":641:665   */\n  tag_22\n    /* \"#utility.yul\":659:664   */\n  dup2\n    /* \"#utility.yul\":641:665   */\n  tag_11\n  jump\t// in\ntag_22:\n    /* \"#utility.yul\":634:639   */\n  dup2\n    /* \"#utility.yul\":631:666   */\n  eq\n    /* \"#utility.yul\":621:684   */\n  tag_23\n  jumpi\n    /* \"#utility.yul\":680:681   */\n  0x00\n    /* \"#utility.yul\":677:678   */\n  0x00\n    /* \"#utility.yul\":670:682   */\n  revert\n    /* \"#utility.yul\":621:684   */\ntag_23:\n    /* \"#utility.yul\":568:690   */\n  pop\n  jump\t// out\n    /* \"#utility.yul\":696:839   */\ntag_13:\n    /* \"#utility.yul\":753:758   */\n  0x00\n    /* \"#utility.yul\":784:790   */\n  dup2\n    /* \"#utility.yul\":778:791   */\n  mload\n    /* \"#utility.yul\":769:791   */\n  swap1\n  pop\n    /* \"#utility.yul\":800:833   */\n  tag_25\n    /* \"#utility.yul\":827:832   */\n  dup2\n    /* \"#utility.yul\":800:833   */\n  tag_12\n  jump\t// in\ntag_25:\n    /* \"#utility.yul\":696:839   */\n  swap3\n  swap2\n  pop\n  pop\n  jump\t// out\n    /* \"#utility.yul\":845:1352   */\ntag_3:\n    /* \"#utility.yul\":924:930   */\n  0x00\n    /* \"#utility.yul\":932:938   */\n  0x00\n    /* \"#utility.yul\":981:983   */\n  0x40\n    /* \"#utility.yul\":969:978   */\n  dup4\n    /* \"#utility.yul\":960:967   */\n  dup6\n    /* \"#utility.yul\":956:979   */\n  sub\n    /* \"#utility.yul\":952:984   */\n  slt\n    /* \"#utility.yul\":949:1068   */\n  iszero\n  tag_27\n  jumpi\n    /* \"#utility.yul\":987:1066   */\n  tag_28\n  tag_8\n  jump\t// in\ntag_28:\n    /* \"#utility.yul\":949:1068   */\ntag_27:\n    /* \"#utility.yul\":1107:1108   */\n  0x00\n    /* \"#utility.yul\":1132:1196   */\n  tag_29\n    /* \"#utility.yul\":1188:1195   */\n  dup6\n    /* \"#utility.yul\":1179:1185   */\n  dup3\n    /* \"#utility.yul\":1168:1177   */\n  dup7\n    /* \"#utility.yul\":1164:1186   */\n  add\n    /* \"#utility.yul\":1132:1196   */\n  tag_13\n  jump\t// in\ntag_29:\n    /* \"#utility.yul\":1122:1196   */\n  swap3\n  pop\n    /* \"#utility.yul\":1078:1206   */\n  pop\n    /* \"#utility.yul\":1245:1247   */\n  0x20\n    /* \"#utility.yul\":1271:1335   */\n  tag_30\n    /* \"#utility.yul\":1327:1334   */\n  dup6\n    /* \"#utility.yul\":1318:1324   */\n  dup3\n    /* \"#utility.yul\":1307:1316   */\n  dup7\n    /* \"#utility.yul\":1303:1325   */\n  add\n    /* \"#utility.yul\":1271:1335   */\n  tag_13\n  jump\t// in\ntag_30:\n    /* \"#utility.yul\":1261:1335   */\n  swap2\n  pop\n    /* \"#utility.yul\":1216:1345   */\n  pop\n    /* \"#utility.yul\":845:1352   */\n  swap3\n  pop\n  swap3\n  swap1\n  pop\n  jump\t// out\n    /* \"contracts/SimpleDEX.sol\":110:2242  contract SimpleDEX {... */\ntag_6:\n  dataSize(sub_0)\n  dup1\n  dataOffset(sub_0)\n  0x00\n  codecopy\n  0x00\n  return\nstop\n\nsub_0: assembly {\n        /* \"contracts/SimpleDEX.sol\":110:2242  contract SimpleDEX {... */\n      mstore(0x40, 0x80)\n      callvalue\n      dup1\n      iszero\n      tag_1\n      jumpi\n      revert(0x00, 0x00)\n    tag_1:\n      pop\n      jumpi(tag_2, lt(calldatasize, 0x04))\n      shr(0xe0, calldataload(0x00))\n      dup1\n      0x76182baf\n      gt\n      tag_12\n      jumpi\n      dup1\n      0x76182baf\n      eq\n      tag_7\n      jumpi\n      dup1\n      0x804db8f7\n      eq\n      tag_8\n      jumpi\n      dup1\n      0x8da5cb5b\n      eq\n      tag_9\n      jumpi\n      dup1\n      0x9e30b1e8\n      eq\n      tag_10\n      jumpi\n      dup1\n      0xca4a1b8f\n      eq\n      tag_11\n      jumpi\n      jump(tag_2)\n    tag_12:\n      dup1\n      0x0fc63d10\n      eq\n      tag_3\n      jumpi\n      dup1\n      0x1f67316e\n      eq\n      tag_4\n      jumpi\n      dup1\n      0x2c4e722e\n      eq\n      tag_5\n      jumpi\n      dup1\n      0x5f64b55b\n      eq\n      tag_6\n      jumpi\n    tag_2:\n      revert(0x00, 0x00)\n        /* \"contracts/SimpleDEX.sol\":163:183  TokenA public tokenA */\n    tag_3:\n      tag_13\n      tag_14\n      jump\t// in\n    tag_13:\n      mload(0x40)\n      tag_15\n      swap2\n      swap1\n      tag_16\n      jump\t// in\n    tag_15:\n      mload(0x40)\n      dup1\n      swap2\n      sub\n      swap1\n      return\n        /* \"contracts/SimpleDEX.sol\":566:973  function swapAzaB(uint256 _iznosA) public {... */\n    tag_4:\n      tag_17\n      0x04\n      dup1\n      calldatasize\n      sub\n      dup2\n      add\n      swap1\n      tag_18\n      swap2\n      swap1\n      tag_19\n      jump\t// in\n    tag_18:\n      tag_20\n      jump\t// in\n    tag_17:\n      stop\n        /* \"contracts/SimpleDEX.sol\":256:279  uint256 public rate = 2 */\n    tag_5:\n      tag_21\n      tag_22\n      jump\t// in\n    tag_21:\n      mload(0x40)\n      tag_23\n      swap2\n      swap1\n      tag_24\n      jump\t// in\n    tag_23:\n      mload(0x40)\n      dup1\n      swap2\n      sub\n      swap1\n      return\n        /* \"contracts/SimpleDEX.sol\":190:210  TokenB public tokenB */\n    tag_6:\n      tag_25\n      tag_26\n      jump\t// in\n    tag_25:\n      mload(0x40)\n      tag_27\n      swap2\n      swap1\n      tag_28\n      jump\t// in\n    tag_27:\n      mload(0x40)\n      dup1\n      swap2\n      sub\n      swap1\n      return\n        /* \"contracts/SimpleDEX.sol\":1568:1758  function depositTokenB(uint256 _iznos) public {... */\n    tag_7:\n      tag_29\n      0x04\n      dup1\n      calldatasize\n      sub\n      dup2\n      add\n      swap1\n      tag_30\n      swap2\n      swap1\n      tag_19\n      jump\t// in\n    tag_30:\n      tag_31\n      jump\t// in\n    tag_29:\n      stop\n        /* \"contracts/SimpleDEX.sol\":2051:2239  function stanjeDEX() public view returns (uint256 stanjeA, uint256 stanjeB) {... */\n    tag_8:\n      tag_32\n      tag_33\n      jump\t// in\n    tag_32:\n      mload(0x40)\n      tag_34\n      swap3\n      swap2\n      swap1\n      tag_35\n      jump\t// in\n    tag_34:\n      mload(0x40)\n      dup1\n      swap2\n      sub\n      swap1\n      return\n        /* \"contracts/SimpleDEX.sol\":136:156  address public owner */\n    tag_9:\n      tag_36\n      tag_37\n      jump\t// in\n    tag_36:\n      mload(0x40)\n      tag_38\n      swap2\n      swap1\n      tag_39\n      jump\t// in\n    tag_38:\n      mload(0x40)\n      dup1\n      swap2\n      sub\n      swap1\n      return\n        /* \"contracts/SimpleDEX.sol\":1814:2004  function depositTokenA(uint256 _iznos) public {... */\n    tag_10:\n      tag_40\n      0x04\n      dup1\n      calldatasize\n      sub\n      dup2\n      add\n      swap1\n      tag_41\n      swap2\n      swap1\n      tag_19\n      jump\t// in\n    tag_41:\n      tag_42\n      jump\t// in\n    tag_40:\n      stop\n        /* \"contracts/SimpleDEX.sol\":1021:1512  function swapBzaA(uint256 _iznosB) public {... */\n    tag_11:\n      tag_43\n      0x04\n      dup1\n      calldatasize\n      sub\n      dup2\n      add\n      swap1\n      tag_44\n      swap2\n      swap1\n      tag_19\n      jump\t// in\n    tag_44:\n      tag_45\n      jump\t// in\n    tag_43:\n      stop\n        /* \"contracts/SimpleDEX.sol\":163:183  TokenA public tokenA */\n    tag_14:\n      0x01\n      0x00\n      swap1\n      sload\n      swap1\n      0x0100\n      exp\n      swap1\n      div\n      0xffffffffffffffffffffffffffffffffffffffff\n      and\n      dup2\n      jump\t// out\n        /* \"contracts/SimpleDEX.sol\":566:973  function swapAzaB(uint256 _iznosA) public {... */\n    tag_20:\n        /* \"contracts/SimpleDEX.sol\":637:638  0 */\n      0x00\n        /* \"contracts/SimpleDEX.sol\":627:634  _iznosA */\n      dup2\n        /* \"contracts/SimpleDEX.sol\":627:638  _iznosA > 0 */\n      gt\n        /* \"contracts/SimpleDEX.sol\":619:668  require(_iznosA > 0, \"Iznos mora biti veci od 0\") */\n      tag_47\n      jumpi\n      mload(0x40)\n      0x08c379a000000000000000000000000000000000000000000000000000000000\n      dup2\n      mstore\n      0x04\n      add\n      tag_48\n      swap1\n      tag_49\n      jump\t// in\n    tag_48:\n      mload(0x40)\n      dup1\n      swap2\n      sub\n      swap1\n      revert\n    tag_47:\n        /* \"contracts/SimpleDEX.sol\":681:695  uint256 iznosB */\n      0x00\n        /* \"contracts/SimpleDEX.sol\":708:712  rate */\n      sload(0x03)\n        /* \"contracts/SimpleDEX.sol\":698:705  _iznosA */\n      dup3\n        /* \"contracts/SimpleDEX.sol\":698:712  _iznosA * rate */\n      tag_50\n      swap2\n      swap1\n      tag_51\n      jump\t// in\n    tag_50:\n        /* \"contracts/SimpleDEX.sol\":681:712  uint256 iznosB = _iznosA * rate */\n      swap1\n      pop\n        /* \"contracts/SimpleDEX.sol\":768:774  iznosB */\n      dup1\n        /* \"contracts/SimpleDEX.sol\":733:739  tokenB */\n      0x02\n      0x00\n      swap1\n      sload\n      swap1\n      0x0100\n      exp\n      swap1\n      div\n      0xffffffffffffffffffffffffffffffffffffffff\n      and\n        /* \"contracts/SimpleDEX.sol\":733:749  tokenB.balanceOf */\n      0xffffffffffffffffffffffffffffffffffffffff\n      and\n      0x70a08231\n        /* \"contracts/SimpleDEX.sol\":758:762  this */\n      address\n        /* \"contracts/SimpleDEX.sol\":733:764  tokenB.balanceOf(address(this)) */\n      mload(0x40)\n      dup3\n      0xffffffff\n      and\n      0xe0\n      shl\n      dup2\n      mstore\n      0x04\n      add\n      tag_52\n      swap2\n      swap1\n      tag_39\n      jump\t// in\n    tag_52:\n      0x20\n      mload(0x40)\n      dup1\n      dup4\n      sub\n      dup2\n      dup7\n      gas\n      staticcall\n      iszero\n      dup1\n      iszero\n      tag_54\n      jumpi\n      returndatacopy(0x00, 0x00, returndatasize)\n      revert(0x00, returndatasize)\n    tag_54:\n      pop\n      pop\n      pop\n      pop\n      mload(0x40)\n      returndatasize\n      not(0x1f)\n      0x1f\n      dup3\n      add\n      and\n      dup3\n      add\n      dup1\n      0x40\n      mstore\n      pop\n      dup2\n      add\n      swap1\n      tag_55\n      swap2\n      swap1\n      tag_56\n      jump\t// in\n    tag_55:\n        /* \"contracts/SimpleDEX.sol\":733:774  tokenB.balanceOf(address(this)) >= iznosB */\n      lt\n      iszero\n        /* \"contracts/SimpleDEX.sol\":725:800  require(tokenB.balanceOf(address(this)) >= iznosB, \"DEX nema dovoljno TKB\") */\n      tag_57\n      jumpi\n      mload(0x40)\n      0x08c379a000000000000000000000000000000000000000000000000000000000\n      dup2\n      mstore\n      0x04\n      add\n      tag_58\n      swap1\n      tag_59\n      jump\t// in\n    tag_58:\n      mload(0x40)\n      dup1\n      swap2\n      sub\n      swap1\n      revert\n    tag_57:\n        /* \"contracts/SimpleDEX.sol\":813:819  tokenA */\n      0x01\n      0x00\n      swap1\n      sload\n      swap1\n      0x0100\n      exp\n      swap1\n      div\n      0xffffffffffffffffffffffffffffffffffffffff\n      and\n        /* \"contracts/SimpleDEX.sol\":813:832  tokenA.transferFrom */\n      0xffffffffffffffffffffffffffffffffffffffff\n      and\n      0x23b872dd\n        /* \"contracts/SimpleDEX.sol\":833:843  msg.sender */\n      caller\n        /* \"contracts/SimpleDEX.sol\":853:857  this */\n      address\n        /* \"contracts/SimpleDEX.sol\":860:867  _iznosA */\n      dup6\n        /* \"contracts/SimpleDEX.sol\":813:868  tokenA.transferFrom(msg.sender, address(this), _iznosA) */\n      mload(0x40)\n      dup5\n      0xffffffff\n      and\n      0xe0\n      shl\n      dup2\n      mstore\n      0x04\n      add\n      tag_60\n      swap4\n      swap3\n      swap2\n      swap1\n      tag_61\n      jump\t// in\n    tag_60:\n      0x20\n      mload(0x40)\n      dup1\n      dup4\n      sub\n      dup2\n      0x00\n      dup8\n      gas\n      call\n      iszero\n      dup1\n      iszero\n      tag_63\n      jumpi\n      returndatacopy(0x00, 0x00, returndatasize)\n      revert(0x00, returndatasize)\n    tag_63:\n      pop\n      pop\n      pop\n      pop\n      mload(0x40)\n      returndatasize\n      not(0x1f)\n      0x1f\n      dup3\n      add\n      and\n      dup3\n      add\n      dup1\n      0x40\n      mstore\n      pop\n      dup2\n      add\n      swap1\n      tag_64\n      swap2\n      swap1\n      tag_65\n      jump\t// in\n    tag_64:\n      pop\n        /* \"contracts/SimpleDEX.sol\":879:885  tokenB */\n      0x02\n      0x00\n      swap1\n      sload\n      swap1\n      0x0100\n      exp\n      swap1\n      div\n      0xffffffffffffffffffffffffffffffffffffffff\n      and\n        /* \"contracts/SimpleDEX.sol\":879:894  tokenB.transfer */\n      0xffffffffffffffffffffffffffffffffffffffff\n      and\n      0xa9059cbb\n        /* \"contracts/SimpleDEX.sol\":895:905  msg.sender */\n      caller\n        /* \"contracts/SimpleDEX.sol\":907:913  iznosB */\n      dup4\n        /* \"contracts/SimpleDEX.sol\":879:914  tokenB.transfer(msg.sender, iznosB) */\n      mload(0x40)\n      dup4\n      0xffffffff\n      and\n      0xe0\n      shl\n      dup2\n      mstore\n      0x04\n      add\n      tag_66\n      swap3\n      swap2\n      swap1\n      tag_67\n      jump\t// in\n    tag_66:\n      0x20\n      mload(0x40)\n      dup1\n      dup4\n      sub\n      dup2\n      0x00\n      dup8\n      gas\n      call\n      iszero\n      dup1\n      iszero\n      tag_69\n      jumpi\n      returndatacopy(0x00, 0x00, returndatasize)\n      revert(0x00, returndatasize)\n    tag_69:\n      pop\n      pop\n      pop\n      pop\n      mload(0x40)\n      returndatasize\n      not(0x1f)\n      0x1f\n      dup3\n      add\n      and\n      dup3\n      add\n      dup1\n      0x40\n      mstore\n      pop\n      dup2\n      add\n      swap1\n      tag_70\n      swap2\n      swap1\n      tag_65\n      jump\t// in\n    tag_70:\n      pop\n        /* \"contracts/SimpleDEX.sol\":937:947  msg.sender */\n      caller\n        /* \"contracts/SimpleDEX.sol\":932:965  Swap(msg.sender, _iznosA, iznosB) */\n      0xffffffffffffffffffffffffffffffffffffffff\n      and\n      0x77f92a1b6a1a11de8ca49515ad4c1fad45632dd3442167d74b90b304a3c7a758\n        /* \"contracts/SimpleDEX.sol\":949:956  _iznosA */\n      dup4\n        /* \"contracts/SimpleDEX.sol\":958:964  iznosB */\n      dup4\n        /* \"contracts/SimpleDEX.sol\":932:965  Swap(msg.sender, _iznosA, iznosB) */\n      mload(0x40)\n      tag_71\n      swap3\n      swap2\n      swap1\n      tag_35\n      jump\t// in\n    tag_71:\n      mload(0x40)\n      dup1\n      swap2\n      sub\n      swap1\n      log2\n        /* \"contracts/SimpleDEX.sol\":608:973  {... */\n      pop\n        /* \"contracts/SimpleDEX.sol\":566:973  function swapAzaB(uint256 _iznosA) public {... */\n      pop\n      jump\t// out\n        /* \"contracts/SimpleDEX.sol\":256:279  uint256 public rate = 2 */\n    tag_22:\n      sload(0x03)\n      dup2\n      jump\t// out\n        /* \"contracts/SimpleDEX.sol\":190:210  TokenB public tokenB */\n    tag_26:\n      0x02\n      0x00\n      swap1\n      sload\n      swap1\n      0x0100\n      exp\n      swap1\n      div\n      0xffffffffffffffffffffffffffffffffffffffff\n      and\n      dup2\n      jump\t// out\n        /* \"contracts/SimpleDEX.sol\":1568:1758  function depositTokenB(uint256 _iznos) public {... */\n    tag_31:\n        /* \"contracts/SimpleDEX.sol\":1647:1652  owner */\n      0x00\n      0x00\n      swap1\n      sload\n      swap1\n      0x0100\n      exp\n      swap1\n      div\n      0xffffffffffffffffffffffffffffffffffffffff\n      and\n        /* \"contracts/SimpleDEX.sol\":1633:1652  msg.sender == owner */\n      0xffffffffffffffffffffffffffffffffffffffff\n      and\n        /* \"contracts/SimpleDEX.sol\":1633:1643  msg.sender */\n      caller\n        /* \"contracts/SimpleDEX.sol\":1633:1652  msg.sender == owner */\n      0xffffffffffffffffffffffffffffffffffffffff\n      and\n      eq\n        /* \"contracts/SimpleDEX.sol\":1625:1685  require(msg.sender == owner, \"Samo vlasnik moze puniti DEX\") */\n      tag_73\n      jumpi\n      mload(0x40)\n      0x08c379a000000000000000000000000000000000000000000000000000000000\n      dup2\n      mstore\n      0x04\n      add\n      tag_74\n      swap1\n      tag_75\n      jump\t// in\n    tag_74:\n      mload(0x40)\n      dup1\n      swap2\n      sub\n      swap1\n      revert\n    tag_73:\n        /* \"contracts/SimpleDEX.sol\":1696:1702  tokenB */\n      0x02\n      0x00\n      swap1\n      sload\n      swap1\n      0x0100\n      exp\n      swap1\n      div\n      0xffffffffffffffffffffffffffffffffffffffff\n      and\n        /* \"contracts/SimpleDEX.sol\":1696:1715  tokenB.transferFrom */\n      0xffffffffffffffffffffffffffffffffffffffff\n      and\n      0x23b872dd\n        /* \"contracts/SimpleDEX.sol\":1716:1726  msg.sender */\n      caller\n        /* \"contracts/SimpleDEX.sol\":1736:1740  this */\n      address\n        /* \"contracts/SimpleDEX.sol\":1743:1749  _iznos */\n      dup5\n        /* \"contracts/SimpleDEX.sol\":1696:1750  tokenB.transferFrom(msg.sender, address(this), _iznos) */\n      mload(0x40)\n      dup5\n      0xffffffff\n      and\n      0xe0\n      shl\n      dup2\n      mstore\n      0x04\n      add\n      tag_76\n      swap4\n      swap3\n      swap2\n      swap1\n      tag_61\n      jump\t// in\n    tag_76:\n      0x20\n      mload(0x40)\n      dup1\n      dup4\n      sub\n      dup2\n      0x00\n      dup8\n      gas\n      call\n      iszero\n      dup1\n      iszero\n      tag_78\n      jumpi\n      returndatacopy(0x00, 0x00, returndatasize)\n      revert(0x00, returndatasize)\n    tag_78:\n      pop\n      pop\n      pop\n      pop\n      mload(0x40)\n      returndatasize\n      not(0x1f)\n      0x1f\n      dup3\n      add\n      and\n      dup3\n      add\n      dup1\n      0x40\n      mstore\n      pop\n      dup2\n      add\n      swap1\n      tag_79\n      swap2\n      swap1\n      tag_65\n      jump\t// in\n    tag_79:\n      pop\n        /* \"contracts/SimpleDEX.sol\":1568:1758  function depositTokenB(uint256 _iznos) public {... */\n      pop\n      jump\t// out\n        /* \"contracts/SimpleDEX.sol\":2051:2239  function stanjeDEX() public view returns (uint256 stanjeA, uint256 stanjeB) {... */\n    tag_33:\n        /* \"contracts/SimpleDEX.sol\":2093:2108  uint256 stanjeA */\n      0x00\n        /* \"contracts/SimpleDEX.sol\":2110:2125  uint256 stanjeB */\n      0x00\n        /* \"contracts/SimpleDEX.sol\":2148:2154  tokenA */\n      0x01\n      0x00\n      swap1\n      sload\n      swap1\n      0x0100\n      exp\n      swap1\n      div\n      0xffffffffffffffffffffffffffffffffffffffff\n      and\n        /* \"contracts/SimpleDEX.sol\":2148:2164  tokenA.balanceOf */\n      0xffffffffffffffffffffffffffffffffffffffff\n      and\n      0x70a08231\n        /* \"contracts/SimpleDEX.sol\":2173:2177  this */\n      address\n        /* \"contracts/SimpleDEX.sol\":2148:2179  tokenA.balanceOf(address(this)) */\n      mload(0x40)\n      dup3\n      0xffffffff\n      and\n      0xe0\n      shl\n      dup2\n      mstore\n      0x04\n      add\n      tag_81\n      swap2\n      swap1\n      tag_39\n      jump\t// in\n    tag_81:\n      0x20\n      mload(0x40)\n      dup1\n      dup4\n      sub\n      dup2\n      dup7\n      gas\n      staticcall\n      iszero\n      dup1\n      iszero\n      tag_83\n      jumpi\n      returndatacopy(0x00, 0x00, returndatasize)\n      revert(0x00, returndatasize)\n    tag_83:\n      pop\n      pop\n      pop\n      pop\n      mload(0x40)\n      returndatasize\n      not(0x1f)\n      0x1f\n      dup3\n      add\n      and\n      dup3\n      add\n      dup1\n      0x40\n      mstore\n      pop\n      dup2\n      add\n      swap1\n      tag_84\n      swap2\n      swap1\n      tag_56\n      jump\t// in\n    tag_84:\n        /* \"contracts/SimpleDEX.sol\":2138:2179  stanjeA = tokenA.balanceOf(address(this)) */\n      swap2\n      pop\n        /* \"contracts/SimpleDEX.sol\":2200:2206  tokenB */\n      0x02\n      0x00\n      swap1\n      sload\n      swap1\n      0x0100\n      exp\n      swap1\n      div\n      0xffffffffffffffffffffffffffffffffffffffff\n      and\n        /* \"contracts/SimpleDEX.sol\":2200:2216  tokenB.balanceOf */\n      0xffffffffffffffffffffffffffffffffffffffff\n      and\n      0x70a08231\n        /* \"contracts/SimpleDEX.sol\":2225:2229  this */\n      address\n        /* \"contracts/SimpleDEX.sol\":2200:2231  tokenB.balanceOf(address(this)) */\n      mload(0x40)\n      dup3\n      0xffffffff\n      and\n      0xe0\n      shl\n      dup2\n      mstore\n      0x04\n      add\n      tag_85\n      swap2\n      swap1\n      tag_39\n      jump\t// in\n    tag_85:\n      0x20\n      mload(0x40)\n      dup1\n      dup4\n      sub\n      dup2\n      dup7\n      gas\n      staticcall\n      iszero\n      dup1\n      iszero\n      tag_87\n      jumpi\n      returndatacopy(0x00, 0x00, returndatasize)\n      revert(0x00, returndatasize)\n    tag_87:\n      pop\n      pop\n      pop\n      pop\n      mload(0x40)\n      returndatasize\n      not(0x1f)\n      0x1f\n      dup3\n      add\n      and\n      dup3\n      add\n      dup1\n      0x40\n      mstore\n      pop\n      dup2\n      add\n      swap1\n      tag_88\n      swap2\n      swap1\n      tag_56\n      jump\t// in\n    tag_88:\n        /* \"contracts/SimpleDEX.sol\":2190:2231  stanjeB = tokenB.balanceOf(address(this)) */\n      swap1\n      pop\n        /* \"contracts/SimpleDEX.sol\":2051:2239  function stanjeDEX() public view returns (uint256 stanjeA, uint256 stanjeB) {... */\n      swap1\n      swap2\n      jump\t// out\n        /* \"contracts/SimpleDEX.sol\":136:156  address public owner */\n    tag_37:\n      0x00\n      0x00\n      swap1\n      sload\n      swap1\n      0x0100\n      exp\n      swap1\n      div\n      0xffffffffffffffffffffffffffffffffffffffff\n      and\n      dup2\n      jump\t// out\n        /* \"contracts/SimpleDEX.sol\":1814:2004  function depositTokenA(uint256 _iznos) public {... */\n    tag_42:\n        /* \"contracts/SimpleDEX.sol\":1893:1898  owner */\n      0x00\n      0x00\n      swap1\n      sload\n      swap1\n      0x0100\n      exp\n      swap1\n      div\n      0xffffffffffffffffffffffffffffffffffffffff\n      and\n        /* \"contracts/SimpleDEX.sol\":1879:1898  msg.sender == owner */\n      0xffffffffffffffffffffffffffffffffffffffff\n      and\n        /* \"contracts/SimpleDEX.sol\":1879:1889  msg.sender */\n      caller\n        /* \"contracts/SimpleDEX.sol\":1879:1898  msg.sender == owner */\n      0xffffffffffffffffffffffffffffffffffffffff\n      and\n      eq\n        /* \"contracts/SimpleDEX.sol\":1871:1931  require(msg.sender == owner, \"Samo vlasnik moze puniti DEX\") */\n      tag_90\n      jumpi\n      mload(0x40)\n      0x08c379a000000000000000000000000000000000000000000000000000000000\n      dup2\n      mstore\n      0x04\n      add\n      tag_91\n      swap1\n      tag_75\n      jump\t// in\n    tag_91:\n      mload(0x40)\n      dup1\n      swap2\n      sub\n      swap1\n      revert\n    tag_90:\n        /* \"contracts/SimpleDEX.sol\":1942:1948  tokenA */\n      0x01\n      0x00\n      swap1\n      sload\n      swap1\n      0x0100\n      exp\n      swap1\n      div\n      0xffffffffffffffffffffffffffffffffffffffff\n      and\n        /* \"contracts/SimpleDEX.sol\":1942:1961  tokenA.transferFrom */\n      0xffffffffffffffffffffffffffffffffffffffff\n      and\n      0x23b872dd\n        /* \"contracts/SimpleDEX.sol\":1962:1972  msg.sender */\n      caller\n        /* \"contracts/SimpleDEX.sol\":1982:1986  this */\n      address\n        /* \"contracts/SimpleDEX.sol\":1989:1995  _iznos */\n      dup5\n        /* \"contracts/SimpleDEX.sol\":1942:1996  tokenA.transferFrom(msg.sender, address(this), _iznos) */\n      mload(0x40)\n      dup5\n      0xffffffff\n      and\n      0xe0\n      shl\n      dup2\n      mstore\n      0x04\n      add\n      tag_92\n      swap4\n      swap3\n      swap2\n      swap1\n      tag_61\n      jump\t// in\n    tag_92:\n      0x20\n      mload(0x40)\n      dup1\n      dup4\n      sub\n      dup2\n      0x00\n      dup8\n      gas\n      call\n      iszero\n      dup1\n      iszero\n      tag_94\n      jumpi\n      returndatacopy(0x00, 0x00, returndatasize)\n      revert(0x00, returndatasize)\n    tag_94:\n      pop\n      pop\n      pop\n      pop\n      mload(0x40)\n      returndatasize\n      not(0x1f)\n      0x1f\n      dup3\n      add\n      and\n      dup3\n      add\n      dup1\n      0x40\n      mstore\n      pop\n      dup2\n      add\n      swap1\n      tag_95\n      swap2\n      swap1\n      tag_65\n      jump\t// in\n    tag_95:\n      pop\n        /* \"contracts/SimpleDEX.sol\":1814:2004  function depositTokenA(uint256 _iznos) public {... */\n      pop\n      jump\t// out\n        /* \"contracts/SimpleDEX.sol\":1021:1512  function swapBzaA(uint256 _iznosB) public {... */\n    tag_45:\n        /* \"contracts/SimpleDEX.sol\":1092:1093  0 */\n      0x00\n        /* \"contracts/SimpleDEX.sol\":1082:1089  _iznosB */\n      dup2\n        /* \"contracts/SimpleDEX.sol\":1082:1093  _iznosB > 0 */\n      gt\n        /* \"contracts/SimpleDEX.sol\":1074:1123  require(_iznosB > 0, \"Iznos mora biti veci od 0\") */\n      tag_97\n      jumpi\n      mload(0x40)\n      0x08c379a000000000000000000000000000000000000000000000000000000000\n      dup2\n      mstore\n      0x04\n      add\n      tag_98\n      swap1\n      tag_49\n      jump\t// in\n    tag_98:\n      mload(0x40)\n      dup1\n      swap2\n      sub\n      swap1\n      revert\n    tag_97:\n        /* \"contracts/SimpleDEX.sol\":1136:1150  uint256 iznosA */\n      0x00\n        /* \"contracts/SimpleDEX.sol\":1163:1167  rate */\n      sload(0x03)\n        /* \"contracts/SimpleDEX.sol\":1153:1160  _iznosB */\n      dup3\n        /* \"contracts/SimpleDEX.sol\":1153:1167  _iznosB / rate */\n      tag_99\n      swap2\n      swap1\n      tag_100\n      jump\t// in\n    tag_99:\n        /* \"contracts/SimpleDEX.sol\":1136:1167  uint256 iznosA = _iznosB / rate */\n      swap1\n      pop\n        /* \"contracts/SimpleDEX.sol\":1197:1198  1 */\n      0x01\n        /* \"contracts/SimpleDEX.sol\":1188:1194  iznosA */\n      dup2\n        /* \"contracts/SimpleDEX.sol\":1188:1198  iznosA > 1 */\n      gt\n        /* \"contracts/SimpleDEX.sol\":1180:1253  require(iznosA > 1, \"Iznos zamjene je prenizak - posalji najmanje 2 TKB\") */\n      tag_101\n      jumpi\n      mload(0x40)\n      0x08c379a000000000000000000000000000000000000000000000000000000000\n      dup2\n      mstore\n      0x04\n      add\n      tag_102\n      swap1\n      tag_103\n      jump\t// in\n    tag_102:\n      mload(0x40)\n      dup1\n      swap2\n      sub\n      swap1\n      revert\n    tag_101:\n        /* \"contracts/SimpleDEX.sol\":1307:1313  iznosA */\n      dup1\n        /* \"contracts/SimpleDEX.sol\":1272:1278  tokenA */\n      0x01\n      0x00\n      swap1\n      sload\n      swap1\n      0x0100\n      exp\n      swap1\n      div\n      0xffffffffffffffffffffffffffffffffffffffff\n      and\n        /* \"contracts/SimpleDEX.sol\":1272:1288  tokenA.balanceOf */\n      0xffffffffffffffffffffffffffffffffffffffff\n      and\n      0x70a08231\n        /* \"contracts/SimpleDEX.sol\":1297:1301  this */\n      address\n        /* \"contracts/SimpleDEX.sol\":1272:1303  tokenA.balanceOf(address(this)) */\n      mload(0x40)\n      dup3\n      0xffffffff\n      and\n      0xe0\n      shl\n      dup2\n      mstore\n      0x04\n      add\n      tag_104\n      swap2\n      swap1\n      tag_39\n      jump\t// in\n    tag_104:\n      0x20\n      mload(0x40)\n      dup1\n      dup4\n      sub\n      dup2\n      dup7\n      gas\n      staticcall\n      iszero\n      dup1\n      iszero\n      tag_106\n      jumpi\n      returndatacopy(0x00, 0x00, returndatasize)\n      revert(0x00, returndatasize)\n    tag_106:\n      pop\n      pop\n      pop\n      pop\n      mload(0x40)\n      returndatasize\n      not(0x1f)\n      0x1f\n      dup3\n      add\n      and\n      dup3\n      add\n      dup1\n      0x40\n      mstore\n      pop\n      dup2\n      add\n      swap1\n      tag_107\n      swap2\n      swap1\n      tag_56\n      jump\t// in\n    tag_107:\n        /* \"contracts/SimpleDEX.sol\":1272:1313  tokenA.balanceOf(address(this)) >= iznosA */\n      lt\n      iszero\n        /* \"contracts/SimpleDEX.sol\":1264:1339  require(tokenA.balanceOf(address(this)) >= iznosA, \"DEX nema dovoljno TKA\") */\n      tag_108\n      jumpi\n      mload(0x40)\n      0x08c379a000000000000000000000000000000000000000000000000000000000\n      dup2\n      mstore\n      0x04\n      add\n      tag_109\n      swap1\n      tag_110\n      jump\t// in\n    tag_109:\n      mload(0x40)\n      dup1\n      swap2\n      sub\n      swap1\n      revert\n    tag_108:\n        /* \"contracts/SimpleDEX.sol\":1352:1358  tokenB */\n      0x02\n      0x00\n      swap1\n      sload\n      swap1\n      0x0100\n      exp\n      swap1\n      div\n      0xffffffffffffffffffffffffffffffffffffffff\n      and\n        /* \"contracts/SimpleDEX.sol\":1352:1371  tokenB.transferFrom */\n      0xffffffffffffffffffffffffffffffffffffffff\n      and\n      0x23b872dd\n        /* \"contracts/SimpleDEX.sol\":1372:1382  msg.sender */\n      caller\n        /* \"contracts/SimpleDEX.sol\":1392:1396  this */\n      address\n        /* \"contracts/SimpleDEX.sol\":1399:1406  _iznosB */\n      dup6\n        /* \"contracts/SimpleDEX.sol\":1352:1407  tokenB.transferFrom(msg.sender, address(this), _iznosB) */\n      mload(0x40)\n      dup5\n      0xffffffff\n      and\n      0xe0\n      shl\n      dup2\n      mstore\n      0x04\n      add\n      tag_111\n      swap4\n      swap3\n      swap2\n      swap1\n      tag_61\n      jump\t// in\n    tag_111:\n      0x20\n      mload(0x40)\n      dup1\n      dup4\n      sub\n      dup2\n      0x00\n      dup8\n      gas\n      call\n      iszero\n      dup1\n      iszero\n      tag_113\n      jumpi\n      returndatacopy(0x00, 0x00, returndatasize)\n      revert(0x00, returndatasize)\n    tag_113:\n      pop\n      pop\n      pop\n      pop\n      mload(0x40)\n      returndatasize\n      not(0x1f)\n      0x1f\n      dup3\n      add\n      and\n      dup3\n      add\n      dup1\n      0x40\n      mstore\n      pop\n      dup2\n      add\n      swap1\n      tag_114\n      swap2\n      swap1\n      tag_65\n      jump\t// in\n    tag_114:\n      pop\n        /* \"contracts/SimpleDEX.sol\":1418:1424  tokenA */\n      0x01\n      0x00\n      swap1\n      sload\n      swap1\n      0x0100\n      exp\n      swap1\n      div\n      0xffffffffffffffffffffffffffffffffffffffff\n      and\n        /* \"contracts/SimpleDEX.sol\":1418:1433  tokenA.transfer */\n      0xffffffffffffffffffffffffffffffffffffffff\n      and\n      0xa9059cbb\n        /* \"contracts/SimpleDEX.sol\":1434:1444  msg.sender */\n      caller\n        /* \"contracts/SimpleDEX.sol\":1446:1452  iznosA */\n      dup4\n        /* \"contracts/SimpleDEX.sol\":1418:1453  tokenA.transfer(msg.sender, iznosA) */\n      mload(0x40)\n      dup4\n      0xffffffff\n      and\n      0xe0\n      shl\n      dup2\n      mstore\n      0x04\n      add\n      tag_115\n      swap3\n      swap2\n      swap1\n      tag_67\n      jump\t// in\n    tag_115:\n      0x20\n      mload(0x40)\n      dup1\n      dup4\n      sub\n      dup2\n      0x00\n      dup8\n      gas\n      call\n      iszero\n      dup1\n      iszero\n      tag_117\n      jumpi\n      returndatacopy(0x00, 0x00, returndatasize)\n      revert(0x00, returndatasize)\n    tag_117:\n      pop\n      pop\n      pop\n      pop\n      mload(0x40)\n      returndatasize\n      not(0x1f)\n      0x1f\n      dup3\n      add\n      and\n      dup3\n      add\n      dup1\n      0x40\n      mstore\n      pop\n      dup2\n      add\n      swap1\n      tag_118\n      swap2\n      swap1\n      tag_65\n      jump\t// in\n    tag_118:\n      pop\n        /* \"contracts/SimpleDEX.sol\":1476:1486  msg.sender */\n      caller\n        /* \"contracts/SimpleDEX.sol\":1471:1504  Swap(msg.sender, _iznosB, iznosA) */\n      0xffffffffffffffffffffffffffffffffffffffff\n      and\n      0x77f92a1b6a1a11de8ca49515ad4c1fad45632dd3442167d74b90b304a3c7a758\n        /* \"contracts/SimpleDEX.sol\":1488:1495  _iznosB */\n      dup4\n        /* \"contracts/SimpleDEX.sol\":1497:1503  iznosA */\n      dup4\n        /* \"contracts/SimpleDEX.sol\":1471:1504  Swap(msg.sender, _iznosB, iznosA) */\n      mload(0x40)\n      tag_119\n      swap3\n      swap2\n      swap1\n      tag_35\n      jump\t// in\n    tag_119:\n      mload(0x40)\n      dup1\n      swap2\n      sub\n      swap1\n      log2\n        /* \"contracts/SimpleDEX.sol\":1063:1512  {... */\n      pop\n        /* \"contracts/SimpleDEX.sol\":1021:1512  function swapBzaA(uint256 _iznosB) public {... */\n      pop\n      jump\t// out\n        /* \"#utility.yul\":7:133   */\n    tag_120:\n        /* \"#utility.yul\":44:51   */\n      0x00\n        /* \"#utility.yul\":84:126   */\n      0xffffffffffffffffffffffffffffffffffffffff\n        /* \"#utility.yul\":77:82   */\n      dup3\n        /* \"#utility.yul\":73:127   */\n      and\n        /* \"#utility.yul\":62:127   */\n      swap1\n      pop\n        /* \"#utility.yul\":7:133   */\n      swap2\n      swap1\n      pop\n      jump\t// out\n        /* \"#utility.yul\":139:199   */\n    tag_121:\n        /* \"#utility.yul\":167:170   */\n      0x00\n        /* \"#utility.yul\":188:193   */\n      dup2\n        /* \"#utility.yul\":181:193   */\n      swap1\n      pop\n        /* \"#utility.yul\":139:199   */\n      swap2\n      swap1\n      pop\n      jump\t// out\n        /* \"#utility.yul\":205:347   */\n    tag_122:\n        /* \"#utility.yul\":255:264   */\n      0x00\n        /* \"#utility.yul\":288:341   */\n      tag_158\n        /* \"#utility.yul\":306:340   */\n      tag_159\n        /* \"#utility.yul\":315:339   */\n      tag_160\n        /* \"#utility.yul\":333:338   */\n      dup5\n        /* \"#utility.yul\":315:339   */\n      tag_120\n      jump\t// in\n    tag_160:\n        /* \"#utility.yul\":306:340   */\n      tag_121\n      jump\t// in\n    tag_159:\n        /* \"#utility.yul\":288:341   */\n      tag_120\n      jump\t// in\n    tag_158:\n        /* \"#utility.yul\":275:341   */\n      swap1\n      pop\n        /* \"#utility.yul\":205:347   */\n      swap2\n      swap1\n      pop\n      jump\t// out\n        /* \"#utility.yul\":353:479   */\n    tag_123:\n        /* \"#utility.yul\":403:412   */\n      0x00\n        /* \"#utility.yul\":436:473   */\n      tag_162\n        /* \"#utility.yul\":467:472   */\n      dup3\n        /* \"#utility.yul\":436:473   */\n      tag_122\n      jump\t// in\n    tag_162:\n        /* \"#utility.yul\":423:473   */\n      swap1\n      pop\n        /* \"#utility.yul\":353:479   */\n      swap2\n      swap1\n      pop\n      jump\t// out\n        /* \"#utility.yul\":485:625   */\n    tag_124:\n        /* \"#utility.yul\":549:558   */\n      0x00\n        /* \"#utility.yul\":582:619   */\n      tag_164\n        /* \"#utility.yul\":613:618   */\n      dup3\n        /* \"#utility.yul\":582:619   */\n      tag_123\n      jump\t// in\n    tag_164:\n        /* \"#utility.yul\":569:619   */\n      swap1\n      pop\n        /* \"#utility.yul\":485:625   */\n      swap2\n      swap1\n      pop\n      jump\t// out\n        /* \"#utility.yul\":631:790   */\n    tag_125:\n        /* \"#utility.yul\":732:783   */\n      tag_166\n        /* \"#utility.yul\":777:782   */\n      dup2\n        /* \"#utility.yul\":732:783   */\n      tag_124\n      jump\t// in\n    tag_166:\n        /* \"#utility.yul\":727:730   */\n      dup3\n        /* \"#utility.yul\":720:784   */\n      mstore\n        /* \"#utility.yul\":631:790   */\n      pop\n      pop\n      jump\t// out\n        /* \"#utility.yul\":796:1046   */\n    tag_16:\n        /* \"#utility.yul\":903:907   */\n      0x00\n        /* \"#utility.yul\":941:943   */\n      0x20\n        /* \"#utility.yul\":930:939   */\n      dup3\n        /* \"#utility.yul\":926:944   */\n      add\n        /* \"#utility.yul\":918:944   */\n      swap1\n      pop\n        /* \"#utility.yul\":954:1039   */\n      tag_168\n        /* \"#utility.yul\":1036:1037   */\n      0x00\n        /* \"#utility.yul\":1025:1034   */\n      dup4\n        /* \"#utility.yul\":1021:1038   */\n      add\n        /* \"#utility.yul\":1012:1018   */\n      dup5\n        /* \"#utility.yul\":954:1039   */\n      tag_125\n      jump\t// in\n    tag_168:\n        /* \"#utility.yul\":796:1046   */\n      swap3\n      swap2\n      pop\n      pop\n      jump\t// out\n        /* \"#utility.yul\":1133:1250   */\n    tag_127:\n        /* \"#utility.yul\":1242:1243   */\n      0x00\n        /* \"#utility.yul\":1239:1240   */\n      0x00\n        /* \"#utility.yul\":1232:1244   */\n      revert\n        /* \"#utility.yul\":1379:1456   */\n    tag_129:\n        /* \"#utility.yul\":1416:1423   */\n      0x00\n        /* \"#utility.yul\":1445:1450   */\n      dup2\n        /* \"#utility.yul\":1434:1450   */\n      swap1\n      pop\n        /* \"#utility.yul\":1379:1456   */\n      swap2\n      swap1\n      pop\n      jump\t// out\n        /* \"#utility.yul\":1462:1584   */\n    tag_130:\n        /* \"#utility.yul\":1535:1559   */\n      tag_174\n        /* \"#utility.yul\":1553:1558   */\n      dup2\n        /* \"#utility.yul\":1535:1559   */\n      tag_129\n      jump\t// in\n    tag_174:\n        /* \"#utility.yul\":1528:1533   */\n      dup2\n        /* \"#utility.yul\":1525:1560   */\n      eq\n        /* \"#utility.yul\":1515:1578   */\n      tag_175\n      jumpi\n        /* \"#utility.yul\":1574:1575   */\n      0x00\n        /* \"#utility.yul\":1571:1572   */\n      0x00\n        /* \"#utility.yul\":1564:1576   */\n      revert\n        /* \"#utility.yul\":1515:1578   */\n    tag_175:\n        /* \"#utility.yul\":1462:1584   */\n      pop\n      jump\t// out\n        /* \"#utility.yul\":1590:1729   */\n    tag_131:\n        /* \"#utility.yul\":1636:1641   */\n      0x00\n        /* \"#utility.yul\":1674:1680   */\n      dup2\n        /* \"#utility.yul\":1661:1681   */\n      calldataload\n        /* \"#utility.yul\":1652:1681   */\n      swap1\n      pop\n        /* \"#utility.yul\":1690:1723   */\n      tag_177\n        /* \"#utility.yul\":1717:1722   */\n      dup2\n        /* \"#utility.yul\":1690:1723   */\n      tag_130\n      jump\t// in\n    tag_177:\n        /* \"#utility.yul\":1590:1729   */\n      swap3\n      swap2\n      pop\n      pop\n      jump\t// out\n        /* \"#utility.yul\":1735:2064   */\n    tag_19:\n        /* \"#utility.yul\":1794:1800   */\n      0x00\n        /* \"#utility.yul\":1843:1845   */\n      0x20\n        /* \"#utility.yul\":1831:1840   */\n      dup3\n        /* \"#utility.yul\":1822:1829   */\n      dup5\n        /* \"#utility.yul\":1818:1841   */\n      sub\n        /* \"#utility.yul\":1814:1846   */\n      slt\n        /* \"#utility.yul\":1811:1930   */\n      iszero\n      tag_179\n      jumpi\n        /* \"#utility.yul\":1849:1928   */\n      tag_180\n      tag_127\n      jump\t// in\n    tag_180:\n        /* \"#utility.yul\":1811:1930   */\n    tag_179:\n        /* \"#utility.yul\":1969:1970   */\n      0x00\n        /* \"#utility.yul\":1994:2047   */\n      tag_181\n        /* \"#utility.yul\":2039:2046   */\n      dup5\n        /* \"#utility.yul\":2030:2036   */\n      dup3\n        /* \"#utility.yul\":2019:2028   */\n      dup6\n        /* \"#utility.yul\":2015:2037   */\n      add\n        /* \"#utility.yul\":1994:2047   */\n      tag_131\n      jump\t// in\n    tag_181:\n        /* \"#utility.yul\":1984:2047   */\n      swap2\n      pop\n        /* \"#utility.yul\":1940:2057   */\n      pop\n        /* \"#utility.yul\":1735:2064   */\n      swap3\n      swap2\n      pop\n      pop\n      jump\t// out\n        /* \"#utility.yul\":2070:2188   */\n    tag_132:\n        /* \"#utility.yul\":2157:2181   */\n      tag_183\n        /* \"#utility.yul\":2175:2180   */\n      dup2\n        /* \"#utility.yul\":2157:2181   */\n      tag_129\n      jump\t// in\n    tag_183:\n        /* \"#utility.yul\":2152:2155   */\n      dup3\n        /* \"#utility.yul\":2145:2182   */\n      mstore\n        /* \"#utility.yul\":2070:2188   */\n      pop\n      pop\n      jump\t// out\n        /* \"#utility.yul\":2194:2416   */\n    tag_24:\n        /* \"#utility.yul\":2287:2291   */\n      0x00\n        /* \"#utility.yul\":2325:2327   */\n      0x20\n        /* \"#utility.yul\":2314:2323   */\n      dup3\n        /* \"#utility.yul\":2310:2328   */\n      add\n        /* \"#utility.yul\":2302:2328   */\n      swap1\n      pop\n        /* \"#utility.yul\":2338:2409   */\n      tag_185\n        /* \"#utility.yul\":2406:2407   */\n      0x00\n        /* \"#utility.yul\":2395:2404   */\n      dup4\n        /* \"#utility.yul\":2391:2408   */\n      add\n        /* \"#utility.yul\":2382:2388   */\n      dup5\n        /* \"#utility.yul\":2338:2409   */\n      tag_132\n      jump\t// in\n    tag_185:\n        /* \"#utility.yul\":2194:2416   */\n      swap3\n      swap2\n      pop\n      pop\n      jump\t// out\n        /* \"#utility.yul\":2422:2562   */\n    tag_133:\n        /* \"#utility.yul\":2486:2495   */\n      0x00\n        /* \"#utility.yul\":2519:2556   */\n      tag_187\n        /* \"#utility.yul\":2550:2555   */\n      dup3\n        /* \"#utility.yul\":2519:2556   */\n      tag_123\n      jump\t// in\n    tag_187:\n        /* \"#utility.yul\":2506:2556   */\n      swap1\n      pop\n        /* \"#utility.yul\":2422:2562   */\n      swap2\n      swap1\n      pop\n      jump\t// out\n        /* \"#utility.yul\":2568:2727   */\n    tag_134:\n        /* \"#utility.yul\":2669:2720   */\n      tag_189\n        /* \"#utility.yul\":2714:2719   */\n      dup2\n        /* \"#utility.yul\":2669:2720   */\n      tag_133\n      jump\t// in\n    tag_189:\n        /* \"#utility.yul\":2664:2667   */\n      dup3\n        /* \"#utility.yul\":2657:2721   */\n      mstore\n        /* \"#utility.yul\":2568:2727   */\n      pop\n      pop\n      jump\t// out\n        /* \"#utility.yul\":2733:2983   */\n    tag_28:\n        /* \"#utility.yul\":2840:2844   */\n      0x00\n        /* \"#utility.yul\":2878:2880   */\n      0x20\n        /* \"#utility.yul\":2867:2876   */\n      dup3\n        /* \"#utility.yul\":2863:2881   */\n      add\n        /* \"#utility.yul\":2855:2881   */\n      swap1\n      pop\n        /* \"#utility.yul\":2891:2976   */\n      tag_191\n        /* \"#utility.yul\":2973:2974   */\n      0x00\n        /* \"#utility.yul\":2962:2971   */\n      dup4\n        /* \"#utility.yul\":2958:2975   */\n      add\n        /* \"#utility.yul\":2949:2955   */\n      dup5\n        /* \"#utility.yul\":2891:2976   */\n      tag_134\n      jump\t// in\n    tag_191:\n        /* \"#utility.yul\":2733:2983   */\n      swap3\n      swap2\n      pop\n      pop\n      jump\t// out\n        /* \"#utility.yul\":2989:3321   */\n    tag_35:\n        /* \"#utility.yul\":3110:3114   */\n      0x00\n        /* \"#utility.yul\":3148:3150   */\n      0x40\n        /* \"#utility.yul\":3137:3146   */\n      dup3\n        /* \"#utility.yul\":3133:3151   */\n      add\n        /* \"#utility.yul\":3125:3151   */\n      swap1\n      pop\n        /* \"#utility.yul\":3161:3232   */\n      tag_193\n        /* \"#utility.yul\":3229:3230   */\n      0x00\n        /* \"#utility.yul\":3218:3227   */\n      dup4\n        /* \"#utility.yul\":3214:3231   */\n      add\n        /* \"#utility.yul\":3205:3211   */\n      dup6\n        /* \"#utility.yul\":3161:3232   */\n      tag_132\n      jump\t// in\n    tag_193:\n        /* \"#utility.yul\":3242:3314   */\n      tag_194\n        /* \"#utility.yul\":3310:3312   */\n      0x20\n        /* \"#utility.yul\":3299:3308   */\n      dup4\n        /* \"#utility.yul\":3295:3313   */\n      add\n        /* \"#utility.yul\":3286:3292   */\n      dup5\n        /* \"#utility.yul\":3242:3314   */\n      tag_132\n      jump\t// in\n    tag_194:\n        /* \"#utility.yul\":2989:3321   */\n      swap4\n      swap3\n      pop\n      pop\n      pop\n      jump\t// out\n        /* \"#utility.yul\":3327:3423   */\n    tag_135:\n        /* \"#utility.yul\":3364:3371   */\n      0x00\n        /* \"#utility.yul\":3393:3417   */\n      tag_196\n        /* \"#utility.yul\":3411:3416   */\n      dup3\n        /* \"#utility.yul\":3393:3417   */\n      tag_120\n      jump\t// in\n    tag_196:\n        /* \"#utility.yul\":3382:3417   */\n      swap1\n      pop\n        /* \"#utility.yul\":3327:3423   */\n      swap2\n      swap1\n      pop\n      jump\t// out\n        /* \"#utility.yul\":3429:3547   */\n    tag_136:\n        /* \"#utility.yul\":3516:3540   */\n      tag_198\n        /* \"#utility.yul\":3534:3539   */\n      dup2\n        /* \"#utility.yul\":3516:3540   */\n      tag_135\n      jump\t// in\n    tag_198:\n        /* \"#utility.yul\":3511:3514   */\n      dup3\n        /* \"#utility.yul\":3504:3541   */\n      mstore\n        /* \"#utility.yul\":3429:3547   */\n      pop\n      pop\n      jump\t// out\n        /* \"#utility.yul\":3553:3775   */\n    tag_39:\n        /* \"#utility.yul\":3646:3650   */\n      0x00\n        /* \"#utility.yul\":3684:3686   */\n      0x20\n        /* \"#utility.yul\":3673:3682   */\n      dup3\n        /* \"#utility.yul\":3669:3687   */\n      add\n        /* \"#utility.yul\":3661:3687   */\n      swap1\n      pop\n        /* \"#utility.yul\":3697:3768   */\n      tag_200\n        /* \"#utility.yul\":3765:3766   */\n      0x00\n        /* \"#utility.yul\":3754:3763   */\n      dup4\n        /* \"#utility.yul\":3750:3767   */\n      add\n        /* \"#utility.yul\":3741:3747   */\n      dup5\n        /* \"#utility.yul\":3697:3768   */\n      tag_136\n      jump\t// in\n    tag_200:\n        /* \"#utility.yul\":3553:3775   */\n      swap3\n      swap2\n      pop\n      pop\n      jump\t// out\n        /* \"#utility.yul\":3781:3950   */\n    tag_137:\n        /* \"#utility.yul\":3865:3876   */\n      0x00\n        /* \"#utility.yul\":3899:3905   */\n      dup3\n        /* \"#utility.yul\":3894:3897   */\n      dup3\n        /* \"#utility.yul\":3887:3906   */\n      mstore\n        /* \"#utility.yul\":3939:3943   */\n      0x20\n        /* \"#utility.yul\":3934:3937   */\n      dup3\n        /* \"#utility.yul\":3930:3944   */\n      add\n        /* \"#utility.yul\":3915:3944   */\n      swap1\n      pop\n        /* \"#utility.yul\":3781:3950   */\n      swap3\n      swap2\n      pop\n      pop\n      jump\t// out\n        /* \"#utility.yul\":3956:4131   */\n    tag_138:\n        /* \"#utility.yul\":4096:4123   */\n      0x497a6e6f73206d6f726120626974692076656369206f64203000000000000000\n        /* \"#utility.yul\":4092:4093   */\n      0x00\n        /* \"#utility.yul\":4084:4090   */\n      dup3\n        /* \"#utility.yul\":4080:4094   */\n      add\n        /* \"#utility.yul\":4073:4124   */\n      mstore\n        /* \"#utility.yul\":3956:4131   */\n      pop\n      jump\t// out\n        /* \"#utility.yul\":4137:4503   */\n    tag_139:\n        /* \"#utility.yul\":4279:4282   */\n      0x00\n        /* \"#utility.yul\":4300:4367   */\n      tag_204\n        /* \"#utility.yul\":4364:4366   */\n      0x19\n        /* \"#utility.yul\":4359:4362   */\n      dup4\n        /* \"#utility.yul\":4300:4367   */\n      tag_137\n      jump\t// in\n    tag_204:\n        /* \"#utility.yul\":4293:4367   */\n      swap2\n      pop\n        /* \"#utility.yul\":4376:4469   */\n      tag_205\n        /* \"#utility.yul\":4465:4468   */\n      dup3\n        /* \"#utility.yul\":4376:4469   */\n      tag_138\n      jump\t// in\n    tag_205:\n        /* \"#utility.yul\":4494:4496   */\n      0x20\n        /* \"#utility.yul\":4489:4492   */\n      dup3\n        /* \"#utility.yul\":4485:4497   */\n      add\n        /* \"#utility.yul\":4478:4497   */\n      swap1\n      pop\n        /* \"#utility.yul\":4137:4503   */\n      swap2\n      swap1\n      pop\n      jump\t// out\n        /* \"#utility.yul\":4509:4928   */\n    tag_49:\n        /* \"#utility.yul\":4675:4679   */\n      0x00\n        /* \"#utility.yul\":4713:4715   */\n      0x20\n        /* \"#utility.yul\":4702:4711   */\n      dup3\n        /* \"#utility.yul\":4698:4716   */\n      add\n        /* \"#utility.yul\":4690:4716   */\n      swap1\n      pop\n        /* \"#utility.yul\":4762:4771   */\n      dup2\n        /* \"#utility.yul\":4756:4760   */\n      dup2\n        /* \"#utility.yul\":4752:4772   */\n      sub\n        /* \"#utility.yul\":4748:4749   */\n      0x00\n        /* \"#utility.yul\":4737:4746   */\n      dup4\n        /* \"#utility.yul\":4733:4750   */\n      add\n        /* \"#utility.yul\":4726:4773   */\n      mstore\n        /* \"#utility.yul\":4790:4921   */\n      tag_207\n        /* \"#utility.yul\":4916:4920   */\n      dup2\n        /* \"#utility.yul\":4790:4921   */\n      tag_139\n      jump\t// in\n    tag_207:\n        /* \"#utility.yul\":4782:4921   */\n      swap1\n      pop\n        /* \"#utility.yul\":4509:4928   */\n      swap2\n      swap1\n      pop\n      jump\t// out\n        /* \"#utility.yul\":4934:5114   */\n    tag_140:\n        /* \"#utility.yul\":4982:5059   */\n      0x4e487b7100000000000000000000000000000000000000000000000000000000\n        /* \"#utility.yul\":4979:4980   */\n      0x00\n        /* \"#utility.yul\":4972:5060   */\n      mstore\n        /* \"#utility.yul\":5079:5083   */\n      0x11\n        /* \"#utility.yul\":5076:5077   */\n      0x04\n        /* \"#utility.yul\":5069:5084   */\n      mstore\n        /* \"#utility.yul\":5103:5107   */\n      0x24\n        /* \"#utility.yul\":5100:5101   */\n      0x00\n        /* \"#utility.yul\":5093:5108   */\n      revert\n        /* \"#utility.yul\":5120:5530   */\n    tag_51:\n        /* \"#utility.yul\":5160:5167   */\n      0x00\n        /* \"#utility.yul\":5183:5203   */\n      tag_210\n        /* \"#utility.yul\":5201:5202   */\n      dup3\n        /* \"#utility.yul\":5183:5203   */\n      tag_129\n      jump\t// in\n    tag_210:\n        /* \"#utility.yul\":5178:5203   */\n      swap2\n      pop\n        /* \"#utility.yul\":5217:5237   */\n      tag_211\n        /* \"#utility.yul\":5235:5236   */\n      dup4\n        /* \"#utility.yul\":5217:5237   */\n      tag_129\n      jump\t// in\n    tag_211:\n        /* \"#utility.yul\":5212:5237   */\n      swap3\n      pop\n        /* \"#utility.yul\":5272:5273   */\n      dup3\n        /* \"#utility.yul\":5269:5270   */\n      dup3\n        /* \"#utility.yul\":5265:5274   */\n      mul\n        /* \"#utility.yul\":5294:5324   */\n      tag_212\n        /* \"#utility.yul\":5312:5323   */\n      dup2\n        /* \"#utility.yul\":5294:5324   */\n      tag_129\n      jump\t// in\n    tag_212:\n        /* \"#utility.yul\":5283:5324   */\n      swap2\n      pop\n        /* \"#utility.yul\":5473:5474   */\n      dup3\n        /* \"#utility.yul\":5464:5471   */\n      dup3\n        /* \"#utility.yul\":5460:5475   */\n      div\n        /* \"#utility.yul\":5457:5458   */\n      dup5\n        /* \"#utility.yul\":5454:5476   */\n      eq\n        /* \"#utility.yul\":5434:5435   */\n      dup4\n        /* \"#utility.yul\":5427:5436   */\n      iszero\n        /* \"#utility.yul\":5407:5490   */\n      or\n        /* \"#utility.yul\":5384:5523   */\n      tag_213\n      jumpi\n        /* \"#utility.yul\":5503:5521   */\n      tag_214\n      tag_140\n      jump\t// in\n    tag_214:\n        /* \"#utility.yul\":5384:5523   */\n    tag_213:\n        /* \"#utility.yul\":5168:5530   */\n      pop\n        /* \"#utility.yul\":5120:5530   */\n      swap3\n      swap2\n      pop\n      pop\n      jump\t// out\n        /* \"#utility.yul\":5536:5679   */\n    tag_141:\n        /* \"#utility.yul\":5593:5598   */\n      0x00\n        /* \"#utility.yul\":5624:5630   */\n      dup2\n        /* \"#utility.yul\":5618:5631   */\n      mload\n        /* \"#utility.yul\":5609:5631   */\n      swap1\n      pop\n        /* \"#utility.yul\":5640:5673   */\n      tag_216\n        /* \"#utility.yul\":5667:5672   */\n      dup2\n        /* \"#utility.yul\":5640:5673   */\n      tag_130\n      jump\t// in\n    tag_216:\n        /* \"#utility.yul\":5536:5679   */\n      swap3\n      swap2\n      pop\n      pop\n      jump\t// out\n        /* \"#utility.yul\":5685:6036   */\n    tag_56:\n        /* \"#utility.yul\":5755:5761   */\n      0x00\n        /* \"#utility.yul\":5804:5806   */\n      0x20\n        /* \"#utility.yul\":5792:5801   */\n      dup3\n        /* \"#utility.yul\":5783:5790   */\n      dup5\n        /* \"#utility.yul\":5779:5802   */\n      sub\n        /* \"#utility.yul\":5775:5807   */\n      slt\n        /* \"#utility.yul\":5772:5891   */\n      iszero\n      tag_218\n      jumpi\n        /* \"#utility.yul\":5810:5889   */\n      tag_219\n      tag_127\n      jump\t// in\n    tag_219:\n        /* \"#utility.yul\":5772:5891   */\n    tag_218:\n        /* \"#utility.yul\":5930:5931   */\n      0x00\n        /* \"#utility.yul\":5955:6019   */\n      tag_220\n        /* \"#utility.yul\":6011:6018   */\n      dup5\n        /* \"#utility.yul\":6002:6008   */\n      dup3\n        /* \"#utility.yul\":5991:6000   */\n      dup6\n        /* \"#utility.yul\":5987:6009   */\n      add\n        /* \"#utility.yul\":5955:6019   */\n      tag_141\n      jump\t// in\n    tag_220:\n        /* \"#utility.yul\":5945:6019   */\n      swap2\n      pop\n        /* \"#utility.yul\":5901:6029   */\n      pop\n        /* \"#utility.yul\":5685:6036   */\n      swap3\n      swap2\n      pop\n      pop\n      jump\t// out\n        /* \"#utility.yul\":6042:6213   */\n    tag_142:\n        /* \"#utility.yul\":6182:6205   */\n      0x444558206e656d6120646f766f6c6a6e6f20544b420000000000000000000000\n        /* \"#utility.yul\":6178:6179   */\n      0x00\n        /* \"#utility.yul\":6170:6176   */\n      dup3\n        /* \"#utility.yul\":6166:6180   */\n      add\n        /* \"#utility.yul\":6159:6206   */\n      mstore\n        /* \"#utility.yul\":6042:6213   */\n      pop\n      jump\t// out\n        /* \"#utility.yul\":6219:6585   */\n    tag_143:\n        /* \"#utility.yul\":6361:6364   */\n      0x00\n        /* \"#utility.yul\":6382:6449   */\n      tag_223\n        /* \"#utility.yul\":6446:6448   */\n      0x15\n        /* \"#utility.yul\":6441:6444   */\n      dup4\n        /* \"#utility.yul\":6382:6449   */\n      tag_137\n      jump\t// in\n    tag_223:\n        /* \"#utility.yul\":6375:6449   */\n      swap2\n      pop\n        /* \"#utility.yul\":6458:6551   */\n      tag_224\n        /* \"#utility.yul\":6547:6550   */\n      dup3\n        /* \"#utility.yul\":6458:6551   */\n      tag_142\n      jump\t// in\n    tag_224:\n        /* \"#utility.yul\":6576:6578   */\n      0x20\n        /* \"#utility.yul\":6571:6574   */\n      dup3\n        /* \"#utility.yul\":6567:6579   */\n      add\n        /* \"#utility.yul\":6560:6579   */\n      swap1\n      pop\n        /* \"#utility.yul\":6219:6585   */\n      swap2\n      swap1\n      pop\n      jump\t// out\n        /* \"#utility.yul\":6591:7010   */\n    tag_59:\n        /* \"#utility.yul\":6757:6761   */\n      0x00\n        /* \"#utility.yul\":6795:6797   */\n      0x20\n        /* \"#utility.yul\":6784:6793   */\n      dup3\n        /* \"#utility.yul\":6780:6798   */\n      add\n        /* \"#utility.yul\":6772:6798   */\n      swap1\n      pop\n        /* \"#utility.yul\":6844:6853   */\n      dup2\n        /* \"#utility.yul\":6838:6842   */\n      dup2\n        /* \"#utility.yul\":6834:6854   */\n      sub\n        /* \"#utility.yul\":6830:6831   */\n      0x00\n        /* \"#utility.yul\":6819:6828   */\n      dup4\n        /* \"#utility.yul\":6815:6832   */\n      add\n        /* \"#utility.yul\":6808:6855   */\n      mstore\n        /* \"#utility.yul\":6872:7003   */\n      tag_226\n        /* \"#utility.yul\":6998:7002   */\n      dup2\n        /* \"#utility.yul\":6872:7003   */\n      tag_143\n      jump\t// in\n    tag_226:\n        /* \"#utility.yul\":6864:7003   */\n      swap1\n      pop\n        /* \"#utility.yul\":6591:7010   */\n      swap2\n      swap1\n      pop\n      jump\t// out\n        /* \"#utility.yul\":7016:7458   */\n    tag_61:\n        /* \"#utility.yul\":7165:7169   */\n      0x00\n        /* \"#utility.yul\":7203:7205   */\n      0x60\n        /* \"#utility.yul\":7192:7201   */\n      dup3\n        /* \"#utility.yul\":7188:7206   */\n      add\n        /* \"#utility.yul\":7180:7206   */\n      swap1\n      pop\n        /* \"#utility.yul\":7216:7287   */\n      tag_228\n        /* \"#utility.yul\":7284:7285   */\n      0x00\n        /* \"#utility.yul\":7273:7282   */\n      dup4\n        /* \"#utility.yul\":7269:7286   */\n      add\n        /* \"#utility.yul\":7260:7266   */\n      dup7\n        /* \"#utility.yul\":7216:7287   */\n      tag_136\n      jump\t// in\n    tag_228:\n        /* \"#utility.yul\":7297:7369   */\n      tag_229\n        /* \"#utility.yul\":7365:7367   */\n      0x20\n        /* \"#utility.yul\":7354:7363   */\n      dup4\n        /* \"#utility.yul\":7350:7368   */\n      add\n        /* \"#utility.yul\":7341:7347   */\n      dup6\n        /* \"#utility.yul\":7297:7369   */\n      tag_136\n      jump\t// in\n    tag_229:\n        /* \"#utility.yul\":7379:7451   */\n      tag_230\n        /* \"#utility.yul\":7447:7449   */\n      0x40\n        /* \"#utility.yul\":7436:7445   */\n      dup4\n        /* \"#utility.yul\":7432:7450   */\n      add\n        /* \"#utility.yul\":7423:7429   */\n      dup5\n        /* \"#utility.yul\":7379:7451   */\n      tag_132\n      jump\t// in\n    tag_230:\n        /* \"#utility.yul\":7016:7458   */\n      swap5\n      swap4\n      pop\n      pop\n      pop\n      pop\n      jump\t// out\n        /* \"#utility.yul\":7464:7554   */\n    tag_144:\n        /* \"#utility.yul\":7498:7505   */\n      0x00\n        /* \"#utility.yul\":7541:7546   */\n      dup2\n        /* \"#utility.yul\":7534:7547   */\n      iszero\n        /* \"#utility.yul\":7527:7548   */\n      iszero\n        /* \"#utility.yul\":7516:7548   */\n      swap1\n      pop\n        /* \"#utility.yul\":7464:7554   */\n      swap2\n      swap1\n      pop\n      jump\t// out\n        /* \"#utility.yul\":7560:7676   */\n    tag_145:\n        /* \"#utility.yul\":7630:7651   */\n      tag_233\n        /* \"#utility.yul\":7645:7650   */\n      dup2\n        /* \"#utility.yul\":7630:7651   */\n      tag_144\n      jump\t// in\n    tag_233:\n        /* \"#utility.yul\":7623:7628   */\n      dup2\n        /* \"#utility.yul\":7620:7652   */\n      eq\n        /* \"#utility.yul\":7610:7670   */\n      tag_234\n      jumpi\n        /* \"#utility.yul\":7666:7667   */\n      0x00\n        /* \"#utility.yul\":7663:7664   */\n      0x00\n        /* \"#utility.yul\":7656:7668   */\n      revert\n        /* \"#utility.yul\":7610:7670   */\n    tag_234:\n        /* \"#utility.yul\":7560:7676   */\n      pop\n      jump\t// out\n        /* \"#utility.yul\":7682:7819   */\n    tag_146:\n        /* \"#utility.yul\":7736:7741   */\n      0x00\n        /* \"#utility.yul\":7767:7773   */\n      dup2\n        /* \"#utility.yul\":7761:7774   */\n      mload\n        /* \"#utility.yul\":7752:7774   */\n      swap1\n      pop\n        /* \"#utility.yul\":7783:7813   */\n      tag_236\n        /* \"#utility.yul\":7807:7812   */\n      dup2\n        /* \"#utility.yul\":7783:7813   */\n      tag_145\n      jump\t// in\n    tag_236:\n        /* \"#utility.yul\":7682:7819   */\n      swap3\n      swap2\n      pop\n      pop\n      jump\t// out\n        /* \"#utility.yul\":7825:8170   */\n    tag_65:\n        /* \"#utility.yul\":7892:7898   */\n      0x00\n        /* \"#utility.yul\":7941:7943   */\n      0x20\n        /* \"#utility.yul\":7929:7938   */\n      dup3\n        /* \"#utility.yul\":7920:7927   */\n      dup5\n        /* \"#utility.yul\":7916:7939   */\n      sub\n        /* \"#utility.yul\":7912:7944   */\n      slt\n        /* \"#utility.yul\":7909:8028   */\n      iszero\n      tag_238\n      jumpi\n        /* \"#utility.yul\":7947:8026   */\n      tag_239\n      tag_127\n      jump\t// in\n    tag_239:\n        /* \"#utility.yul\":7909:8028   */\n    tag_238:\n        /* \"#utility.yul\":8067:8068   */\n      0x00\n        /* \"#utility.yul\":8092:8153   */\n      tag_240\n        /* \"#utility.yul\":8145:8152   */\n      dup5\n        /* \"#utility.yul\":8136:8142   */\n      dup3\n        /* \"#utility.yul\":8125:8134   */\n      dup6\n        /* \"#utility.yul\":8121:8143   */\n      add\n        /* \"#utility.yul\":8092:8153   */\n      tag_146\n      jump\t// in\n    tag_240:\n        /* \"#utility.yul\":8082:8153   */\n      swap2\n      pop\n        /* \"#utility.yul\":8038:8163   */\n      pop\n        /* \"#utility.yul\":7825:8170   */\n      swap3\n      swap2\n      pop\n      pop\n      jump\t// out\n        /* \"#utility.yul\":8176:8508   */\n    tag_67:\n        /* \"#utility.yul\":8297:8301   */\n      0x00\n        /* \"#utility.yul\":8335:8337   */\n      0x40\n        /* \"#utility.yul\":8324:8333   */\n      dup3\n        /* \"#utility.yul\":8320:8338   */\n      add\n        /* \"#utility.yul\":8312:8338   */\n      swap1\n      pop\n        /* \"#utility.yul\":8348:8419   */\n      tag_242\n        /* \"#utility.yul\":8416:8417   */\n      0x00\n        /* \"#utility.yul\":8405:8414   */\n      dup4\n        /* \"#utility.yul\":8401:8418   */\n      add\n        /* \"#utility.yul\":8392:8398   */\n      dup6\n        /* \"#utility.yul\":8348:8419   */\n      tag_136\n      jump\t// in\n    tag_242:\n        /* \"#utility.yul\":8429:8501   */\n      tag_243\n        /* \"#utility.yul\":8497:8499   */\n      0x20\n        /* \"#utility.yul\":8486:8495   */\n      dup4\n        /* \"#utility.yul\":8482:8500   */\n      add\n        /* \"#utility.yul\":8473:8479   */\n      dup5\n        /* \"#utility.yul\":8429:8501   */\n      tag_132\n      jump\t// in\n    tag_243:\n        /* \"#utility.yul\":8176:8508   */\n      swap4\n      swap3\n      pop\n      pop\n      pop\n      jump\t// out\n        /* \"#utility.yul\":8514:8692   */\n    tag_147:\n        /* \"#utility.yul\":8654:8684   */\n      0x53616d6f20766c61736e696b206d6f7a652070756e6974692044455800000000\n        /* \"#utility.yul\":8650:8651   */\n      0x00\n        /* \"#utility.yul\":8642:8648   */\n      dup3\n        /* \"#utility.yul\":8638:8652   */\n      add\n        /* \"#utility.yul\":8631:8685   */\n      mstore\n        /* \"#utility.yul\":8514:8692   */\n      pop\n      jump\t// out\n        /* \"#utility.yul\":8698:9064   */\n    tag_148:\n        /* \"#utility.yul\":8840:8843   */\n      0x00\n        /* \"#utility.yul\":8861:8928   */\n      tag_246\n        /* \"#utility.yul\":8925:8927   */\n      0x1c\n        /* \"#utility.yul\":8920:8923   */\n      dup4\n        /* \"#utility.yul\":8861:8928   */\n      tag_137\n      jump\t// in\n    tag_246:\n        /* \"#utility.yul\":8854:8928   */\n      swap2\n      pop\n        /* \"#utility.yul\":8937:9030   */\n      tag_247\n        /* \"#utility.yul\":9026:9029   */\n      dup3\n        /* \"#utility.yul\":8937:9030   */\n      tag_147\n      jump\t// in\n    tag_247:\n        /* \"#utility.yul\":9055:9057   */\n      0x20\n        /* \"#utility.yul\":9050:9053   */\n      dup3\n        /* \"#utility.yul\":9046:9058   */\n      add\n        /* \"#utility.yul\":9039:9058   */\n      swap1\n      pop\n        /* \"#utility.yul\":8698:9064   */\n      swap2\n      swap1\n      pop\n      jump\t// out\n        /* \"#utility.yul\":9070:9489   */\n    tag_75:\n        /* \"#utility.yul\":9236:9240   */\n      0x00\n        /* \"#utility.yul\":9274:9276   */\n      0x20\n        /* \"#utility.yul\":9263:9272   */\n      dup3\n        /* \"#utility.yul\":9259:9277   */\n      add\n        /* \"#utility.yul\":9251:9277   */\n      swap1\n      pop\n        /* \"#utility.yul\":9323:9332   */\n      dup2\n        /* \"#utility.yul\":9317:9321   */\n      dup2\n        /* \"#utility.yul\":9313:9333   */\n      sub\n        /* \"#utility.yul\":9309:9310   */\n      0x00\n        /* \"#utility.yul\":9298:9307   */\n      dup4\n        /* \"#utility.yul\":9294:9311   */\n      add\n        /* \"#utility.yul\":9287:9334   */\n      mstore\n        /* \"#utility.yul\":9351:9482   */\n      tag_249\n        /* \"#utility.yul\":9477:9481   */\n      dup2\n        /* \"#utility.yul\":9351:9482   */\n      tag_148\n      jump\t// in\n    tag_249:\n        /* \"#utility.yul\":9343:9482   */\n      swap1\n      pop\n        /* \"#utility.yul\":9070:9489   */\n      swap2\n      swap1\n      pop\n      jump\t// out\n        /* \"#utility.yul\":9495:9675   */\n    tag_149:\n        /* \"#utility.yul\":9543:9620   */\n      0x4e487b7100000000000000000000000000000000000000000000000000000000\n        /* \"#utility.yul\":9540:9541   */\n      0x00\n        /* \"#utility.yul\":9533:9621   */\n      mstore\n        /* \"#utility.yul\":9640:9644   */\n      0x12\n        /* \"#utility.yul\":9637:9638   */\n      0x04\n        /* \"#utility.yul\":9630:9645   */\n      mstore\n        /* \"#utility.yul\":9664:9668   */\n      0x24\n        /* \"#utility.yul\":9661:9662   */\n      0x00\n        /* \"#utility.yul\":9654:9669   */\n      revert\n        /* \"#utility.yul\":9681:9866   */\n    tag_100:\n        /* \"#utility.yul\":9721:9722   */\n      0x00\n        /* \"#utility.yul\":9738:9758   */\n      tag_252\n        /* \"#utility.yul\":9756:9757   */\n      dup3\n        /* \"#utility.yul\":9738:9758   */\n      tag_129\n      jump\t// in\n    tag_252:\n        /* \"#utility.yul\":9733:9758   */\n      swap2\n      pop\n        /* \"#utility.yul\":9772:9792   */\n      tag_253\n        /* \"#utility.yul\":9790:9791   */\n      dup4\n        /* \"#utility.yul\":9772:9792   */\n      tag_129\n      jump\t// in\n    tag_253:\n        /* \"#utility.yul\":9767:9792   */\n      swap3\n      pop\n        /* \"#utility.yul\":9811:9812   */\n      dup3\n        /* \"#utility.yul\":9801:9836   */\n      tag_254\n      jumpi\n        /* \"#utility.yul\":9816:9834   */\n      tag_255\n      tag_149\n      jump\t// in\n    tag_255:\n        /* \"#utility.yul\":9801:9836   */\n    tag_254:\n        /* \"#utility.yul\":9858:9859   */\n      dup3\n        /* \"#utility.yul\":9855:9856   */\n      dup3\n        /* \"#utility.yul\":9851:9860   */\n      div\n        /* \"#utility.yul\":9846:9860   */\n      swap1\n      pop\n        /* \"#utility.yul\":9681:9866   */\n      swap3\n      swap2\n      pop\n      pop\n      jump\t// out\n        /* \"#utility.yul\":9872:10109   */\n    tag_150:\n        /* \"#utility.yul\":10012:10046   */\n      0x497a6e6f73207a616d6a656e65206a65207072656e697a616b202d20706f7361\n        /* \"#utility.yul\":10008:10009   */\n      0x00\n        /* \"#utility.yul\":10000:10006   */\n      dup3\n        /* \"#utility.yul\":9996:10010   */\n      add\n        /* \"#utility.yul\":9989:10047   */\n      mstore\n        /* \"#utility.yul\":10081:10101   */\n      0x6c6a69206e616a6d616e6a65203220544b420000000000000000000000000000\n        /* \"#utility.yul\":10076:10078   */\n      0x20\n        /* \"#utility.yul\":10068:10074   */\n      dup3\n        /* \"#utility.yul\":10064:10079   */\n      add\n        /* \"#utility.yul\":10057:10102   */\n      mstore\n        /* \"#utility.yul\":9872:10109   */\n      pop\n      jump\t// out\n        /* \"#utility.yul\":10115:10481   */\n    tag_151:\n        /* \"#utility.yul\":10257:10260   */\n      0x00\n        /* \"#utility.yul\":10278:10345   */\n      tag_258\n        /* \"#utility.yul\":10342:10344   */\n      0x32\n        /* \"#utility.yul\":10337:10340   */\n      dup4\n        /* \"#utility.yul\":10278:10345   */\n      tag_137\n      jump\t// in\n    tag_258:\n        /* \"#utility.yul\":10271:10345   */\n      swap2\n      pop\n        /* \"#utility.yul\":10354:10447   */\n      tag_259\n        /* \"#utility.yul\":10443:10446   */\n      dup3\n        /* \"#utility.yul\":10354:10447   */\n      tag_150\n      jump\t// in\n    tag_259:\n        /* \"#utility.yul\":10472:10474   */\n      0x40\n        /* \"#utility.yul\":10467:10470   */\n      dup3\n        /* \"#utility.yul\":10463:10475   */\n      add\n        /* \"#utility.yul\":10456:10475   */\n      swap1\n      pop\n        /* \"#utility.yul\":10115:10481   */\n      swap2\n      swap1\n      pop\n      jump\t// out\n        /* \"#utility.yul\":10487:10906   */\n    tag_103:\n        /* \"#utility.yul\":10653:10657   */\n      0x00\n        /* \"#utility.yul\":10691:10693   */\n      0x20\n        /* \"#utility.yul\":10680:10689   */\n      dup3\n        /* \"#utility.yul\":10676:10694   */\n      add\n        /* \"#utility.yul\":10668:10694   */\n      swap1\n      pop\n        /* \"#utility.yul\":10740:10749   */\n      dup2\n        /* \"#utility.yul\":10734:10738   */\n      dup2\n        /* \"#utility.yul\":10730:10750   */\n      sub\n        /* \"#utility.yul\":10726:10727   */\n      0x00\n        /* \"#utility.yul\":10715:10724   */\n      dup4\n        /* \"#utility.yul\":10711:10728   */\n      add\n        /* \"#utility.yul\":10704:10751   */\n      mstore\n        /* \"#utility.yul\":10768:10899   */\n      tag_261\n        /* \"#utility.yul\":10894:10898   */\n      dup2\n        /* \"#utility.yul\":10768:10899   */\n      tag_151\n      jump\t// in\n    tag_261:\n        /* \"#utility.yul\":10760:10899   */\n      swap1\n      pop\n        /* \"#utility.yul\":10487:10906   */\n      swap2\n      swap1\n      pop\n      jump\t// out\n        /* \"#utility.yul\":10912:11083   */\n    tag_152:\n        /* \"#utility.yul\":11052:11075   */\n      0x444558206e656d6120646f766f6c6a6e6f20544b410000000000000000000000\n        /* \"#utility.yul\":11048:11049   */\n      0x00\n        /* \"#utility.yul\":11040:11046   */\n      dup3\n        /* \"#utility.yul\":11036:11050   */\n      add\n        /* \"#utility.yul\":11029:11076   */\n      mstore\n        /* \"#utility.yul\":10912:11083   */\n      pop\n      jump\t// out\n        /* \"#utility.yul\":11089:11455   */\n    tag_153:\n        /* \"#utility.yul\":11231:11234   */\n      0x00\n        /* \"#utility.yul\":11252:11319   */\n      tag_264\n        /* \"#utility.yul\":11316:11318   */\n      0x15\n        /* \"#utility.yul\":11311:11314   */\n      dup4\n        /* \"#utility.yul\":11252:11319   */\n      tag_137\n      jump\t// in\n    tag_264:\n        /* \"#utility.yul\":11245:11319   */\n      swap2\n      pop\n        /* \"#utility.yul\":11328:11421   */\n      tag_265\n        /* \"#utility.yul\":11417:11420   */\n      dup3\n        /* \"#utility.yul\":11328:11421   */\n      tag_152\n      jump\t// in\n    tag_265:\n        /* \"#utility.yul\":11446:11448   */\n      0x20\n        /* \"#utility.yul\":11441:11444   */\n      dup3\n        /* \"#utility.yul\":11437:11449   */\n      add\n        /* \"#utility.yul\":11430:11449   */\n      swap1\n      pop\n        /* \"#utility.yul\":11089:11455   */\n      swap2\n      swap1\n      pop\n      jump\t// out\n        /* \"#utility.yul\":11461:11880   */\n    tag_110:\n        /* \"#utility.yul\":11627:11631   */\n      0x00\n        /* \"#utility.yul\":11665:11667   */\n      0x20\n        /* \"#utility.yul\":11654:11663   */\n      dup3\n        /* \"#utility.yul\":11650:11668   */\n      add\n        /* \"#utility.yul\":11642:11668   */\n      swap1\n      pop\n        /* \"#utility.yul\":11714:11723   */\n      dup2\n        /* \"#utility.yul\":11708:11712   */\n      dup2\n        /* \"#utility.yul\":11704:11724   */\n      sub\n        /* \"#utility.yul\":11700:11701   */\n      0x00\n        /* \"#utility.yul\":11689:11698   */\n      dup4\n        /* \"#utility.yul\":11685:11702   */\n      add\n        /* \"#utility.yul\":11678:11725   */\n      mstore\n        /* \"#utility.yul\":11742:11873   */\n      tag_267\n        /* \"#utility.yul\":11868:11872   */\n      dup2\n        /* \"#utility.yul\":11742:11873   */\n      tag_153\n      jump\t// in\n    tag_267:\n        /* \"#utility.yul\":11734:11873   */\n      swap1\n      pop\n        /* \"#utility.yul\":11461:11880   */\n      swap2\n      swap1\n      pop\n      jump\t// out\n\n    auxdata: 0xa264697066735822122090e7582b21bf3a9bcc220a4edd4a655a4774aa218be7913cca564dd46399709664736f6c63430008220033\n}\n",
				"bytecode": {
					"linkReferences": {},
					"object": "60806040526002600355348015610014575f5ffd5b506040516113003803806113008339818101604052810190610036919061015a565b335f5f6101000a81548173ffffffffffffffffffffffffffffffffffffffff021916908373ffffffffffffffffffffffffffffffffffffffff1602179055508160015f6101000a81548173ffffffffffffffffffffffffffffffffffffffff021916908373ffffffffffffffffffffffffffffffffffffffff1602179055508060025f6101000a81548173ffffffffffffffffffffffffffffffffffffffff021916908373ffffffffffffffffffffffffffffffffffffffff1602179055505050610198565b5f5ffd5b5f73ffffffffffffffffffffffffffffffffffffffff82169050919050565b5f61012982610100565b9050919050565b6101398161011f565b8114610143575f5ffd5b50565b5f8151905061015481610130565b92915050565b5f5f604083850312156101705761016f6100fc565b5b5f61017d85828601610146565b925050602061018e85828601610146565b9150509250929050565b61115b806101a55f395ff3fe608060405234801561000f575f5ffd5b5060043610610091575f3560e01c806376182baf1161006457806376182baf1461010b578063804db8f7146101275780638da5cb5b146101465780639e30b1e814610164578063ca4a1b8f1461018057610091565b80630fc63d10146100955780631f67316e146100b35780632c4e722e146100cf5780635f64b55b146100ed575b5f5ffd5b61009d61019c565b6040516100aa9190610be5565b60405180910390f35b6100cd60048036038101906100c89190610c35565b6101c1565b005b6100d761047f565b6040516100e49190610c6f565b60405180910390f35b6100f5610485565b6040516101029190610ca8565b60405180910390f35b61012560048036038101906101209190610c35565b6104aa565b005b61012f6105da565b60405161013d929190610cc1565b60405180910390f35b61014e610716565b60405161015b9190610d08565b60405180910390f35b61017e60048036038101906101799190610c35565b61073a565b005b61019a60048036038101906101959190610c35565b61086a565b005b60015f9054906101000a900473ffffffffffffffffffffffffffffffffffffffff1681565b5f8111610203576040517f08c379a00000000000000000000000000000000000000000000000000000000081526004016101fa90610d7b565b60405180910390fd5b5f600354826102129190610dc6565b90508060025f9054906101000a900473ffffffffffffffffffffffffffffffffffffffff1673ffffffffffffffffffffffffffffffffffffffff166370a08231306040518263ffffffff1660e01b815260040161026f9190610d08565b602060405180830381865afa15801561028a573d5f5f3e3d5ffd5b505050506040513d601f19601f820116820180604052508101906102ae9190610e1b565b10156102ef576040517f08c379a00000000000000000000000000000000000000000000000000000000081526004016102e690610e90565b60405180910390fd5b60015f9054906101000a900473ffffffffffffffffffffffffffffffffffffffff1673ffffffffffffffffffffffffffffffffffffffff166323b872dd3330856040518463ffffffff1660e01b815260040161034d93929190610eae565b6020604051808303815f875af1158015610369573d5f5f3e3d5ffd5b505050506040513d601f19601f8201168201806040525081019061038d9190610f18565b5060025f9054906101000a900473ffffffffffffffffffffffffffffffffffffffff1673ffffffffffffffffffffffffffffffffffffffff1663a9059cbb33836040518363ffffffff1660e01b81526004016103ea929190610f43565b6020604051808303815f875af1158015610406573d5f5f3e3d5ffd5b505050506040513d601f19601f8201168201806040525081019061042a9190610f18565b503373ffffffffffffffffffffffffffffffffffffffff167f77f92a1b6a1a11de8ca49515ad4c1fad45632dd3442167d74b90b304a3c7a7588383604051610473929190610cc1565b60405180910390a25050565b60035481565b60025f9054906101000a900473ffffffffffffffffffffffffffffffffffffffff1681565b5f5f9054906101000a900473ffffffffffffffffffffffffffffffffffffffff1673ffffffffffffffffffffffffffffffffffffffff163373ffffffffffffffffffffffffffffffffffffffff1614610538576040517f08c379a000000000000000000000000000000000000000000000000000000000815260040161052f90610fb4565b60405180910390fd5b60025f9054906101000a900473ffffffffffffffffffffffffffffffffffffffff1673ffffffffffffffffffffffffffffffffffffffff166323b872dd3330846040518463ffffffff1660e01b815260040161059693929190610eae565b6020604051808303815f875af11580156105b2573d5f5f3e3d5ffd5b505050506040513d601f19601f820116820180604052508101906105d69190610f18565b5050565b5f5f60015f9054906101000a900473ffffffffffffffffffffffffffffffffffffffff1673ffffffffffffffffffffffffffffffffffffffff166370a08231306040518263ffffffff1660e01b81526004016106369190610d08565b602060405180830381865afa158015610651573d5f5f3e3d5ffd5b505050506040513d601f19601f820116820180604052508101906106759190610e1b565b915060025f9054906101000a900473ffffffffffffffffffffffffffffffffffffffff1673ffffffffffffffffffffffffffffffffffffffff166370a08231306040518263ffffffff1660e01b81526004016106d19190610d08565b602060405180830381865afa1580156106ec573d5f5f3e3d5ffd5b505050506040513d601f19601f820116820180604052508101906107109190610e1b565b90509091565b5f5f9054906101000a900473ffffffffffffffffffffffffffffffffffffffff1681565b5f5f9054906101000a900473ffffffffffffffffffffffffffffffffffffffff1673ffffffffffffffffffffffffffffffffffffffff163373ffffffffffffffffffffffffffffffffffffffff16146107c8576040517f08c379a00000000000000000000000000000000000000000000000000000000081526004016107bf90610fb4565b60405180910390fd5b60015f9054906101000a900473ffffffffffffffffffffffffffffffffffffffff1673ffffffffffffffffffffffffffffffffffffffff166323b872dd3330846040518463ffffffff1660e01b815260040161082693929190610eae565b6020604051808303815f875af1158015610842573d5f5f3e3d5ffd5b505050506040513d601f19601f820116820180604052508101906108669190610f18565b5050565b5f81116108ac576040517f08c379a00000000000000000000000000000000000000000000000000000000081526004016108a390610d7b565b60405180910390fd5b5f600354826108bb9190610fff565b905060018111610900576040517f08c379a00000000000000000000000000000000000000000000000000000000081526004016108f79061109f565b60405180910390fd5b8060015f9054906101000a900473ffffffffffffffffffffffffffffffffffffffff1673ffffffffffffffffffffffffffffffffffffffff166370a08231306040518263ffffffff1660e01b815260040161095b9190610d08565b602060405180830381865afa158015610976573d5f5f3e3d5ffd5b505050506040513d601f19601f8201168201806040525081019061099a9190610e1b565b10156109db576040517f08c379a00000000000000000000000000000000000000000000000000000000081526004016109d290611107565b60405180910390fd5b60025f9054906101000a900473ffffffffffffffffffffffffffffffffffffffff1673ffffffffffffffffffffffffffffffffffffffff166323b872dd3330856040518463ffffffff1660e01b8152600401610a3993929190610eae565b6020604051808303815f875af1158015610a55573d5f5f3e3d5ffd5b505050506040513d601f19601f82011682018060405250810190610a799190610f18565b5060015f9054906101000a900473ffffffffffffffffffffffffffffffffffffffff1673ffffffffffffffffffffffffffffffffffffffff1663a9059cbb33836040518363ffffffff1660e01b8152600401610ad6929190610f43565b6020604051808303815f875af1158015610af2573d5f5f3e3d5ffd5b505050506040513d601f19601f82011682018060405250810190610b169190610f18565b503373ffffffffffffffffffffffffffffffffffffffff167f77f92a1b6a1a11de8ca49515ad4c1fad45632dd3442167d74b90b304a3c7a7588383604051610b5f929190610cc1565b60405180910390a25050565b5f73ffffffffffffffffffffffffffffffffffffffff82169050919050565b5f819050919050565b5f610bad610ba8610ba384610b6b565b610b8a565b610b6b565b9050919050565b5f610bbe82610b93565b9050919050565b5f610bcf82610bb4565b9050919050565b610bdf81610bc5565b82525050565b5f602082019050610bf85f830184610bd6565b92915050565b5f5ffd5b5f819050919050565b610c1481610c02565b8114610c1e575f5ffd5b50565b5f81359050610c2f81610c0b565b92915050565b5f60208284031215610c4a57610c49610bfe565b5b5f610c5784828501610c21565b91505092915050565b610c6981610c02565b82525050565b5f602082019050610c825f830184610c60565b92915050565b5f610c9282610bb4565b9050919050565b610ca281610c88565b82525050565b5f602082019050610cbb5f830184610c99565b92915050565b5f604082019050610cd45f830185610c60565b610ce16020830184610c60565b9392505050565b5f610cf282610b6b565b9050919050565b610d0281610ce8565b82525050565b5f602082019050610d1b5f830184610cf9565b92915050565b5f82825260208201905092915050565b7f497a6e6f73206d6f726120626974692076656369206f642030000000000000005f82015250565b5f610d65601983610d21565b9150610d7082610d31565b602082019050919050565b5f6020820190508181035f830152610d9281610d59565b9050919050565b7f4e487b71000000000000000000000000000000000000000000000000000000005f52601160045260245ffd5b5f610dd082610c02565b9150610ddb83610c02565b9250828202610de981610c02565b91508282048414831517610e0057610dff610d99565b5b5092915050565b5f81519050610e1581610c0b565b92915050565b5f60208284031215610e3057610e2f610bfe565b5b5f610e3d84828501610e07565b91505092915050565b7f444558206e656d6120646f766f6c6a6e6f20544b4200000000000000000000005f82015250565b5f610e7a601583610d21565b9150610e8582610e46565b602082019050919050565b5f6020820190508181035f830152610ea781610e6e565b9050919050565b5f606082019050610ec15f830186610cf9565b610ece6020830185610cf9565b610edb6040830184610c60565b949350505050565b5f8115159050919050565b610ef781610ee3565b8114610f01575f5ffd5b50565b5f81519050610f1281610eee565b92915050565b5f60208284031215610f2d57610f2c610bfe565b5b5f610f3a84828501610f04565b91505092915050565b5f604082019050610f565f830185610cf9565b610f636020830184610c60565b9392505050565b7f53616d6f20766c61736e696b206d6f7a652070756e69746920444558000000005f82015250565b5f610f9e601c83610d21565b9150610fa982610f6a565b602082019050919050565b5f6020820190508181035f830152610fcb81610f92565b9050919050565b7f4e487b71000000000000000000000000000000000000000000000000000000005f52601260045260245ffd5b5f61100982610c02565b915061101483610c02565b92508261102457611023610fd2565b5b828204905092915050565b7f497a6e6f73207a616d6a656e65206a65207072656e697a616b202d20706f73615f8201527f6c6a69206e616a6d616e6a65203220544b420000000000000000000000000000602082015250565b5f611089603283610d21565b91506110948261102f565b604082019050919050565b5f6020820190508181035f8301526110b68161107d565b9050919050565b7f444558206e656d6120646f766f6c6a6e6f20544b4100000000000000000000005f82015250565b5f6110f1601583610d21565b91506110fc826110bd565b602082019050919050565b5f6020820190508181035f83015261111e816110e5565b905091905056fea264697066735822122090e7582b21bf3a9bcc220a4edd4a655a4774aa218be7913cca564dd46399709664736f6c63430008220033",
					"opcodes": "PUSH1 0x80 PUSH1 0x40 MSTORE PUSH1 0x2 PUSH1 0x3 SSTORE CALLVALUE DUP1 ISZERO PUSH2 0x14 JUMPI PUSH0 PUSH0 REVERT JUMPDEST POP PUSH1 0x40 MLOAD PUSH2 0x1300 CODESIZE SUB DUP1 PUSH2 0x1300 DUP4 CODECOPY DUP2 DUP2 ADD PUSH1 0x40 MSTORE DUP2 ADD SWAP1 PUSH2 0x36 SWAP2 SWAP1 PUSH2 0x15A JUMP JUMPDEST CALLER PUSH0 PUSH0 PUSH2 0x100 EXP DUP2 SLOAD DUP2 PUSH20 0xFFFFFFFFFFFFFFFFFFFFFFFFFFFFFFFFFFFFFFFF MUL NOT AND SWAP1 DUP4 PUSH20 0xFFFFFFFFFFFFFFFFFFFFFFFFFFFFFFFFFFFFFFFF AND MUL OR SWAP1 SSTORE POP DUP2 PUSH1 0x1 PUSH0 PUSH2 0x100 EXP DUP2 SLOAD DUP2 PUSH20 0xFFFFFFFFFFFFFFFFFFFFFFFFFFFFFFFFFFFFFFFF MUL NOT AND SWAP1 DUP4 PUSH20 0xFFFFFFFFFFFFFFFFFFFFFFFFFFFFFFFFFFFFFFFF AND MUL OR SWAP1 SSTORE POP DUP1 PUSH1 0x2 PUSH0 PUSH2 0x100 EXP DUP2 SLOAD DUP2 PUSH20 0xFFFFFFFFFFFFFFFFFFFFFFFFFFFFFFFFFFFFFFFF MUL NOT AND SWAP1 DUP4 PUSH20 0xFFFFFFFFFFFFFFFFFFFFFFFFFFFFFFFFFFFFFFFF AND MUL OR SWAP1 SSTORE POP POP POP PUSH2 0x198 JUMP JUMPDEST PUSH0 PUSH0 REVERT JUMPDEST PUSH0 PUSH20 0xFFFFFFFFFFFFFFFFFFFFFFFFFFFFFFFFFFFFFFFF DUP3 AND SWAP1 POP SWAP2 SWAP1 POP JUMP JUMPDEST PUSH0 PUSH2 0x129 DUP3 PUSH2 0x100 JUMP JUMPDEST SWAP1 POP SWAP2 SWAP1 POP JUMP JUMPDEST PUSH2 0x139 DUP2 PUSH2 0x11F JUMP JUMPDEST DUP2 EQ PUSH2 0x143 JUMPI PUSH0 PUSH0 REVERT JUMPDEST POP JUMP JUMPDEST PUSH0 DUP2 MLOAD SWAP1 POP PUSH2 0x154 DUP2 PUSH2 0x130 JUMP JUMPDEST SWAP3 SWAP2 POP POP JUMP JUMPDEST PUSH0 PUSH0 PUSH1 0x40 DUP4 DUP6 SUB SLT ISZERO PUSH2 0x170 JUMPI PUSH2 0x16F PUSH2 0xFC JUMP JUMPDEST JUMPDEST PUSH0 PUSH2 0x17D DUP6 DUP3 DUP7 ADD PUSH2 0x146 JUMP JUMPDEST SWAP3 POP POP PUSH1 0x20 PUSH2 0x18E DUP6 DUP3 DUP7 ADD PUSH2 0x146 JUMP JUMPDEST SWAP2 POP POP SWAP3 POP SWAP3 SWAP1 POP JUMP JUMPDEST PUSH2 0x115B DUP1 PUSH2 0x1A5 PUSH0 CODECOPY PUSH0 RETURN INVALID PUSH1 0x80 PUSH1 0x40 MSTORE CALLVALUE DUP1 ISZERO PUSH2 0xF JUMPI PUSH0 PUSH0 REVERT JUMPDEST POP PUSH1 0x4 CALLDATASIZE LT PUSH2 0x91 JUMPI PUSH0 CALLDATALOAD PUSH1 0xE0 SHR DUP1 PUSH4 0x76182BAF GT PUSH2 0x64 JUMPI DUP1 PUSH4 0x76182BAF EQ PUSH2 0x10B JUMPI DUP1 PUSH4 0x804DB8F7 EQ PUSH2 0x127 JUMPI DUP1 PUSH4 0x8DA5CB5B EQ PUSH2 0x146 JUMPI DUP1 PUSH4 0x9E30B1E8 EQ PUSH2 0x164 JUMPI DUP1 PUSH4 0xCA4A1B8F EQ PUSH2 0x180 JUMPI PUSH2 0x91 JUMP JUMPDEST DUP1 PUSH4 0xFC63D10 EQ PUSH2 0x95 JUMPI DUP1 PUSH4 0x1F67316E EQ PUSH2 0xB3 JUMPI DUP1 PUSH4 0x2C4E722E EQ PUSH2 0xCF JUMPI DUP1 PUSH4 0x5F64B55B EQ PUSH2 0xED JUMPI JUMPDEST PUSH0 PUSH0 REVERT JUMPDEST PUSH2 0x9D PUSH2 0x19C JUMP JUMPDEST PUSH1 0x40 MLOAD PUSH2 0xAA SWAP2 SWAP1 PUSH2 0xBE5 JUMP JUMPDEST PUSH1 0x40 MLOAD DUP1 SWAP2 SUB SWAP1 RETURN JUMPDEST PUSH2 0xCD PUSH1 0x4 DUP1 CALLDATASIZE SUB DUP2 ADD SWAP1 PUSH2 0xC8 SWAP2 SWAP1 PUSH2 0xC35 JUMP JUMPDEST PUSH2 0x1C1 JUMP JUMPDEST STOP JUMPDEST PUSH2 0xD7 PUSH2 0x47F JUMP JUMPDEST PUSH1 0x40 MLOAD PUSH2 0xE4 SWAP2 SWAP1 PUSH2 0xC6F JUMP JUMPDEST PUSH1 0x40 MLOAD DUP1 SWAP2 SUB SWAP1 RETURN JUMPDEST PUSH2 0xF5 PUSH2 0x485 JUMP JUMPDEST PUSH1 0x40 MLOAD PUSH2 0x102 SWAP2 SWAP1 PUSH2 0xCA8 JUMP JUMPDEST PUSH1 0x40 MLOAD DUP1 SWAP2 SUB SWAP1 RETURN JUMPDEST PUSH2 0x125 PUSH1 0x4 DUP1 CALLDATASIZE SUB DUP2 ADD SWAP1 PUSH2 0x120 SWAP2 SWAP1 PUSH2 0xC35 JUMP JUMPDEST PUSH2 0x4AA JUMP JUMPDEST STOP JUMPDEST PUSH2 0x12F PUSH2 0x5DA JUMP JUMPDEST PUSH1 0x40 MLOAD PUSH2 0x13D SWAP3 SWAP2 SWAP1 PUSH2 0xCC1 JUMP JUMPDEST PUSH1 0x40 MLOAD DUP1 SWAP2 SUB SWAP1 RETURN JUMPDEST PUSH2 0x14E PUSH2 0x716 JUMP JUMPDEST PUSH1 0x40 MLOAD PUSH2 0x15B SWAP2 SWAP1 PUSH2 0xD08 JUMP JUMPDEST PUSH1 0x40 MLOAD DUP1 SWAP2 SUB SWAP1 RETURN JUMPDEST PUSH2 0x17E PUSH1 0x4 DUP1 CALLDATASIZE SUB DUP2 ADD SWAP1 PUSH2 0x179 SWAP2 SWAP1 PUSH2 0xC35 JUMP JUMPDEST PUSH2 0x73A JUMP JUMPDEST STOP JUMPDEST PUSH2 0x19A PUSH1 0x4 DUP1 CALLDATASIZE SUB DUP2 ADD SWAP1 PUSH2 0x195 SWAP2 SWAP1 PUSH2 0xC35 JUMP JUMPDEST PUSH2 0x86A JUMP JUMPDEST STOP JUMPDEST PUSH1 0x1 PUSH0 SWAP1 SLOAD SWAP1 PUSH2 0x100 EXP SWAP1 DIV PUSH20 0xFFFFFFFFFFFFFFFFFFFFFFFFFFFFFFFFFFFFFFFF AND DUP2 JUMP JUMPDEST PUSH0 DUP2 GT PUSH2 0x203 JUMPI PUSH1 0x40 MLOAD PUSH32 0x8C379A000000000000000000000000000000000000000000000000000000000 DUP2 MSTORE PUSH1 0x4 ADD PUSH2 0x1FA SWAP1 PUSH2 0xD7B JUMP JUMPDEST PUSH1 0x40 MLOAD DUP1 SWAP2 SUB SWAP1 REVERT JUMPDEST PUSH0 PUSH1 0x3 SLOAD DUP3 PUSH2 0x212 SWAP2 SWAP1 PUSH2 0xDC6 JUMP JUMPDEST SWAP1 POP DUP1 PUSH1 0x2 PUSH0 SWAP1 SLOAD SWAP1 PUSH2 0x100 EXP SWAP1 DIV PUSH20 0xFFFFFFFFFFFFFFFFFFFFFFFFFFFFFFFFFFFFFFFF AND PUSH20 0xFFFFFFFFFFFFFFFFFFFFFFFFFFFFFFFFFFFFFFFF AND PUSH4 0x70A08231 ADDRESS PUSH1 0x40 MLOAD DUP3 PUSH4 0xFFFFFFFF AND PUSH1 0xE0 SHL DUP2 MSTORE PUSH1 0x4 ADD PUSH2 0x26F SWAP2 SWAP1 PUSH2 0xD08 JUMP JUMPDEST PUSH1 0x20 PUSH1 0x40 MLOAD DUP1 DUP4 SUB DUP2 DUP7 GAS STATICCALL ISZERO DUP1 ISZERO PUSH2 0x28A JUMPI RETURNDATASIZE PUSH0 PUSH0 RETURNDATACOPY RETURNDATASIZE PUSH0 REVERT JUMPDEST POP POP POP POP PUSH1 0x40 MLOAD RETURNDATASIZE PUSH1 0x1F NOT PUSH1 0x1F DUP3 ADD AND DUP3 ADD DUP1 PUSH1 0x40 MSTORE POP DUP2 ADD SWAP1 PUSH2 0x2AE SWAP2 SWAP1 PUSH2 0xE1B JUMP JUMPDEST LT ISZERO PUSH2 0x2EF JUMPI PUSH1 0x40 MLOAD PUSH32 0x8C379A000000000000000000000000000000000000000000000000000000000 DUP2 MSTORE PUSH1 0x4 ADD PUSH2 0x2E6 SWAP1 PUSH2 0xE90 JUMP JUMPDEST PUSH1 0x40 MLOAD DUP1 SWAP2 SUB SWAP1 REVERT JUMPDEST PUSH1 0x1 PUSH0 SWAP1 SLOAD SWAP1 PUSH2 0x100 EXP SWAP1 DIV PUSH20 0xFFFFFFFFFFFFFFFFFFFFFFFFFFFFFFFFFFFFFFFF AND PUSH20 0xFFFFFFFFFFFFFFFFFFFFFFFFFFFFFFFFFFFFFFFF AND PUSH4 0x23B872DD CALLER ADDRESS DUP6 PUSH1 0x40 MLOAD DUP5 PUSH4 0xFFFFFFFF AND PUSH1 0xE0 SHL DUP2 MSTORE PUSH1 0x4 ADD PUSH2 0x34D SWAP4 SWAP3 SWAP2 SWAP1 PUSH2 0xEAE JUMP JUMPDEST PUSH1 0x20 PUSH1 0x40 MLOAD DUP1 DUP4 SUB DUP2 PUSH0 DUP8 GAS CALL ISZERO DUP1 ISZERO PUSH2 0x369 JUMPI RETURNDATASIZE PUSH0 PUSH0 RETURNDATACOPY RETURNDATASIZE PUSH0 REVERT JUMPDEST POP POP POP POP PUSH1 0x40 MLOAD RETURNDATASIZE PUSH1 0x1F NOT PUSH1 0x1F DUP3 ADD AND DUP3 ADD DUP1 PUSH1 0x40 MSTORE POP DUP2 ADD SWAP1 PUSH2 0x38D SWAP2 SWAP1 PUSH2 0xF18 JUMP JUMPDEST POP PUSH1 0x2 PUSH0 SWAP1 SLOAD SWAP1 PUSH2 0x100 EXP SWAP1 DIV PUSH20 0xFFFFFFFFFFFFFFFFFFFFFFFFFFFFFFFFFFFFFFFF AND PUSH20 0xFFFFFFFFFFFFFFFFFFFFFFFFFFFFFFFFFFFFFFFF AND PUSH4 0xA9059CBB CALLER DUP4 PUSH1 0x40 MLOAD DUP4 PUSH4 0xFFFFFFFF AND PUSH1 0xE0 SHL DUP2 MSTORE PUSH1 0x4 ADD PUSH2 0x3EA SWAP3 SWAP2 SWAP1 PUSH2 0xF43 JUMP JUMPDEST PUSH1 0x20 PUSH1 0x40 MLOAD DUP1 DUP4 SUB DUP2 PUSH0 DUP8 GAS CALL ISZERO DUP1 ISZERO PUSH2 0x406 JUMPI RETURNDATASIZE PUSH0 PUSH0 RETURNDATACOPY RETURNDATASIZE PUSH0 REVERT JUMPDEST POP POP POP POP PUSH1 0x40 MLOAD RETURNDATASIZE PUSH1 0x1F NOT PUSH1 0x1F DUP3 ADD AND DUP3 ADD DUP1 PUSH1 0x40 MSTORE POP DUP2 ADD SWAP1 PUSH2 0x42A SWAP2 SWAP1 PUSH2 0xF18 JUMP JUMPDEST POP CALLER PUSH20 0xFFFFFFFFFFFFFFFFFFFFFFFFFFFFFFFFFFFFFFFF AND PUSH32 0x77F92A1B6A1A11DE8CA49515AD4C1FAD45632DD3442167D74B90B304A3C7A758 DUP4 DUP4 PUSH1 0x40 MLOAD PUSH2 0x473 SWAP3 SWAP2 SWAP1 PUSH2 0xCC1 JUMP JUMPDEST PUSH1 0x40 MLOAD DUP1 SWAP2 SUB SWAP1 LOG2 POP POP JUMP JUMPDEST PUSH1 0x3 SLOAD DUP2 JUMP JUMPDEST PUSH1 0x2 PUSH0 SWAP1 SLOAD SWAP1 PUSH2 0x100 EXP SWAP1 DIV PUSH20 0xFFFFFFFFFFFFFFFFFFFFFFFFFFFFFFFFFFFFFFFF AND DUP2 JUMP JUMPDEST PUSH0 PUSH0 SWAP1 SLOAD SWAP1 PUSH2 0x100 EXP SWAP1 DIV PUSH20 0xFFFFFFFFFFFFFFFFFFFFFFFFFFFFFFFFFFFFFFFF AND PUSH20 0xFFFFFFFFFFFFFFFFFFFFFFFFFFFFFFFFFFFFFFFF AND CALLER PUSH20 0xFFFFFFFFFFFFFFFFFFFFFFFFFFFFFFFFFFFFFFFF AND EQ PUSH2 0x538 JUMPI PUSH1 0x40 MLOAD PUSH32 0x8C379A000000000000000000000000000000000000000000000000000000000 DUP2 MSTORE PUSH1 0x4 ADD PUSH2 0x52F SWAP1 PUSH2 0xFB4 JUMP JUMPDEST PUSH1 0x40 MLOAD DUP1 SWAP2 SUB SWAP1 REVERT JUMPDEST PUSH1 0x2 PUSH0 SWAP1 SLOAD SWAP1 PUSH2 0x100 EXP SWAP1 DIV PUSH20 0xFFFFFFFFFFFFFFFFFFFFFFFFFFFFFFFFFFFFFFFF AND PUSH20 0xFFFFFFFFFFFFFFFFFFFFFFFFFFFFFFFFFFFFFFFF AND PUSH4 0x23B872DD CALLER ADDRESS DUP5 PUSH1 0x40 MLOAD DUP5 PUSH4 0xFFFFFFFF AND PUSH1 0xE0 SHL DUP2 MSTORE PUSH1 0x4 ADD PUSH2 0x596 SWAP4 SWAP3 SWAP2 SWAP1 PUSH2 0xEAE JUMP JUMPDEST PUSH1 0x20 PUSH1 0x40 MLOAD DUP1 DUP4 SUB DUP2 PUSH0 DUP8 GAS CALL ISZERO DUP1 ISZERO PUSH2 0x5B2 JUMPI RETURNDATASIZE PUSH0 PUSH0 RETURNDATACOPY RETURNDATASIZE PUSH0 REVERT JUMPDEST POP POP POP POP PUSH1 0x40 MLOAD RETURNDATASIZE PUSH1 0x1F NOT PUSH1 0x1F DUP3 ADD AND DUP3 ADD DUP1 PUSH1 0x40 MSTORE POP DUP2 ADD SWAP1 PUSH2 0x5D6 SWAP2 SWAP1 PUSH2 0xF18 JUMP JUMPDEST POP POP JUMP JUMPDEST PUSH0 PUSH0 PUSH1 0x1 PUSH0 SWAP1 SLOAD SWAP1 PUSH2 0x100 EXP SWAP1 DIV PUSH20 0xFFFFFFFFFFFFFFFFFFFFFFFFFFFFFFFFFFFFFFFF AND PUSH20 0xFFFFFFFFFFFFFFFFFFFFFFFFFFFFFFFFFFFFFFFF AND PUSH4 0x70A08231 ADDRESS PUSH1 0x40 MLOAD DUP3 PUSH4 0xFFFFFFFF AND PUSH1 0xE0 SHL DUP2 MSTORE PUSH1 0x4 ADD PUSH2 0x636 SWAP2 SWAP1 PUSH2 0xD08 JUMP JUMPDEST PUSH1 0x20 PUSH1 0x40 MLOAD DUP1 DUP4 SUB DUP2 DUP7 GAS STATICCALL ISZERO DUP1 ISZERO PUSH2 0x651 JUMPI RETURNDATASIZE PUSH0 PUSH0 RETURNDATACOPY RETURNDATASIZE PUSH0 REVERT JUMPDEST POP POP POP POP PUSH1 0x40 MLOAD RETURNDATASIZE PUSH1 0x1F NOT PUSH1 0x1F DUP3 ADD AND DUP3 ADD DUP1 PUSH1 0x40 MSTORE POP DUP2 ADD SWAP1 PUSH2 0x675 SWAP2 SWAP1 PUSH2 0xE1B JUMP JUMPDEST SWAP2 POP PUSH1 0x2 PUSH0 SWAP1 SLOAD SWAP1 PUSH2 0x100 EXP SWAP1 DIV PUSH20 0xFFFFFFFFFFFFFFFFFFFFFFFFFFFFFFFFFFFFFFFF AND PUSH20 0xFFFFFFFFFFFFFFFFFFFFFFFFFFFFFFFFFFFFFFFF AND PUSH4 0x70A08231 ADDRESS PUSH1 0x40 MLOAD DUP3 PUSH4 0xFFFFFFFF AND PUSH1 0xE0 SHL DUP2 MSTORE PUSH1 0x4 ADD PUSH2 0x6D1 SWAP2 SWAP1 PUSH2 0xD08 JUMP JUMPDEST PUSH1 0x20 PUSH1 0x40 MLOAD DUP1 DUP4 SUB DUP2 DUP7 GAS STATICCALL ISZERO DUP1 ISZERO PUSH2 0x6EC JUMPI RETURNDATASIZE PUSH0 PUSH0 RETURNDATACOPY RETURNDATASIZE PUSH0 REVERT JUMPDEST POP POP POP POP PUSH1 0x40 MLOAD RETURNDATASIZE PUSH1 0x1F NOT PUSH1 0x1F DUP3 ADD AND DUP3 ADD DUP1 PUSH1 0x40 MSTORE POP DUP2 ADD SWAP1 PUSH2 0x710 SWAP2 SWAP1 PUSH2 0xE1B JUMP JUMPDEST SWAP1 POP SWAP1 SWAP2 JUMP JUMPDEST PUSH0 PUSH0 SWAP1 SLOAD SWAP1 PUSH2 0x100 EXP SWAP1 DIV PUSH20 0xFFFFFFFFFFFFFFFFFFFFFFFFFFFFFFFFFFFFFFFF AND DUP2 JUMP JUMPDEST PUSH0 PUSH0 SWAP1 SLOAD SWAP1 PUSH2 0x100 EXP SWAP1 DIV PUSH20 0xFFFFFFFFFFFFFFFFFFFFFFFFFFFFFFFFFFFFFFFF AND PUSH20 0xFFFFFFFFFFFFFFFFFFFFFFFFFFFFFFFFFFFFFFFF AND CALLER PUSH20 0xFFFFFFFFFFFFFFFFFFFFFFFFFFFFFFFFFFFFFFFF AND EQ PUSH2 0x7C8 JUMPI PUSH1 0x40 MLOAD PUSH32 0x8C379A000000000000000000000000000000000000000000000000000000000 DUP2 MSTORE PUSH1 0x4 ADD PUSH2 0x7BF SWAP1 PUSH2 0xFB4 JUMP JUMPDEST PUSH1 0x40 MLOAD DUP1 SWAP2 SUB SWAP1 REVERT JUMPDEST PUSH1 0x1 PUSH0 SWAP1 SLOAD SWAP1 PUSH2 0x100 EXP SWAP1 DIV PUSH20 0xFFFFFFFFFFFFFFFFFFFFFFFFFFFFFFFFFFFFFFFF AND PUSH20 0xFFFFFFFFFFFFFFFFFFFFFFFFFFFFFFFFFFFFFFFF AND PUSH4 0x23B872DD CALLER ADDRESS DUP5 PUSH1 0x40 MLOAD DUP5 PUSH4 0xFFFFFFFF AND PUSH1 0xE0 SHL DUP2 MSTORE PUSH1 0x4 ADD PUSH2 0x826 SWAP4 SWAP3 SWAP2 SWAP1 PUSH2 0xEAE JUMP JUMPDEST PUSH1 0x20 PUSH1 0x40 MLOAD DUP1 DUP4 SUB DUP2 PUSH0 DUP8 GAS CALL ISZERO DUP1 ISZERO PUSH2 0x842 JUMPI RETURNDATASIZE PUSH0 PUSH0 RETURNDATACOPY RETURNDATASIZE PUSH0 REVERT JUMPDEST POP POP POP POP PUSH1 0x40 MLOAD RETURNDATASIZE PUSH1 0x1F NOT PUSH1 0x1F DUP3 ADD AND DUP3 ADD DUP1 PUSH1 0x40 MSTORE POP DUP2 ADD SWAP1 PUSH2 0x866 SWAP2 SWAP1 PUSH2 0xF18 JUMP JUMPDEST POP POP JUMP JUMPDEST PUSH0 DUP2 GT PUSH2 0x8AC JUMPI PUSH1 0x40 MLOAD PUSH32 0x8C379A000000000000000000000000000000000000000000000000000000000 DUP2 MSTORE PUSH1 0x4 ADD PUSH2 0x8A3 SWAP1 PUSH2 0xD7B JUMP JUMPDEST PUSH1 0x40 MLOAD DUP1 SWAP2 SUB SWAP1 REVERT JUMPDEST PUSH0 PUSH1 0x3 SLOAD DUP3 PUSH2 0x8BB SWAP2 SWAP1 PUSH2 0xFFF JUMP JUMPDEST SWAP1 POP PUSH1 0x1 DUP2 GT PUSH2 0x900 JUMPI PUSH1 0x40 MLOAD PUSH32 0x8C379A000000000000000000000000000000000000000000000000000000000 DUP2 MSTORE PUSH1 0x4 ADD PUSH2 0x8F7 SWAP1 PUSH2 0x109F JUMP JUMPDEST PUSH1 0x40 MLOAD DUP1 SWAP2 SUB SWAP1 REVERT JUMPDEST DUP1 PUSH1 0x1 PUSH0 SWAP1 SLOAD SWAP1 PUSH2 0x100 EXP SWAP1 DIV PUSH20 0xFFFFFFFFFFFFFFFFFFFFFFFFFFFFFFFFFFFFFFFF AND PUSH20 0xFFFFFFFFFFFFFFFFFFFFFFFFFFFFFFFFFFFFFFFF AND PUSH4 0x70A08231 ADDRESS PUSH1 0x40 MLOAD DUP3 PUSH4 0xFFFFFFFF AND PUSH1 0xE0 SHL DUP2 MSTORE PUSH1 0x4 ADD PUSH2 0x95B SWAP2 SWAP1 PUSH2 0xD08 JUMP JUMPDEST PUSH1 0x20 PUSH1 0x40 MLOAD DUP1 DUP4 SUB DUP2 DUP7 GAS STATICCALL ISZERO DUP1 ISZERO PUSH2 0x976 JUMPI RETURNDATASIZE PUSH0 PUSH0 RETURNDATACOPY RETURNDATASIZE PUSH0 REVERT JUMPDEST POP POP POP POP PUSH1 0x40 MLOAD RETURNDATASIZE PUSH1 0x1F NOT PUSH1 0x1F DUP3 ADD AND DUP3 ADD DUP1 PUSH1 0x40 MSTORE POP DUP2 ADD SWAP1 PUSH2 0x99A SWAP2 SWAP1 PUSH2 0xE1B JUMP JUMPDEST LT ISZERO PUSH2 0x9DB JUMPI PUSH1 0x40 MLOAD PUSH32 0x8C379A000000000000000000000000000000000000000000000000000000000 DUP2 MSTORE PUSH1 0x4 ADD PUSH2 0x9D2 SWAP1 PUSH2 0x1107 JUMP JUMPDEST PUSH1 0x40 MLOAD DUP1 SWAP2 SUB SWAP1 REVERT JUMPDEST PUSH1 0x2 PUSH0 SWAP1 SLOAD SWAP1 PUSH2 0x100 EXP SWAP1 DIV PUSH20 0xFFFFFFFFFFFFFFFFFFFFFFFFFFFFFFFFFFFFFFFF AND PUSH20 0xFFFFFFFFFFFFFFFFFFFFFFFFFFFFFFFFFFFFFFFF AND PUSH4 0x23B872DD CALLER ADDRESS DUP6 PUSH1 0x40 MLOAD DUP5 PUSH4 0xFFFFFFFF AND PUSH1 0xE0 SHL DUP2 MSTORE PUSH1 0x4 ADD PUSH2 0xA39 SWAP4 SWAP3 SWAP2 SWAP1 PUSH2 0xEAE JUMP JUMPDEST PUSH1 0x20 PUSH1 0x40 MLOAD DUP1 DUP4 SUB DUP2 PUSH0 DUP8 GAS CALL ISZERO DUP1 ISZERO PUSH2 0xA55 JUMPI RETURNDATASIZE PUSH0 PUSH0 RETURNDATACOPY RETURNDATASIZE PUSH0 REVERT JUMPDEST POP POP POP POP PUSH1 0x40 MLOAD RETURNDATASIZE PUSH1 0x1F NOT PUSH1 0x1F DUP3 ADD AND DUP3 ADD DUP1 PUSH1 0x40 MSTORE POP DUP2 ADD SWAP1 PUSH2 0xA79 SWAP2 SWAP1 PUSH2 0xF18 JUMP JUMPDEST POP PUSH1 0x1 PUSH0 SWAP1 SLOAD SWAP1 PUSH2 0x100 EXP SWAP1 DIV PUSH20 0xFFFFFFFFFFFFFFFFFFFFFFFFFFFFFFFFFFFFFFFF AND PUSH20 0xFFFFFFFFFFFFFFFFFFFFFFFFFFFFFFFFFFFFFFFF AND PUSH4 0xA9059CBB CALLER DUP4 PUSH1 0x40 MLOAD DUP4 PUSH4 0xFFFFFFFF AND PUSH1 0xE0 SHL DUP2 MSTORE PUSH1 0x4 ADD PUSH2 0xAD6 SWAP3 SWAP2 SWAP1 PUSH2 0xF43 JUMP JUMPDEST PUSH1 0x20 PUSH1 0x40 MLOAD DUP1 DUP4 SUB DUP2 PUSH0 DUP8 GAS CALL ISZERO DUP1 ISZERO PUSH2 0xAF2 JUMPI RETURNDATASIZE PUSH0 PUSH0 RETURNDATACOPY RETURNDATASIZE PUSH0 REVERT JUMPDEST POP POP POP POP PUSH1 0x40 MLOAD RETURNDATASIZE PUSH1 0x1F NOT PUSH1 0x1F DUP3 ADD AND DUP3 ADD DUP1 PUSH1 0x40 MSTORE POP DUP2 ADD SWAP1 PUSH2 0xB16 SWAP2 SWAP1 PUSH2 0xF18 JUMP JUMPDEST POP CALLER PUSH20 0xFFFFFFFFFFFFFFFFFFFFFFFFFFFFFFFFFFFFFFFF AND PUSH32 0x77F92A1B6A1A11DE8CA49515AD4C1FAD45632DD3442167D74B90B304A3C7A758 DUP4 DUP4 PUSH1 0x40 MLOAD PUSH2 0xB5F SWAP3 SWAP2 SWAP1 PUSH2 0xCC1 JUMP JUMPDEST PUSH1 0x40 MLOAD DUP1 SWAP2 SUB SWAP1 LOG2 POP POP JUMP JUMPDEST PUSH0 PUSH20 0xFFFFFFFFFFFFFFFFFFFFFFFFFFFFFFFFFFFFFFFF DUP3 AND SWAP1 POP SWAP2 SWAP1 POP JUMP JUMPDEST PUSH0 DUP2 SWAP1 POP SWAP2 SWAP1 POP JUMP JUMPDEST PUSH0 PUSH2 0xBAD PUSH2 0xBA8 PUSH2 0xBA3 DUP5 PUSH2 0xB6B JUMP JUMPDEST PUSH2 0xB8A JUMP JUMPDEST PUSH2 0xB6B JUMP JUMPDEST SWAP1 POP SWAP2 SWAP1 POP JUMP JUMPDEST PUSH0 PUSH2 0xBBE DUP3 PUSH2 0xB93 JUMP JUMPDEST SWAP1 POP SWAP2 SWAP1 POP JUMP JUMPDEST PUSH0 PUSH2 0xBCF DUP3 PUSH2 0xBB4 JUMP JUMPDEST SWAP1 POP SWAP2 SWAP1 POP JUMP JUMPDEST PUSH2 0xBDF DUP2 PUSH2 0xBC5 JUMP JUMPDEST DUP3 MSTORE POP POP JUMP JUMPDEST PUSH0 PUSH1 0x20 DUP3 ADD SWAP1 POP PUSH2 0xBF8 PUSH0 DUP4 ADD DUP5 PUSH2 0xBD6 JUMP JUMPDEST SWAP3 SWAP2 POP POP JUMP JUMPDEST PUSH0 PUSH0 REVERT JUMPDEST PUSH0 DUP2 SWAP1 POP SWAP2 SWAP1 POP JUMP JUMPDEST PUSH2 0xC14 DUP2 PUSH2 0xC02 JUMP JUMPDEST DUP2 EQ PUSH2 0xC1E JUMPI PUSH0 PUSH0 REVERT JUMPDEST POP JUMP JUMPDEST PUSH0 DUP2 CALLDATALOAD SWAP1 POP PUSH2 0xC2F DUP2 PUSH2 0xC0B JUMP JUMPDEST SWAP3 SWAP2 POP POP JUMP JUMPDEST PUSH0 PUSH1 0x20 DUP3 DUP5 SUB SLT ISZERO PUSH2 0xC4A JUMPI PUSH2 0xC49 PUSH2 0xBFE JUMP JUMPDEST JUMPDEST PUSH0 PUSH2 0xC57 DUP5 DUP3 DUP6 ADD PUSH2 0xC21 JUMP JUMPDEST SWAP2 POP POP SWAP3 SWAP2 POP POP JUMP JUMPDEST PUSH2 0xC69 DUP2 PUSH2 0xC02 JUMP JUMPDEST DUP3 MSTORE POP POP JUMP JUMPDEST PUSH0 PUSH1 0x20 DUP3 ADD SWAP1 POP PUSH2 0xC82 PUSH0 DUP4 ADD DUP5 PUSH2 0xC60 JUMP JUMPDEST SWAP3 SWAP2 POP POP JUMP JUMPDEST PUSH0 PUSH2 0xC92 DUP3 PUSH2 0xBB4 JUMP JUMPDEST SWAP1 POP SWAP2 SWAP1 POP JUMP JUMPDEST PUSH2 0xCA2 DUP2 PUSH2 0xC88 JUMP JUMPDEST DUP3 MSTORE POP POP JUMP JUMPDEST PUSH0 PUSH1 0x20 DUP3 ADD SWAP1 POP PUSH2 0xCBB PUSH0 DUP4 ADD DUP5 PUSH2 0xC99 JUMP JUMPDEST SWAP3 SWAP2 POP POP JUMP JUMPDEST PUSH0 PUSH1 0x40 DUP3 ADD SWAP1 POP PUSH2 0xCD4 PUSH0 DUP4 ADD DUP6 PUSH2 0xC60 JUMP JUMPDEST PUSH2 0xCE1 PUSH1 0x20 DUP4 ADD DUP5 PUSH2 0xC60 JUMP JUMPDEST SWAP4 SWAP3 POP POP POP JUMP JUMPDEST PUSH0 PUSH2 0xCF2 DUP3 PUSH2 0xB6B JUMP JUMPDEST SWAP1 POP SWAP2 SWAP1 POP JUMP JUMPDEST PUSH2 0xD02 DUP2 PUSH2 0xCE8 JUMP JUMPDEST DUP3 MSTORE POP POP JUMP JUMPDEST PUSH0 PUSH1 0x20 DUP3 ADD SWAP1 POP PUSH2 0xD1B PUSH0 DUP4 ADD DUP5 PUSH2 0xCF9 JUMP JUMPDEST SWAP3 SWAP2 POP POP JUMP JUMPDEST PUSH0 DUP3 DUP3 MSTORE PUSH1 0x20 DUP3 ADD SWAP1 POP SWAP3 SWAP2 POP POP JUMP JUMPDEST PUSH32 0x497A6E6F73206D6F726120626974692076656369206F64203000000000000000 PUSH0 DUP3 ADD MSTORE POP JUMP JUMPDEST PUSH0 PUSH2 0xD65 PUSH1 0x19 DUP4 PUSH2 0xD21 JUMP JUMPDEST SWAP2 POP PUSH2 0xD70 DUP3 PUSH2 0xD31 JUMP JUMPDEST PUSH1 0x20 DUP3 ADD SWAP1 POP SWAP2 SWAP1 POP JUMP JUMPDEST PUSH0 PUSH1 0x20 DUP3 ADD SWAP1 POP DUP2 DUP2 SUB PUSH0 DUP4 ADD MSTORE PUSH2 0xD92 DUP2 PUSH2 0xD59 JUMP JUMPDEST SWAP1 POP SWAP2 SWAP1 POP JUMP JUMPDEST PUSH32 0x4E487B7100000000000000000000000000000000000000000000000000000000 PUSH0 MSTORE PUSH1 0x11 PUSH1 0x4 MSTORE PUSH1 0x24 PUSH0 REVERT JUMPDEST PUSH0 PUSH2 0xDD0 DUP3 PUSH2 0xC02 JUMP JUMPDEST SWAP2 POP PUSH2 0xDDB DUP4 PUSH2 0xC02 JUMP JUMPDEST SWAP3 POP DUP3 DUP3 MUL PUSH2 0xDE9 DUP2 PUSH2 0xC02 JUMP JUMPDEST SWAP2 POP DUP3 DUP3 DIV DUP5 EQ DUP4 ISZERO OR PUSH2 0xE00 JUMPI PUSH2 0xDFF PUSH2 0xD99 JUMP JUMPDEST JUMPDEST POP SWAP3 SWAP2 POP POP JUMP JUMPDEST PUSH0 DUP2 MLOAD SWAP1 POP PUSH2 0xE15 DUP2 PUSH2 0xC0B JUMP JUMPDEST SWAP3 SWAP2 POP POP JUMP JUMPDEST PUSH0 PUSH1 0x20 DUP3 DUP5 SUB SLT ISZERO PUSH2 0xE30 JUMPI PUSH2 0xE2F PUSH2 0xBFE JUMP JUMPDEST JUMPDEST PUSH0 PUSH2 0xE3D DUP5 DUP3 DUP6 ADD PUSH2 0xE07 JUMP JUMPDEST SWAP2 POP POP SWAP3 SWAP2 POP POP JUMP JUMPDEST PUSH32 0x444558206E656D6120646F766F6C6A6E6F20544B420000000000000000000000 PUSH0 DUP3 ADD MSTORE POP JUMP JUMPDEST PUSH0 PUSH2 0xE7A PUSH1 0x15 DUP4 PUSH2 0xD21 JUMP JUMPDEST SWAP2 POP PUSH2 0xE85 DUP3 PUSH2 0xE46 JUMP JUMPDEST PUSH1 0x20 DUP3 ADD SWAP1 POP SWAP2 SWAP1 POP JUMP JUMPDEST PUSH0 PUSH1 0x20 DUP3 ADD SWAP1 POP DUP2 DUP2 SUB PUSH0 DUP4 ADD MSTORE PUSH2 0xEA7 DUP2 PUSH2 0xE6E JUMP JUMPDEST SWAP1 POP SWAP2 SWAP1 POP JUMP JUMPDEST PUSH0 PUSH1 0x60 DUP3 ADD SWAP1 POP PUSH2 0xEC1 PUSH0 DUP4 ADD DUP7 PUSH2 0xCF9 JUMP JUMPDEST PUSH2 0xECE PUSH1 0x20 DUP4 ADD DUP6 PUSH2 0xCF9 JUMP JUMPDEST PUSH2 0xEDB PUSH1 0x40 DUP4 ADD DUP5 PUSH2 0xC60 JUMP JUMPDEST SWAP5 SWAP4 POP POP POP POP JUMP JUMPDEST PUSH0 DUP2 ISZERO ISZERO SWAP1 POP SWAP2 SWAP1 POP JUMP JUMPDEST PUSH2 0xEF7 DUP2 PUSH2 0xEE3 JUMP JUMPDEST DUP2 EQ PUSH2 0xF01 JUMPI PUSH0 PUSH0 REVERT JUMPDEST POP JUMP JUMPDEST PUSH0 DUP2 MLOAD SWAP1 POP PUSH2 0xF12 DUP2 PUSH2 0xEEE JUMP JUMPDEST SWAP3 SWAP2 POP POP JUMP JUMPDEST PUSH0 PUSH1 0x20 DUP3 DUP5 SUB SLT ISZERO PUSH2 0xF2D JUMPI PUSH2 0xF2C PUSH2 0xBFE JUMP JUMPDEST JUMPDEST PUSH0 PUSH2 0xF3A DUP5 DUP3 DUP6 ADD PUSH2 0xF04 JUMP JUMPDEST SWAP2 POP POP SWAP3 SWAP2 POP POP JUMP JUMPDEST PUSH0 PUSH1 0x40 DUP3 ADD SWAP1 POP PUSH2 0xF56 PUSH0 DUP4 ADD DUP6 PUSH2 0xCF9 JUMP JUMPDEST PUSH2 0xF63 PUSH1 0x20 DUP4 ADD DUP5 PUSH2 0xC60 JUMP JUMPDEST SWAP4 SWAP3 POP POP POP JUMP JUMPDEST PUSH32 0x53616D6F20766C61736E696B206D6F7A652070756E6974692044455800000000 PUSH0 DUP3 ADD MSTORE POP JUMP JUMPDEST PUSH0 PUSH2 0xF9E PUSH1 0x1C DUP4 PUSH2 0xD21 JUMP JUMPDEST SWAP2 POP PUSH2 0xFA9 DUP3 PUSH2 0xF6A JUMP JUMPDEST PUSH1 0x20 DUP3 ADD SWAP1 POP SWAP2 SWAP1 POP JUMP JUMPDEST PUSH0 PUSH1 0x20 DUP3 ADD SWAP1 POP DUP2 DUP2 SUB PUSH0 DUP4 ADD MSTORE PUSH2 0xFCB DUP2 PUSH2 0xF92 JUMP JUMPDEST SWAP1 POP SWAP2 SWAP1 POP JUMP JUMPDEST PUSH32 0x4E487B7100000000000000000000000000000000000000000000000000000000 PUSH0 MSTORE PUSH1 0x12 PUSH1 0x4 MSTORE PUSH1 0x24 PUSH0 REVERT JUMPDEST PUSH0 PUSH2 0x1009 DUP3 PUSH2 0xC02 JUMP JUMPDEST SWAP2 POP PUSH2 0x1014 DUP4 PUSH2 0xC02 JUMP JUMPDEST SWAP3 POP DUP3 PUSH2 0x1024 JUMPI PUSH2 0x1023 PUSH2 0xFD2 JUMP JUMPDEST JUMPDEST DUP3 DUP3 DIV SWAP1 POP SWAP3 SWAP2 POP POP JUMP JUMPDEST PUSH32 0x497A6E6F73207A616D6A656E65206A65207072656E697A616B202D20706F7361 PUSH0 DUP3 ADD MSTORE PUSH32 0x6C6A69206E616A6D616E6A65203220544B420000000000000000000000000000 PUSH1 0x20 DUP3 ADD MSTORE POP JUMP JUMPDEST PUSH0 PUSH2 0x1089 PUSH1 0x32 DUP4 PUSH2 0xD21 JUMP JUMPDEST SWAP2 POP PUSH2 0x1094 DUP3 PUSH2 0x102F JUMP JUMPDEST PUSH1 0x40 DUP3 ADD SWAP1 POP SWAP2 SWAP1 POP JUMP JUMPDEST PUSH0 PUSH1 0x20 DUP3 ADD SWAP1 POP DUP2 DUP2 SUB PUSH0 DUP4 ADD MSTORE PUSH2 0x10B6 DUP2 PUSH2 0x107D JUMP JUMPDEST SWAP1 POP SWAP2 SWAP1 POP JUMP JUMPDEST PUSH32 0x444558206E656D6120646F766F6C6A6E6F20544B410000000000000000000000 PUSH0 DUP3 ADD MSTORE POP JUMP JUMPDEST PUSH0 PUSH2 0x10F1 PUSH1 0x15 DUP4 PUSH2 0xD21 JUMP JUMPDEST SWAP2 POP PUSH2 0x10FC DUP3 PUSH2 0x10BD JUMP JUMPDEST PUSH1 0x20 DUP3 ADD SWAP1 POP SWAP2 SWAP1 POP JUMP JUMPDEST PUSH0 PUSH1 0x20 DUP3 ADD SWAP1 POP DUP2 DUP2 SUB PUSH0 DUP4 ADD MSTORE PUSH2 0x111E DUP2 PUSH2 0x10E5 JUMP JUMPDEST SWAP1 POP SWAP2 SWAP1 POP JUMP INVALID LOG2 PUSH5 0x6970667358 0x22 SLT KECCAK256 SWAP1 SWAPN 0x58 0x2B 0x21 0xBF GASPRICE SWAP12 0xCC 0x22 EXP 0x4E 0xDD BLOBBASEFEE PUSH6 0x5A4774AA218B SWAPN 0x91 EXTCODECOPY 0xCA JUMP 0x4D 0xD4 PUSH4 0x99709664 PUSH20 0x6F6C634300082200330000000000000000000000 "
				},
				"gasEstimates": {
					"creation": {
						"codeDepositCost": "888600",
						"executionCost": "infinite",
						"totalCost": "infinite"
					},
					"external": {
						"depositTokenA(uint256)": "infinite",
						"depositTokenB(uint256)": "infinite",
						"owner()": "2551",
						"rate()": "2470",
						"stanjeDEX()": "infinite",
						"swapAzaB(uint256)": "infinite",
						"swapBzaA(uint256)": "infinite",
						"tokenA()": "infinite",
						"tokenB()": "infinite"
					}
				},
				"methodIdentifiers": {
					"depositTokenA(uint256)": "9e30b1e8",
					"depositTokenB(uint256)": "76182baf",
					"owner()": "8da5cb5b",
					"rate()": "2c4e722e",
					"stanjeDEX()": "804db8f7",
					"swapAzaB(uint256)": "1f67316e",
					"swapBzaA(uint256)": "ca4a1b8f",
					"tokenA()": "0fc63d10",
					"tokenB()": "5f64b55b"
				}
			},
			"storageLayout": {
				"storage": [
					{
						"astId": 5,
						"contract": "contracts/SimpleDEX.sol:SimpleDEX",
						"label": "owner",
						"offset": 0,
						"slot": "0",
						"type": "t_address"
					},
					{
						"astId": 8,
						"contract": "contracts/SimpleDEX.sol:SimpleDEX",
						"label": "tokenA",
						"offset": 0,
						"slot": "1",
						"type": "t_contract(TokenA)446"
					},
					{
						"astId": 11,
						"contract": "contracts/SimpleDEX.sol:SimpleDEX",
						"label": "tokenB",
						"offset": 0,
						"slot": "2",
						"type": "t_contract(TokenB)639"
					},
					{
						"astId": 14,
						"contract": "contracts/SimpleDEX.sol:SimpleDEX",
						"label": "rate",
						"offset": 0,
						"slot": "3",
						"type": "t_uint256"
					}
				],
				"types": {
					"t_address": {
						"encoding": "inplace",
						"label": "address",
						"numberOfBytes": "20"
					},
					"t_contract(TokenA)446": {
						"encoding": "inplace",
						"label": "contract TokenA",
						"numberOfBytes": "20"
					},
					"t_contract(TokenB)639": {
						"encoding": "inplace",
						"label": "contract TokenB",
						"numberOfBytes": "20"
					},
					"t_uint256": {
						"encoding": "inplace",
						"label": "uint256",
						"numberOfBytes": "32"
					}
				}
			},
			"userdoc": {
				"kind": "user",
				"methods": {},
				"version": 1
			}
		}
	}
}