{
	"contracts/ComplicatedDEX.sol": {
		"AmmDEX": {
			"abi": [
				{
					"inputs": [
						{
							"internalType": "address",
							"name": "_tokenA",
							"type": "address"
						},
						{
							"internalType": "address",
							"name": "_tokenB",
							"type": "address"
						}
					],
					"stateMutability": "nonpayable",
					"type": "constructor"
				},
				{
					"anonymous": false,
					"inputs": [
						{
							"indexed": true,
							"internalType": "address",
							"name": "pruzatelj",
							"type": "address"
						},
						{
							"indexed": false,
							"internalType": "uint256",
							"name": "iznosA",
							"type": "uint256"
						},
						{
							"indexed": false,
							"internalType": "uint256",
							"name": "iznosB",
							"type": "uint256"
						},
						{
							"indexed": false,
							"internalType": "uint256",
							"name": "lpUdio",
							"type": "uint256"
						}
					],
					"name": "LikvidnostDodana",
					"type": "event"
				},
				{
					"anonymous": false,
					"inputs": [
						{
							"indexed": true,
							"internalType": "address",
							"name": "pruzatelj",
							"type": "address"
						},
						{
							"indexed": false,
							"internalType": "uint256",
							"name": "iznosA",
							"type": "uint256"
						},
						{
							"indexed": false,
							"internalType": "uint256",
							"name": "iznosB",
							"type": "uint256"
						}
					],
					"name": "LikvidnostPovucena",
					"type": "event"
				},
				{
					"anonymous": false,
					"inputs": [
						{
							"indexed": true,
							"internalType": "address",
							"name": "korisnik",
							"type": "address"
						},
						{
							"indexed": false,
							"internalType": "string",
							"name": "smjer",
							"type": "string"
						},
						{
							"indexed": false,
							"internalType": "uint256",
							"name": "iznosUlaz",
							"type": "uint256"
						},
						{
							"indexed": false,
							"internalType": "uint256",
							"name": "iznosIzlaz",
							"type": "uint256"
						}
					],
					"name": "Swap",
					"type": "event"
				},
				{
					"inputs": [
						{
							"internalType": "uint256",
							"name": "_iznosA",
							"type": "uint256"
						},
						{
							"internalType": "uint256",
							"name": "_iznosB",
							"type": "uint256"
						}
					],
					"name": "dodajLikvidnost",
					"outputs": [],
					"stateMutability": "nonpayable",
					"type": "function"
				},
				{
					"inputs": [
						{
							"internalType": "uint256",
							"name": "_iznosUlaz",
							"type": "uint256"
						},
						{
							"internalType": "uint256",
							"name": "_rezervaUlaz",
							"type": "uint256"
						},
						{
							"internalType": "uint256",
							"name": "_rezervaIzlaz",
							"type": "uint256"
						}
					],
					"name": "izracunajCijenu",
					"outputs": [
						{
							"internalType": "uint256",
							"name": "",
							"type": "uint256"
						}
					],
					"stateMutability": "pure",
					"type": "function"
				},
				{
					"inputs": [
						{
							"internalType": "address",
							"name": "",
							"type": "address"
						}
					],
					"name": "lpUdio",
					"outputs": [
						{
							"internalType": "uint256",
							"name": "",
							"type": "uint256"
						}
					],
					"stateMutability": "view",
					"type": "function"
				},
				{
					"inputs": [],
					"name": "mojLPUdio",
					"outputs": [
						{
							"internalType": "uint256",
							"name": "",
							"type": "uint256"
						}
					],
					"stateMutability": "view",
					"type": "function"
				},
				{
					"inputs": [],
					"name": "owner",
					"outputs": [
						{
							"internalType": "address",
							"name": "",
							"type": "address"
						}
					],
					"stateMutability": "view",
					"type": "function"
				},
				{
					"inputs": [
						{
							"internalType": "uint256",
							"name": "_lpIznos",
							"type": "uint256"
						}
					],
					"name": "povuciLikvidnost",
					"outputs": [],
					"stateMutability": "nonpayable",
					"type": "function"
				},
				{
					"inputs": [],
					"name": "rezervaA",
					"outputs": [
						{
							"internalType": "uint256",
							"name": "",
							"type": "uint256"
						}
					],
					"stateMutability": "view",
					"type": "function"
				},
				{
					"inputs": [],
					"name": "rezervaB",
					"outputs": [
						{
							"internalType": "uint256",
							"name": "",
							"type": "uint256"
						}
					],
					"stateMutability": "view",
					"type": "function"
				},
				{
					"inputs": [],
					"name": "stanjeRezervacija",
					"outputs": [
						{
							"internalType": "uint256",
							"name": "",
							"type": "uint256"
						},
						{
							"internalType": "uint256",
							"name": "",
							"type": "uint256"
						}
					],
					"stateMutability": "view",
					"type": "function"
				},
				{
					"inputs": [
						{
							"internalType": "uint256",
							"name": "_iznosA",
							"type": "uint256"
						}
					],
					"name": "swapAzaB",
					"outputs": [
						{
							"internalType": "uint256",
							"name": "",
							"type": "uint256"
						}
					],
					"stateMutability": "nonpayable",
					"type": "function"
				},
				{
					"inputs": [
						{
							"internalType": "uint256",
							"name": "_iznosB",
							"type": "uint256"
						}
					],
					"name": "swapBzaA",
					"outputs": [
						{
							"internalType": "uint256",
							"name": "",
							"type": "uint256"
						}
					],
					"stateMutability": "nonpayable",
					"type": "function"
				},
				{
					"inputs": [],
					"name": "tokenA",
					"outputs": [
						{
							"internalType": "contract TokenA",
							"name": "",
							"type": "address"
						}
					],
					"stateMutability": "view",
					"type": "function"
				},
				{
					"inputs": [],
					"name": "tokenB",
					"outputs": [
						{
							"internalType": "contract TokenB",
							"name": "",
							"type": "address"
						}
					],
					"stateMutability": "view",
					"type": "function"
				},
				{
					"inputs": [],
					"name": "ukupniLPUdio",
					"outputs": [
						{
							"internalType": "uint256",
							"name": "",
							"type": "uint256"
						}
					],
					"stateMutability": "view",
					"type": "function"
				}
			],
			"devdoc": {
				"kind": "dev",
				"methods": {},
				"version": 1
			},
			"evm": {
				"assembly": "    /* \"contracts/ComplicatedDEX.sol\":110:4832  contract AmmDEX {... */\n  mstore(0x40, 0x80)\n    /* \"contracts/ComplicatedDEX.sol\":654:807  constructor(address _tokenA, address _tokenB) {... */\n  callvalue\n  dup1\n  iszero\n  tag_1\n  jumpi\n  revert(0x00, 0x00)\ntag_1:\n  pop\n  mload(0x40)\n  sub(codesize, bytecodeSize)\n  dup1\n  bytecodeSize\n  dup4\n  codecopy\n  dup2\n  dup2\n  add\n  0x40\n  mstore\n  dup2\n  add\n  swap1\n  tag_2\n  swap2\n  swap1\n  tag_3\n  jump\t// in\ntag_2:\n    /* \"contracts/ComplicatedDEX.sol\":719:729  msg.sender */\n  caller\n    /* \"contracts/ComplicatedDEX.sol\":711:716  owner */\n  0x00\n  0x00\n    /* \"contracts/ComplicatedDEX.sol\":711:729  owner = msg.sender */\n  0x0100\n  exp\n  dup2\n  sload\n  dup2\n  0xffffffffffffffffffffffffffffffffffffffff\n  mul\n  not\n  and\n  swap1\n  dup4\n  0xffffffffffffffffffffffffffffffffffffffff\n  and\n  mul\n  or\n  swap1\n  sstore\n  pop\n    /* \"contracts/ComplicatedDEX.sol\":756:763  _tokenA */\n  dup2\n    /* \"contracts/ComplicatedDEX.sol\":740:746  tokenA */\n  0x01\n  0x00\n    /* \"contracts/ComplicatedDEX.sol\":740:764  tokenA = TokenA(_tokenA) */\n  0x0100\n  exp\n  dup2\n  sload\n  dup2\n  0xffffffffffffffffffffffffffffffffffffffff\n  mul\n  not\n  and\n  swap1\n  dup4\n  0xffffffffffffffffffffffffffffffffffffffff\n  and\n  mul\n  or\n  swap1\n  sstore\n  pop\n    /* \"contracts/ComplicatedDEX.sol\":791:798  _tokenB */\n  dup1\n    /* \"contracts/ComplicatedDEX.sol\":775:781  tokenB */\n  0x02\n  0x00\n    /* \"contracts/ComplicatedDEX.sol\":775:799  tokenB = TokenB(_tokenB) */\n  0x0100\n  exp\n  dup2\n  sload\n  dup2\n  0xffffffffffffffffffffffffffffffffffffffff\n  mul\n  not\n  and\n  swap1\n  dup4\n  0xffffffffffffffffffffffffffffffffffffffff\n  and\n  mul\n  or\n  swap1\n  sstore\n  pop\n    /* \"contracts/ComplicatedDEX.sol\":654:807  constructor(address _tokenA, address _tokenB) {... */\n  pop\n  pop\n    /* \"contracts/ComplicatedDEX.sol\":110:4832  contract AmmDEX {... */\n  jump(tag_6)\n    /* \"#utility.yul\":88:205   */\ntag_8:\n    /* \"#utility.yul\":197:198   */\n  0x00\n    /* \"#utility.yul\":194:195   */\n  0x00\n    /* \"#utility.yul\":187:199   */\n  revert\n    /* \"#utility.yul\":334:460   */\ntag_10:\n    /* \"#utility.yul\":371:378   */\n  0x00\n    /* \"#utility.yul\":411:453   */\n  0xffffffffffffffffffffffffffffffffffffffff\n    /* \"#utility.yul\":404:409   */\n  dup3\n    /* \"#utility.yul\":400:454   */\n  and\n    /* \"#utility.yul\":389:454   */\n  swap1\n  pop\n    /* \"#utility.yul\":334:460   */\n  swap2\n  swap1\n  pop\n  jump\t// out\n    /* \"#utility.yul\":466:562   */\ntag_11:\n    /* \"#utility.yul\":503:510   */\n  0x00\n    /* \"#utility.yul\":532:556   */\n  tag_20\n    /* \"#utility.yul\":550:555   */\n  dup3\n    /* \"#utility.yul\":532:556   */\n  tag_10\n  jump\t// in\ntag_20:\n    /* \"#utility.yul\":521:556   */\n  swap1\n  pop\n    /* \"#utility.yul\":466:562   */\n  swap2\n  swap1\n  pop\n  jump\t// out\n    /* \"#utility.yul\":568:690   */\ntag_12:\n    /* \"#utility.yul\":641:665   */\n  tag_22\n    /* \"#utility.yul\":659:664   */\n  dup2\n    /* \"#utility.yul\":641:665   */\n  tag_11\n  jump\t// in\ntag_22:\n    /* \"#utility.yul\":634:639   */\n  dup2\n    /* \"#utility.yul\":631:666   */\n  eq\n    /* \"#utility.yul\":621:684   */\n  tag_23\n  jumpi\n    /* \"#utility.yul\":680:681   */\n  0x00\n    /* \"#utility.yul\":677:678   */\n  0x00\n    /* \"#utility.yul\":670:682   */\n  revert\n    /* \"#utility.yul\":621:684   */\ntag_23:\n    /* \"#utility.yul\":568:690   */\n  pop\n  jump\t// out\n    /* \"#utility.yul\":696:839   */\ntag_13:\n    /* \"#utility.yul\":753:758   */\n  0x00\n    /* \"#utility.yul\":784:790   */\n  dup2\n    /* \"#utility.yul\":778:791   */\n  mload\n    /* \"#utility.yul\":769:791   */\n  swap1\n  pop\n    /* \"#utility.yul\":800:833   */\n  tag_25\n    /* \"#utility.yul\":827:832   */\n  dup2\n    /* \"#utility.yul\":800:833   */\n  tag_12\n  jump\t// in\ntag_25:\n    /* \"#utility.yul\":696:839   */\n  swap3\n  swap2\n  pop\n  pop\n  jump\t// out\n    /* \"#utility.yul\":845:1352   */\ntag_3:\n    /* \"#utility.yul\":924:930   */\n  0x00\n    /* \"#utility.yul\":932:938   */\n  0x00\n    /* \"#utility.yul\":981:983   */\n  0x40\n    /* \"#utility.yul\":969:978   */\n  dup4\n    /* \"#utility.yul\":960:967   */\n  dup6\n    /* \"#utility.yul\":956:979   */\n  sub\n    /* \"#utility.yul\":952:984   */\n  slt\n    /* \"#utility.yul\":949:1068   */\n  iszero\n  tag_27\n  jumpi\n    /* \"#utility.yul\":987:1066   */\n  tag_28\n  tag_8\n  jump\t// in\ntag_28:\n    /* \"#utility.yul\":949:1068   */\ntag_27:\n    /* \"#utility.yul\":1107:1108   */\n  0x00\n    /* \"#utility.yul\":1132:1196   */\n  tag_29\n    /* \"#utility.yul\":1188:1195   */\n  dup6\n    /* \"#utility.yul\":1179:1185   */\n  dup3\n    /* \"#utility.yul\":1168:1177   */\n  dup7\n    /* \"#utility.yul\":1164:1186   */\n  add\n    /* \"#utility.yul\":1132:1196   */\n  tag_13\n  jump\t// in\ntag_29:\n    /* \"#utility.yul\":1122:1196   */\n  swap3\n  pop\n    /* \"#utility.yul\":1078:1206   */\n  pop\n    /* \"#utility.yul\":1245:1247   */\n  0x20\n    /* \"#utility.yul\":1271:1335   */\n  tag_30\n    /* \"#utility.yul\":1327:1334   */\n  dup6\n    /* \"#utility.yul\":1318:1324   */\n  dup3\n    /* \"#utility.yul\":1307:1316   */\n  dup7\n    /* \"#utility.yul\":1303:1325   */\n  add\n    /* \"#utility.yul\":1271:1335   */\n  tag_13\n  jump\t// in\ntag_30:\n    /* \"#utility.yul\":1261:1335   */\n  swap2\n  pop\n    /* \"#utility.yul\":1216:1345   */\n  pop\n    /* \"#utility.yul\":845:1352   */\n  swap3\n  pop\n  swap3\n  swap1\n  pop\n  jump\t// out\n    /* \"contracts/ComplicatedDEX.sol\":110:4832  contract AmmDEX {... */\ntag_6:\n  dataSize(sub_0)\n  dup1\n  dataOffset(sub_0)\n  0x00\n  codecopy\n  0x00\n  return\nstop\n\nsub_0: assembly {\n        /* \"contracts/ComplicatedDEX.sol\":110:4832  contract AmmDEX {... */\n      mstore(0x40, 0x80)\n      callvalue\n      dup1\n      iszero\n      tag_1\n      jumpi\n      revert(0x00, 0x00)\n    tag_1:\n      pop\n      jumpi(tag_2, lt(calldatasize, 0x04))\n      shr(0xe0, calldataload(0x00))\n      dup1\n      0x5f64b55b\n      gt\n      tag_17\n      jumpi\n      dup1\n      0xa9f5d5ed\n      gt\n      tag_18\n      jumpi\n      dup1\n      0xa9f5d5ed\n      eq\n      tag_13\n      jumpi\n      dup1\n      0xb66e94ed\n      eq\n      tag_14\n      jumpi\n      dup1\n      0xc5365c1b\n      eq\n      tag_15\n      jumpi\n      dup1\n      0xca4a1b8f\n      eq\n      tag_16\n      jumpi\n      jump(tag_2)\n    tag_18:\n      dup1\n      0x5f64b55b\n      eq\n      tag_10\n      jumpi\n      dup1\n      0x6e7c13b6\n      eq\n      tag_11\n      jumpi\n      dup1\n      0x8da5cb5b\n      eq\n      tag_12\n      jumpi\n      jump(tag_2)\n    tag_17:\n      dup1\n      0x1f67316e\n      gt\n      tag_19\n      jumpi\n      dup1\n      0x1f67316e\n      eq\n      tag_6\n      jumpi\n      dup1\n      0x2e84046b\n      eq\n      tag_7\n      jumpi\n      dup1\n      0x3064c16c\n      eq\n      tag_8\n      jumpi\n      dup1\n      0x529e0ada\n      eq\n      tag_9\n      jumpi\n      jump(tag_2)\n    tag_19:\n      dup1\n      0x0c5a7c84\n      eq\n      tag_3\n      jumpi\n      dup1\n      0x0fc63d10\n      eq\n      tag_4\n      jumpi\n      dup1\n      0x128540c9\n      eq\n      tag_5\n      jumpi\n    tag_2:\n      revert(0x00, 0x00)\n        /* \"contracts/ComplicatedDEX.sol\":1693:2389  function povuciLikvidnost(uint256 _lpIznos) public {... */\n    tag_3:\n      tag_20\n      0x04\n      dup1\n      calldatasize\n      sub\n      dup2\n      add\n      swap1\n      tag_21\n      swap2\n      swap1\n      tag_22\n      jump\t// in\n    tag_21:\n      tag_23\n      jump\t// in\n    tag_20:\n      stop\n        /* \"contracts/ComplicatedDEX.sol\":160:180  TokenA public tokenA */\n    tag_4:\n      tag_24\n      tag_25\n      jump\t// in\n    tag_24:\n      mload(0x40)\n      tag_26\n      swap2\n      swap1\n      tag_27\n      jump\t// in\n    tag_26:\n      mload(0x40)\n      dup1\n      swap2\n      sub\n      swap1\n      return\n        /* \"contracts/ComplicatedDEX.sol\":216:239  uint256 public rezervaA */\n    tag_5:\n      tag_28\n      tag_29\n      jump\t// in\n    tag_28:\n      mload(0x40)\n      tag_30\n      swap2\n      swap1\n      tag_31\n      jump\t// in\n    tag_30:\n      mload(0x40)\n      dup1\n      swap2\n      sub\n      swap1\n      return\n        /* \"contracts/ComplicatedDEX.sol\":2422:3207  function swapAzaB(uint256 _iznosA) public returns (uint256) {... */\n    tag_6:\n      tag_32\n      0x04\n      dup1\n      calldatasize\n      sub\n      dup2\n      add\n      swap1\n      tag_33\n      swap2\n      swap1\n      tag_22\n      jump\t// in\n    tag_33:\n      tag_34\n      jump\t// in\n    tag_32:\n      mload(0x40)\n      tag_35\n      swap2\n      swap1\n      tag_31\n      jump\t// in\n    tag_35:\n      mload(0x40)\n      dup1\n      swap2\n      sub\n      swap1\n      return\n        /* \"contracts/ComplicatedDEX.sol\":4734:4829  function mojLPUdio() public view returns (uint256) {... */\n    tag_7:\n      tag_36\n      tag_37\n      jump\t// in\n    tag_36:\n      mload(0x40)\n      tag_38\n      swap2\n      swap1\n      tag_31\n      jump\t// in\n    tag_38:\n      mload(0x40)\n      dup1\n      swap2\n      sub\n      swap1\n      return\n        /* \"contracts/ComplicatedDEX.sol\":246:269  uint256 public rezervaB */\n    tag_8:\n      tag_39\n      tag_40\n      jump\t// in\n    tag_39:\n      mload(0x40)\n      tag_41\n      swap2\n      swap1\n      tag_31\n      jump\t// in\n    tag_41:\n      mload(0x40)\n      dup1\n      swap2\n      sub\n      swap1\n      return\n        /* \"contracts/ComplicatedDEX.sol\":4081:4527  function izracunajCijenu(uint256 _iznosUlaz, uint256 _rezervaUlaz, uint256 _rezervaIzlaz)... */\n    tag_9:\n      tag_42\n      0x04\n      dup1\n      calldatasize\n      sub\n      dup2\n      add\n      swap1\n      tag_43\n      swap2\n      swap1\n      tag_44\n      jump\t// in\n    tag_43:\n      tag_45\n      jump\t// in\n    tag_42:\n      mload(0x40)\n      tag_46\n      swap2\n      swap1\n      tag_31\n      jump\t// in\n    tag_46:\n      mload(0x40)\n      dup1\n      swap2\n      sub\n      swap1\n      return\n        /* \"contracts/ComplicatedDEX.sol\":187:207  TokenB public tokenB */\n    tag_10:\n      tag_47\n      tag_48\n      jump\t// in\n    tag_47:\n      mload(0x40)\n      tag_49\n      swap2\n      swap1\n      tag_50\n      jump\t// in\n    tag_49:\n      mload(0x40)\n      dup1\n      swap2\n      sub\n      swap1\n      return\n        /* \"contracts/ComplicatedDEX.sol\":326:353  uint256 public ukupniLPUdio */\n    tag_11:\n      tag_51\n      tag_52\n      jump\t// in\n    tag_51:\n      mload(0x40)\n      tag_53\n      swap2\n      swap1\n      tag_31\n      jump\t// in\n    tag_53:\n      mload(0x40)\n      dup1\n      swap2\n      sub\n      swap1\n      return\n        /* \"contracts/ComplicatedDEX.sol\":133:153  address public owner */\n    tag_12:\n      tag_54\n      tag_55\n      jump\t// in\n    tag_54:\n      mload(0x40)\n      tag_56\n      swap2\n      swap1\n      tag_57\n      jump\t// in\n    tag_56:\n      mload(0x40)\n      dup1\n      swap2\n      sub\n      swap1\n      return\n        /* \"contracts/ComplicatedDEX.sol\":853:1643  function dodajLikvidnost(uint256 _iznosA, uint256 _iznosB) public {... */\n    tag_13:\n      tag_58\n      0x04\n      dup1\n      calldatasize\n      sub\n      dup2\n      add\n      swap1\n      tag_59\n      swap2\n      swap1\n      tag_60\n      jump\t// in\n    tag_59:\n      tag_61\n      jump\t// in\n    tag_58:\n      stop\n        /* \"contracts/ComplicatedDEX.sol\":278:319  mapping(address => uint256) public lpUdio */\n    tag_14:\n      tag_62\n      0x04\n      dup1\n      calldatasize\n      sub\n      dup2\n      add\n      swap1\n      tag_63\n      swap2\n      swap1\n      tag_64\n      jump\t// in\n    tag_63:\n      tag_65\n      jump\t// in\n    tag_62:\n      mload(0x40)\n      tag_66\n      swap2\n      swap1\n      tag_31\n      jump\t// in\n    tag_66:\n      mload(0x40)\n      dup1\n      swap2\n      sub\n      swap1\n      return\n        /* \"contracts/ComplicatedDEX.sol\":4575:4689  function stanjeRezervacija() public view returns (uint256, uint256) {... */\n    tag_15:\n      tag_67\n      tag_68\n      jump\t// in\n    tag_67:\n      mload(0x40)\n      tag_69\n      swap3\n      swap2\n      swap1\n      tag_70\n      jump\t// in\n    tag_69:\n      mload(0x40)\n      dup1\n      swap2\n      sub\n      swap1\n      return\n        /* \"contracts/ComplicatedDEX.sol\":3240:4025  function swapBzaA(uint256 _iznosB) public returns (uint256) {... */\n    tag_16:\n      tag_71\n      0x04\n      dup1\n      calldatasize\n      sub\n      dup2\n      add\n      swap1\n      tag_72\n      swap2\n      swap1\n      tag_22\n      jump\t// in\n    tag_72:\n      tag_73\n      jump\t// in\n    tag_71:\n      mload(0x40)\n      tag_74\n      swap2\n      swap1\n      tag_31\n      jump\t// in\n    tag_74:\n      mload(0x40)\n      dup1\n      swap2\n      sub\n      swap1\n      return\n        /* \"contracts/ComplicatedDEX.sol\":1693:2389  function povuciLikvidnost(uint256 _lpIznos) public {... */\n    tag_23:\n        /* \"contracts/ComplicatedDEX.sol\":1774:1775  0 */\n      0x00\n        /* \"contracts/ComplicatedDEX.sol\":1763:1771  _lpIznos */\n      dup2\n        /* \"contracts/ComplicatedDEX.sol\":1763:1775  _lpIznos > 0 */\n      gt\n        /* \"contracts/ComplicatedDEX.sol\":1755:1805  require(_lpIznos > 0, \"Iznos mora biti veci od 0\") */\n      tag_76\n      jumpi\n      mload(0x40)\n      0x08c379a000000000000000000000000000000000000000000000000000000000\n      dup2\n      mstore\n      0x04\n      add\n      tag_77\n      swap1\n      tag_78\n      jump\t// in\n    tag_77:\n      mload(0x40)\n      dup1\n      swap2\n      sub\n      swap1\n      revert\n    tag_76:\n        /* \"contracts/ComplicatedDEX.sol\":1846:1854  _lpIznos */\n      dup1\n        /* \"contracts/ComplicatedDEX.sol\":1824:1830  lpUdio */\n      0x05\n        /* \"contracts/ComplicatedDEX.sol\":1824:1842  lpUdio[msg.sender] */\n      0x00\n        /* \"contracts/ComplicatedDEX.sol\":1831:1841  msg.sender */\n      caller\n        /* \"contracts/ComplicatedDEX.sol\":1824:1842  lpUdio[msg.sender] */\n      0xffffffffffffffffffffffffffffffffffffffff\n      and\n      0xffffffffffffffffffffffffffffffffffffffff\n      and\n      dup2\n      mstore\n      0x20\n      add\n      swap1\n      dup2\n      mstore\n      0x20\n      add\n      0x00\n      keccak256\n      sload\n        /* \"contracts/ComplicatedDEX.sol\":1824:1854  lpUdio[msg.sender] >= _lpIznos */\n      lt\n      iszero\n        /* \"contracts/ComplicatedDEX.sol\":1816:1879  require(lpUdio[msg.sender] >= _lpIznos, \"Nedovoljno LP udjela\") */\n      tag_79\n      jumpi\n      mload(0x40)\n      0x08c379a000000000000000000000000000000000000000000000000000000000\n      dup2\n      mstore\n      0x04\n      add\n      tag_80\n      swap1\n      tag_81\n      jump\t// in\n    tag_80:\n      mload(0x40)\n      dup1\n      swap2\n      sub\n      swap1\n      revert\n    tag_79:\n        /* \"contracts/ComplicatedDEX.sol\":1892:1906  uint256 iznosA */\n      0x00\n        /* \"contracts/ComplicatedDEX.sol\":1933:1945  ukupniLPUdio */\n      sload(0x06)\n        /* \"contracts/ComplicatedDEX.sol\":1921:1929  rezervaA */\n      sload(0x03)\n        /* \"contracts/ComplicatedDEX.sol\":1910:1918  _lpIznos */\n      dup4\n        /* \"contracts/ComplicatedDEX.sol\":1910:1929  _lpIznos * rezervaA */\n      tag_82\n      swap2\n      swap1\n      tag_83\n      jump\t// in\n    tag_82:\n        /* \"contracts/ComplicatedDEX.sol\":1909:1945  (_lpIznos * rezervaA) / ukupniLPUdio */\n      tag_84\n      swap2\n      swap1\n      tag_85\n      jump\t// in\n    tag_84:\n        /* \"contracts/ComplicatedDEX.sol\":1892:1945  uint256 iznosA = (_lpIznos * rezervaA) / ukupniLPUdio */\n      swap1\n      pop\n        /* \"contracts/ComplicatedDEX.sol\":1956:1970  uint256 iznosB */\n      0x00\n        /* \"contracts/ComplicatedDEX.sol\":1997:2009  ukupniLPUdio */\n      sload(0x06)\n        /* \"contracts/ComplicatedDEX.sol\":1985:1993  rezervaB */\n      sload(0x04)\n        /* \"contracts/ComplicatedDEX.sol\":1974:1982  _lpIznos */\n      dup5\n        /* \"contracts/ComplicatedDEX.sol\":1974:1993  _lpIznos * rezervaB */\n      tag_86\n      swap2\n      swap1\n      tag_83\n      jump\t// in\n    tag_86:\n        /* \"contracts/ComplicatedDEX.sol\":1973:2009  (_lpIznos * rezervaB) / ukupniLPUdio */\n      tag_87\n      swap2\n      swap1\n      tag_85\n      jump\t// in\n    tag_87:\n        /* \"contracts/ComplicatedDEX.sol\":1956:2009  uint256 iznosB = (_lpIznos * rezervaB) / ukupniLPUdio */\n      swap1\n      pop\n        /* \"contracts/ComplicatedDEX.sol\":2039:2040  0 */\n      0x00\n        /* \"contracts/ComplicatedDEX.sol\":2030:2036  iznosA */\n      dup3\n        /* \"contracts/ComplicatedDEX.sol\":2030:2040  iznosA > 0 */\n      gt\n        /* \"contracts/ComplicatedDEX.sol\":2030:2054  iznosA > 0 && iznosB > 0 */\n      dup1\n      iszero\n      tag_88\n      jumpi\n      pop\n        /* \"contracts/ComplicatedDEX.sol\":2053:2054  0 */\n      0x00\n        /* \"contracts/ComplicatedDEX.sol\":2044:2050  iznosB */\n      dup2\n        /* \"contracts/ComplicatedDEX.sol\":2044:2054  iznosB > 0 */\n      gt\n        /* \"contracts/ComplicatedDEX.sol\":2030:2054  iznosA > 0 && iznosB > 0 */\n    tag_88:\n        /* \"contracts/ComplicatedDEX.sol\":2022:2087  require(iznosA > 0 && iznosB > 0, \"Iznos povlacenja je prenizak\") */\n      tag_89\n      jumpi\n      mload(0x40)\n      0x08c379a000000000000000000000000000000000000000000000000000000000\n      dup2\n      mstore\n      0x04\n      add\n      tag_90\n      swap1\n      tag_91\n      jump\t// in\n    tag_90:\n      mload(0x40)\n      dup1\n      swap2\n      sub\n      swap1\n      revert\n    tag_89:\n        /* \"contracts/ComplicatedDEX.sol\":2122:2130  _lpIznos */\n      dup3\n        /* \"contracts/ComplicatedDEX.sol\":2100:2106  lpUdio */\n      0x05\n        /* \"contracts/ComplicatedDEX.sol\":2100:2118  lpUdio[msg.sender] */\n      0x00\n        /* \"contracts/ComplicatedDEX.sol\":2107:2117  msg.sender */\n      caller\n        /* \"contracts/ComplicatedDEX.sol\":2100:2118  lpUdio[msg.sender] */\n      0xffffffffffffffffffffffffffffffffffffffff\n      and\n      0xffffffffffffffffffffffffffffffffffffffff\n      and\n      dup2\n      mstore\n      0x20\n      add\n      swap1\n      dup2\n      mstore\n      0x20\n      add\n      0x00\n      keccak256\n      0x00\n        /* \"contracts/ComplicatedDEX.sol\":2100:2130  lpUdio[msg.sender] -= _lpIznos */\n      dup3\n      dup3\n      sload\n      tag_92\n      swap2\n      swap1\n      tag_93\n      jump\t// in\n    tag_92:\n      swap3\n      pop\n      pop\n      dup2\n      swap1\n      sstore\n      pop\n        /* \"contracts/ComplicatedDEX.sol\":2157:2165  _lpIznos */\n      dup3\n        /* \"contracts/ComplicatedDEX.sol\":2141:2153  ukupniLPUdio */\n      0x06\n      0x00\n        /* \"contracts/ComplicatedDEX.sol\":2141:2165  ukupniLPUdio -= _lpIznos */\n      dup3\n      dup3\n      sload\n      tag_94\n      swap2\n      swap1\n      tag_93\n      jump\t// in\n    tag_94:\n      swap3\n      pop\n      pop\n      dup2\n      swap1\n      sstore\n      pop\n        /* \"contracts/ComplicatedDEX.sol\":2188:2194  iznosA */\n      dup2\n        /* \"contracts/ComplicatedDEX.sol\":2176:2184  rezervaA */\n      0x03\n      0x00\n        /* \"contracts/ComplicatedDEX.sol\":2176:2194  rezervaA -= iznosA */\n      dup3\n      dup3\n      sload\n      tag_95\n      swap2\n      swap1\n      tag_93\n      jump\t// in\n    tag_95:\n      swap3\n      pop\n      pop\n      dup2\n      swap1\n      sstore\n      pop\n        /* \"contracts/ComplicatedDEX.sol\":2217:2223  iznosB */\n      dup1\n        /* \"contracts/ComplicatedDEX.sol\":2205:2213  rezervaB */\n      0x04\n      0x00\n        /* \"contracts/ComplicatedDEX.sol\":2205:2223  rezervaB -= iznosB */\n      dup3\n      dup3\n      sload\n      tag_96\n      swap2\n      swap1\n      tag_93\n      jump\t// in\n    tag_96:\n      swap3\n      pop\n      pop\n      dup2\n      swap1\n      sstore\n      pop\n        /* \"contracts/ComplicatedDEX.sol\":2236:2242  tokenA */\n      0x01\n      0x00\n      swap1\n      sload\n      swap1\n      0x0100\n      exp\n      swap1\n      div\n      0xffffffffffffffffffffffffffffffffffffffff\n      and\n        /* \"contracts/ComplicatedDEX.sol\":2236:2251  tokenA.transfer */\n      0xffffffffffffffffffffffffffffffffffffffff\n      and\n      0xa9059cbb\n        /* \"contracts/ComplicatedDEX.sol\":2252:2262  msg.sender */\n      caller\n        /* \"contracts/ComplicatedDEX.sol\":2264:2270  iznosA */\n      dup5\n        /* \"contracts/ComplicatedDEX.sol\":2236:2271  tokenA.transfer(msg.sender, iznosA) */\n      mload(0x40)\n      dup4\n      0xffffffff\n      and\n      0xe0\n      shl\n      dup2\n      mstore\n      0x04\n      add\n      tag_97\n      swap3\n      swap2\n      swap1\n      tag_98\n      jump\t// in\n    tag_97:\n      0x20\n      mload(0x40)\n      dup1\n      dup4\n      sub\n      dup2\n      0x00\n      dup8\n      gas\n      call\n      iszero\n      dup1\n      iszero\n      tag_100\n      jumpi\n      returndatacopy(0x00, 0x00, returndatasize)\n      revert(0x00, returndatasize)\n    tag_100:\n      pop\n      pop\n      pop\n      pop\n      mload(0x40)\n      returndatasize\n      not(0x1f)\n      0x1f\n      dup3\n      add\n      and\n      dup3\n      add\n      dup1\n      0x40\n      mstore\n      pop\n      dup2\n      add\n      swap1\n      tag_101\n      swap2\n      swap1\n      tag_102\n      jump\t// in\n    tag_101:\n      pop\n        /* \"contracts/ComplicatedDEX.sol\":2282:2288  tokenB */\n      0x02\n      0x00\n      swap1\n      sload\n      swap1\n      0x0100\n      exp\n      swap1\n      div\n      0xffffffffffffffffffffffffffffffffffffffff\n      and\n        /* \"contracts/ComplicatedDEX.sol\":2282:2297  tokenB.transfer */\n      0xffffffffffffffffffffffffffffffffffffffff\n      and\n      0xa9059cbb\n        /* \"contracts/ComplicatedDEX.sol\":2298:2308  msg.sender */\n      caller\n        /* \"contracts/ComplicatedDEX.sol\":2310:2316  iznosB */\n      dup4\n        /* \"contracts/ComplicatedDEX.sol\":2282:2317  tokenB.transfer(msg.sender, iznosB) */\n      mload(0x40)\n      dup4\n      0xffffffff\n      and\n      0xe0\n      shl\n      dup2\n      mstore\n      0x04\n      add\n      tag_103\n      swap3\n      swap2\n      swap1\n      tag_98\n      jump\t// in\n    tag_103:\n      0x20\n      mload(0x40)\n      dup1\n      dup4\n      sub\n      dup2\n      0x00\n      dup8\n      gas\n      call\n      iszero\n      dup1\n      iszero\n      tag_105\n      jumpi\n      returndatacopy(0x00, 0x00, returndatasize)\n      revert(0x00, returndatasize)\n    tag_105:\n      pop\n      pop\n      pop\n      pop\n      mload(0x40)\n      returndatasize\n      not(0x1f)\n      0x1f\n      dup3\n      add\n      and\n      dup3\n      add\n      dup1\n      0x40\n      mstore\n      pop\n      dup2\n      add\n      swap1\n      tag_106\n      swap2\n      swap1\n      tag_102\n      jump\t// in\n    tag_106:\n      pop\n        /* \"contracts/ComplicatedDEX.sol\":2354:2364  msg.sender */\n      caller\n        /* \"contracts/ComplicatedDEX.sol\":2335:2381  LikvidnostPovucena(msg.sender, iznosA, iznosB) */\n      0xffffffffffffffffffffffffffffffffffffffff\n      and\n      0x055bf8c843779aaaeaf90154d7b411b5232ee8b87d532c142c862e26cda5b351\n        /* \"contracts/ComplicatedDEX.sol\":2366:2372  iznosA */\n      dup4\n        /* \"contracts/ComplicatedDEX.sol\":2374:2380  iznosB */\n      dup4\n        /* \"contracts/ComplicatedDEX.sol\":2335:2381  LikvidnostPovucena(msg.sender, iznosA, iznosB) */\n      mload(0x40)\n      tag_107\n      swap3\n      swap2\n      swap1\n      tag_70\n      jump\t// in\n    tag_107:\n      mload(0x40)\n      dup1\n      swap2\n      sub\n      swap1\n      log2\n        /* \"contracts/ComplicatedDEX.sol\":1744:2389  {... */\n      pop\n      pop\n        /* \"contracts/ComplicatedDEX.sol\":1693:2389  function povuciLikvidnost(uint256 _lpIznos) public {... */\n      pop\n      jump\t// out\n        /* \"contracts/ComplicatedDEX.sol\":160:180  TokenA public tokenA */\n    tag_25:\n      0x01\n      0x00\n      swap1\n      sload\n      swap1\n      0x0100\n      exp\n      swap1\n      div\n      0xffffffffffffffffffffffffffffffffffffffff\n      and\n      dup2\n      jump\t// out\n        /* \"contracts/ComplicatedDEX.sol\":216:239  uint256 public rezervaA */\n    tag_29:\n      sload(0x03)\n      dup2\n      jump\t// out\n        /* \"contracts/ComplicatedDEX.sol\":2422:3207  function swapAzaB(uint256 _iznosA) public returns (uint256) {... */\n    tag_34:\n        /* \"contracts/ComplicatedDEX.sol\":2473:2480  uint256 */\n      0x00\n        /* \"contracts/ComplicatedDEX.sol\":2511:2512  0 */\n      0x00\n        /* \"contracts/ComplicatedDEX.sol\":2501:2508  _iznosA */\n      dup3\n        /* \"contracts/ComplicatedDEX.sol\":2501:2512  _iznosA > 0 */\n      gt\n        /* \"contracts/ComplicatedDEX.sol\":2493:2542  require(_iznosA > 0, \"Iznos mora biti veci od 0\") */\n      tag_109\n      jumpi\n      mload(0x40)\n      0x08c379a000000000000000000000000000000000000000000000000000000000\n      dup2\n      mstore\n      0x04\n      add\n      tag_110\n      swap1\n      tag_78\n      jump\t// in\n    tag_110:\n      mload(0x40)\n      dup1\n      swap2\n      sub\n      swap1\n      revert\n    tag_109:\n        /* \"contracts/ComplicatedDEX.sol\":2572:2573  0 */\n      0x00\n        /* \"contracts/ComplicatedDEX.sol\":2561:2569  rezervaA */\n      sload(0x03)\n        /* \"contracts/ComplicatedDEX.sol\":2561:2573  rezervaA > 0 */\n      gt\n        /* \"contracts/ComplicatedDEX.sol\":2561:2589  rezervaA > 0 && rezervaB > 0 */\n      dup1\n      iszero\n      tag_111\n      jumpi\n      pop\n        /* \"contracts/ComplicatedDEX.sol\":2588:2589  0 */\n      0x00\n        /* \"contracts/ComplicatedDEX.sol\":2577:2585  rezervaB */\n      sload(0x04)\n        /* \"contracts/ComplicatedDEX.sol\":2577:2589  rezervaB > 0 */\n      gt\n        /* \"contracts/ComplicatedDEX.sol\":2561:2589  rezervaA > 0 && rezervaB > 0 */\n    tag_111:\n        /* \"contracts/ComplicatedDEX.sol\":2553:2609  require(rezervaA > 0 && rezervaB > 0, \"Bazen je prazan\") */\n      tag_112\n      jumpi\n      mload(0x40)\n      0x08c379a000000000000000000000000000000000000000000000000000000000\n      dup2\n      mstore\n      0x04\n      add\n      tag_113\n      swap1\n      tag_114\n      jump\t// in\n    tag_113:\n      mload(0x40)\n      dup1\n      swap2\n      sub\n      swap1\n      revert\n    tag_112:\n        /* \"contracts/ComplicatedDEX.sol\":2668:2694  uint256 iznosANakonNaknade */\n      0x00\n        /* \"contracts/ComplicatedDEX.sol\":2707:2710  997 */\n      0x03e5\n        /* \"contracts/ComplicatedDEX.sol\":2697:2704  _iznosA */\n      dup4\n        /* \"contracts/ComplicatedDEX.sol\":2697:2710  _iznosA * 997 */\n      tag_115\n      swap2\n      swap1\n      tag_83\n      jump\t// in\n    tag_115:\n        /* \"contracts/ComplicatedDEX.sol\":2668:2710  uint256 iznosANakonNaknade = _iznosA * 997 */\n      swap1\n      pop\n        /* \"contracts/ComplicatedDEX.sol\":2721:2735  uint256 iznosB */\n      0x00\n        /* \"contracts/ComplicatedDEX.sol\":2791:2809  iznosANakonNaknade */\n      dup2\n        /* \"contracts/ComplicatedDEX.sol\":2784:2788  1000 */\n      0x03e8\n        /* \"contracts/ComplicatedDEX.sol\":2773:2781  rezervaA */\n      sload(0x03)\n        /* \"contracts/ComplicatedDEX.sol\":2773:2788  rezervaA * 1000 */\n      tag_116\n      swap2\n      swap1\n      tag_83\n      jump\t// in\n    tag_116:\n        /* \"contracts/ComplicatedDEX.sol\":2773:2809  rezervaA * 1000 + iznosANakonNaknade */\n      tag_117\n      swap2\n      swap1\n      tag_118\n      jump\t// in\n    tag_117:\n        /* \"contracts/ComplicatedDEX.sol\":2750:2768  iznosANakonNaknade */\n      dup3\n        /* \"contracts/ComplicatedDEX.sol\":2739:2747  rezervaB */\n      sload(0x04)\n        /* \"contracts/ComplicatedDEX.sol\":2739:2768  rezervaB * iznosANakonNaknade */\n      tag_119\n      swap2\n      swap1\n      tag_83\n      jump\t// in\n    tag_119:\n        /* \"contracts/ComplicatedDEX.sol\":2738:2810  (rezervaB * iznosANakonNaknade) / (rezervaA * 1000 + iznosANakonNaknade) */\n      tag_120\n      swap2\n      swap1\n      tag_85\n      jump\t// in\n    tag_120:\n        /* \"contracts/ComplicatedDEX.sol\":2721:2810  uint256 iznosB = (rezervaB * iznosANakonNaknade) / (rezervaA * 1000 + iznosANakonNaknade) */\n      swap1\n      pop\n        /* \"contracts/ComplicatedDEX.sol\":2840:2841  0 */\n      0x00\n        /* \"contracts/ComplicatedDEX.sol\":2831:2837  iznosB */\n      dup2\n        /* \"contracts/ComplicatedDEX.sol\":2831:2841  iznosB > 0 */\n      gt\n        /* \"contracts/ComplicatedDEX.sol\":2823:2871  require(iznosB > 0, \"Iznos zamjene je prenizak\") */\n      tag_121\n      jumpi\n      mload(0x40)\n      0x08c379a000000000000000000000000000000000000000000000000000000000\n      dup2\n      mstore\n      0x04\n      add\n      tag_122\n      swap1\n      tag_123\n      jump\t// in\n    tag_122:\n      mload(0x40)\n      dup1\n      swap2\n      sub\n      swap1\n      revert\n    tag_121:\n        /* \"contracts/ComplicatedDEX.sol\":2902:2908  iznosB */\n      dup1\n        /* \"contracts/ComplicatedDEX.sol\":2890:2898  rezervaB */\n      sload(0x04)\n        /* \"contracts/ComplicatedDEX.sol\":2890:2908  rezervaB >= iznosB */\n      lt\n      iszero\n        /* \"contracts/ComplicatedDEX.sol\":2882:2935  require(rezervaB >= iznosB, \"Nedovoljno rezervi TKB\") */\n      tag_124\n      jumpi\n      mload(0x40)\n      0x08c379a000000000000000000000000000000000000000000000000000000000\n      dup2\n      mstore\n      0x04\n      add\n      tag_125\n      swap1\n      tag_126\n      jump\t// in\n    tag_125:\n      mload(0x40)\n      dup1\n      swap2\n      sub\n      swap1\n      revert\n    tag_124:\n        /* \"contracts/ComplicatedDEX.sol\":2948:2954  tokenA */\n      0x01\n      0x00\n      swap1\n      sload\n      swap1\n      0x0100\n      exp\n      swap1\n      div\n      0xffffffffffffffffffffffffffffffffffffffff\n      and\n        /* \"contracts/ComplicatedDEX.sol\":2948:2967  tokenA.transferFrom */\n      0xffffffffffffffffffffffffffffffffffffffff\n      and\n      0x23b872dd\n        /* \"contracts/ComplicatedDEX.sol\":2968:2978  msg.sender */\n      caller\n        /* \"contracts/ComplicatedDEX.sol\":2988:2992  this */\n      address\n        /* \"contracts/ComplicatedDEX.sol\":2995:3002  _iznosA */\n      dup8\n        /* \"contracts/ComplicatedDEX.sol\":2948:3003  tokenA.transferFrom(msg.sender, address(this), _iznosA) */\n      mload(0x40)\n      dup5\n      0xffffffff\n      and\n      0xe0\n      shl\n      dup2\n      mstore\n      0x04\n      add\n      tag_127\n      swap4\n      swap3\n      swap2\n      swap1\n      tag_128\n      jump\t// in\n    tag_127:\n      0x20\n      mload(0x40)\n      dup1\n      dup4\n      sub\n      dup2\n      0x00\n      dup8\n      gas\n      call\n      iszero\n      dup1\n      iszero\n      tag_130\n      jumpi\n      returndatacopy(0x00, 0x00, returndatasize)\n      revert(0x00, returndatasize)\n    tag_130:\n      pop\n      pop\n      pop\n      pop\n      mload(0x40)\n      returndatasize\n      not(0x1f)\n      0x1f\n      dup3\n      add\n      and\n      dup3\n      add\n      dup1\n      0x40\n      mstore\n      pop\n      dup2\n      add\n      swap1\n      tag_131\n      swap2\n      swap1\n      tag_102\n      jump\t// in\n    tag_131:\n      pop\n        /* \"contracts/ComplicatedDEX.sol\":3014:3020  tokenB */\n      0x02\n      0x00\n      swap1\n      sload\n      swap1\n      0x0100\n      exp\n      swap1\n      div\n      0xffffffffffffffffffffffffffffffffffffffff\n      and\n        /* \"contracts/ComplicatedDEX.sol\":3014:3029  tokenB.transfer */\n      0xffffffffffffffffffffffffffffffffffffffff\n      and\n      0xa9059cbb\n        /* \"contracts/ComplicatedDEX.sol\":3030:3040  msg.sender */\n      caller\n        /* \"contracts/ComplicatedDEX.sol\":3042:3048  iznosB */\n      dup4\n        /* \"contracts/ComplicatedDEX.sol\":3014:3049  tokenB.transfer(msg.sender, iznosB) */\n      mload(0x40)\n      dup4\n      0xffffffff\n      and\n      0xe0\n      shl\n      dup2\n      mstore\n      0x04\n      add\n      tag_132\n      swap3\n      swap2\n      swap1\n      tag_98\n      jump\t// in\n    tag_132:\n      0x20\n      mload(0x40)\n      dup1\n      dup4\n      sub\n      dup2\n      0x00\n      dup8\n      gas\n      call\n      iszero\n      dup1\n      iszero\n      tag_134\n      jumpi\n      returndatacopy(0x00, 0x00, returndatasize)\n      revert(0x00, returndatasize)\n    tag_134:\n      pop\n      pop\n      pop\n      pop\n      mload(0x40)\n      returndatasize\n      not(0x1f)\n      0x1f\n      dup3\n      add\n      and\n      dup3\n      add\n      dup1\n      0x40\n      mstore\n      pop\n      dup2\n      add\n      swap1\n      tag_135\n      swap2\n      swap1\n      tag_102\n      jump\t// in\n    tag_135:\n      pop\n        /* \"contracts/ComplicatedDEX.sol\":3074:3081  _iznosA */\n      dup4\n        /* \"contracts/ComplicatedDEX.sol\":3062:3070  rezervaA */\n      0x03\n      0x00\n        /* \"contracts/ComplicatedDEX.sol\":3062:3081  rezervaA += _iznosA */\n      dup3\n      dup3\n      sload\n      tag_136\n      swap2\n      swap1\n      tag_118\n      jump\t// in\n    tag_136:\n      swap3\n      pop\n      pop\n      dup2\n      swap1\n      sstore\n      pop\n        /* \"contracts/ComplicatedDEX.sol\":3104:3110  iznosB */\n      dup1\n        /* \"contracts/ComplicatedDEX.sol\":3092:3100  rezervaB */\n      0x04\n      0x00\n        /* \"contracts/ComplicatedDEX.sol\":3092:3110  rezervaB -= iznosB */\n      dup3\n      dup3\n      sload\n      tag_137\n      swap2\n      swap1\n      tag_93\n      jump\t// in\n    tag_137:\n      swap3\n      pop\n      pop\n      dup2\n      swap1\n      sstore\n      pop\n        /* \"contracts/ComplicatedDEX.sol\":3133:3143  msg.sender */\n      caller\n        /* \"contracts/ComplicatedDEX.sol\":3128:3175  Swap(msg.sender, \"TKA -> TKB\", _iznosA, iznosB) */\n      0xffffffffffffffffffffffffffffffffffffffff\n      and\n      0xd6fc4a38a3a3702d8fb16d699f0581d9d0ba09223b03c76aebd61831fe696f50\n        /* \"contracts/ComplicatedDEX.sol\":3159:3166  _iznosA */\n      dup6\n        /* \"contracts/ComplicatedDEX.sol\":3168:3174  iznosB */\n      dup4\n        /* \"contracts/ComplicatedDEX.sol\":3128:3175  Swap(msg.sender, \"TKA -> TKB\", _iznosA, iznosB) */\n      mload(0x40)\n      tag_138\n      swap3\n      swap2\n      swap1\n      tag_139\n      jump\t// in\n    tag_138:\n      mload(0x40)\n      dup1\n      swap2\n      sub\n      swap1\n      log2\n        /* \"contracts/ComplicatedDEX.sol\":3193:3199  iznosB */\n      dup1\n        /* \"contracts/ComplicatedDEX.sol\":3186:3199  return iznosB */\n      swap3\n      pop\n      pop\n      pop\n        /* \"contracts/ComplicatedDEX.sol\":2422:3207  function swapAzaB(uint256 _iznosA) public returns (uint256) {... */\n      swap2\n      swap1\n      pop\n      jump\t// out\n        /* \"contracts/ComplicatedDEX.sol\":4734:4829  function mojLPUdio() public view returns (uint256) {... */\n    tag_37:\n        /* \"contracts/ComplicatedDEX.sol\":4776:4783  uint256 */\n      0x00\n        /* \"contracts/ComplicatedDEX.sol\":4803:4809  lpUdio */\n      0x05\n        /* \"contracts/ComplicatedDEX.sol\":4803:4821  lpUdio[msg.sender] */\n      0x00\n        /* \"contracts/ComplicatedDEX.sol\":4810:4820  msg.sender */\n      caller\n        /* \"contracts/ComplicatedDEX.sol\":4803:4821  lpUdio[msg.sender] */\n      0xffffffffffffffffffffffffffffffffffffffff\n      and\n      0xffffffffffffffffffffffffffffffffffffffff\n      and\n      dup2\n      mstore\n      0x20\n      add\n      swap1\n      dup2\n      mstore\n      0x20\n      add\n      0x00\n      keccak256\n      sload\n        /* \"contracts/ComplicatedDEX.sol\":4796:4821  return lpUdio[msg.sender] */\n      swap1\n      pop\n        /* \"contracts/ComplicatedDEX.sol\":4734:4829  function mojLPUdio() public view returns (uint256) {... */\n      swap1\n      jump\t// out\n        /* \"contracts/ComplicatedDEX.sol\":246:269  uint256 public rezervaB */\n    tag_40:\n      sload(0x04)\n      dup2\n      jump\t// out\n        /* \"contracts/ComplicatedDEX.sol\":4081:4527  function izracunajCijenu(uint256 _iznosUlaz, uint256 _rezervaUlaz, uint256 _rezervaIzlaz)... */\n    tag_45:\n        /* \"contracts/ComplicatedDEX.sol\":4201:4208  uint256 */\n      0x00\n        /* \"contracts/ComplicatedDEX.sol\":4247:4248  0 */\n      0x00\n        /* \"contracts/ComplicatedDEX.sol\":4234:4244  _iznosUlaz */\n      dup5\n        /* \"contracts/ComplicatedDEX.sol\":4234:4248  _iznosUlaz > 0 */\n      gt\n        /* \"contracts/ComplicatedDEX.sol\":4226:4278  require(_iznosUlaz > 0, \"Iznos mora biti veci od 0\") */\n      tag_142\n      jumpi\n      mload(0x40)\n      0x08c379a000000000000000000000000000000000000000000000000000000000\n      dup2\n      mstore\n      0x04\n      add\n      tag_143\n      swap1\n      tag_78\n      jump\t// in\n    tag_143:\n      mload(0x40)\n      dup1\n      swap2\n      sub\n      swap1\n      revert\n    tag_142:\n        /* \"contracts/ComplicatedDEX.sol\":4312:4313  0 */\n      0x00\n        /* \"contracts/ComplicatedDEX.sol\":4297:4309  _rezervaUlaz */\n      dup4\n        /* \"contracts/ComplicatedDEX.sol\":4297:4313  _rezervaUlaz > 0 */\n      gt\n        /* \"contracts/ComplicatedDEX.sol\":4297:4334  _rezervaUlaz > 0 && _rezervaIzlaz > 0 */\n      dup1\n      iszero\n      tag_144\n      jumpi\n      pop\n        /* \"contracts/ComplicatedDEX.sol\":4333:4334  0 */\n      0x00\n        /* \"contracts/ComplicatedDEX.sol\":4317:4330  _rezervaIzlaz */\n      dup3\n        /* \"contracts/ComplicatedDEX.sol\":4317:4334  _rezervaIzlaz > 0 */\n      gt\n        /* \"contracts/ComplicatedDEX.sol\":4297:4334  _rezervaUlaz > 0 && _rezervaIzlaz > 0 */\n    tag_144:\n        /* \"contracts/ComplicatedDEX.sol\":4289:4368  require(_rezervaUlaz > 0 && _rezervaIzlaz > 0, \"Rezerve moraju biti vece od 0\") */\n      tag_145\n      jumpi\n      mload(0x40)\n      0x08c379a000000000000000000000000000000000000000000000000000000000\n      dup2\n      mstore\n      0x04\n      add\n      tag_146\n      swap1\n      tag_147\n      jump\t// in\n    tag_146:\n      mload(0x40)\n      dup1\n      swap2\n      sub\n      swap1\n      revert\n    tag_145:\n        /* \"contracts/ComplicatedDEX.sol\":4381:4405  uint256 ulazNakonNaknade */\n      0x00\n        /* \"contracts/ComplicatedDEX.sol\":4421:4424  997 */\n      0x03e5\n        /* \"contracts/ComplicatedDEX.sol\":4408:4418  _iznosUlaz */\n      dup6\n        /* \"contracts/ComplicatedDEX.sol\":4408:4424  _iznosUlaz * 997 */\n      tag_148\n      swap2\n      swap1\n      tag_83\n      jump\t// in\n    tag_148:\n        /* \"contracts/ComplicatedDEX.sol\":4381:4424  uint256 ulazNakonNaknade = _iznosUlaz * 997 */\n      swap1\n      pop\n        /* \"contracts/ComplicatedDEX.sol\":4502:4518  ulazNakonNaknade */\n      dup1\n        /* \"contracts/ComplicatedDEX.sol\":4495:4499  1000 */\n      0x03e8\n        /* \"contracts/ComplicatedDEX.sol\":4480:4492  _rezervaUlaz */\n      dup6\n        /* \"contracts/ComplicatedDEX.sol\":4480:4499  _rezervaUlaz * 1000 */\n      tag_149\n      swap2\n      swap1\n      tag_83\n      jump\t// in\n    tag_149:\n        /* \"contracts/ComplicatedDEX.sol\":4480:4518  _rezervaUlaz * 1000 + ulazNakonNaknade */\n      tag_150\n      swap2\n      swap1\n      tag_118\n      jump\t// in\n    tag_150:\n        /* \"contracts/ComplicatedDEX.sol\":4459:4475  ulazNakonNaknade */\n      dup2\n        /* \"contracts/ComplicatedDEX.sol\":4443:4456  _rezervaIzlaz */\n      dup5\n        /* \"contracts/ComplicatedDEX.sol\":4443:4475  _rezervaIzlaz * ulazNakonNaknade */\n      tag_151\n      swap2\n      swap1\n      tag_83\n      jump\t// in\n    tag_151:\n        /* \"contracts/ComplicatedDEX.sol\":4442:4519  (_rezervaIzlaz * ulazNakonNaknade) / (_rezervaUlaz * 1000 + ulazNakonNaknade) */\n      tag_152\n      swap2\n      swap1\n      tag_85\n      jump\t// in\n    tag_152:\n        /* \"contracts/ComplicatedDEX.sol\":4435:4519  return (_rezervaIzlaz * ulazNakonNaknade) / (_rezervaUlaz * 1000 + ulazNakonNaknade) */\n      swap2\n      pop\n      pop\n        /* \"contracts/ComplicatedDEX.sol\":4081:4527  function izracunajCijenu(uint256 _iznosUlaz, uint256 _rezervaUlaz, uint256 _rezervaIzlaz)... */\n      swap4\n      swap3\n      pop\n      pop\n      pop\n      jump\t// out\n        /* \"contracts/ComplicatedDEX.sol\":187:207  TokenB public tokenB */\n    tag_48:\n      0x02\n      0x00\n      swap1\n      sload\n      swap1\n      0x0100\n      exp\n      swap1\n      div\n      0xffffffffffffffffffffffffffffffffffffffff\n      and\n      dup2\n      jump\t// out\n        /* \"contracts/ComplicatedDEX.sol\":326:353  uint256 public ukupniLPUdio */\n    tag_52:\n      sload(0x06)\n      dup2\n      jump\t// out\n        /* \"contracts/ComplicatedDEX.sol\":133:153  address public owner */\n    tag_55:\n      0x00\n      0x00\n      swap1\n      sload\n      swap1\n      0x0100\n      exp\n      swap1\n      div\n      0xffffffffffffffffffffffffffffffffffffffff\n      and\n      dup2\n      jump\t// out\n        /* \"contracts/ComplicatedDEX.sol\":853:1643  function dodajLikvidnost(uint256 _iznosA, uint256 _iznosB) public {... */\n    tag_61:\n        /* \"contracts/ComplicatedDEX.sol\":948:949  0 */\n      0x00\n        /* \"contracts/ComplicatedDEX.sol\":938:945  _iznosA */\n      dup3\n        /* \"contracts/ComplicatedDEX.sol\":938:949  _iznosA > 0 */\n      gt\n        /* \"contracts/ComplicatedDEX.sol\":938:964  _iznosA > 0 && _iznosB > 0 */\n      dup1\n      iszero\n      tag_154\n      jumpi\n      pop\n        /* \"contracts/ComplicatedDEX.sol\":963:964  0 */\n      0x00\n        /* \"contracts/ComplicatedDEX.sol\":953:960  _iznosB */\n      dup2\n        /* \"contracts/ComplicatedDEX.sol\":953:964  _iznosB > 0 */\n      gt\n        /* \"contracts/ComplicatedDEX.sol\":938:964  _iznosA > 0 && _iznosB > 0 */\n    tag_154:\n        /* \"contracts/ComplicatedDEX.sol\":930:997  require(_iznosA > 0 && _iznosB > 0, \"Iznosi moraju biti veci od 0\") */\n      tag_155\n      jumpi\n      mload(0x40)\n      0x08c379a000000000000000000000000000000000000000000000000000000000\n      dup2\n      mstore\n      0x04\n      add\n      tag_156\n      swap1\n      tag_157\n      jump\t// in\n    tag_156:\n      mload(0x40)\n      dup1\n      swap2\n      sub\n      swap1\n      revert\n    tag_155:\n        /* \"contracts/ComplicatedDEX.sol\":1010:1016  tokenA */\n      0x01\n      0x00\n      swap1\n      sload\n      swap1\n      0x0100\n      exp\n      swap1\n      div\n      0xffffffffffffffffffffffffffffffffffffffff\n      and\n        /* \"contracts/ComplicatedDEX.sol\":1010:1029  tokenA.transferFrom */\n      0xffffffffffffffffffffffffffffffffffffffff\n      and\n      0x23b872dd\n        /* \"contracts/ComplicatedDEX.sol\":1030:1040  msg.sender */\n      caller\n        /* \"contracts/ComplicatedDEX.sol\":1050:1054  this */\n      address\n        /* \"contracts/ComplicatedDEX.sol\":1057:1064  _iznosA */\n      dup6\n        /* \"contracts/ComplicatedDEX.sol\":1010:1065  tokenA.transferFrom(msg.sender, address(this), _iznosA) */\n      mload(0x40)\n      dup5\n      0xffffffff\n      and\n      0xe0\n      shl\n      dup2\n      mstore\n      0x04\n      add\n      tag_158\n      swap4\n      swap3\n      swap2\n      swap1\n      tag_128\n      jump\t// in\n    tag_158:\n      0x20\n      mload(0x40)\n      dup1\n      dup4\n      sub\n      dup2\n      0x00\n      dup8\n      gas\n      call\n      iszero\n      dup1\n      iszero\n      tag_160\n      jumpi\n      returndatacopy(0x00, 0x00, returndatasize)\n      revert(0x00, returndatasize)\n    tag_160:\n      pop\n      pop\n      pop\n      pop\n      mload(0x40)\n      returndatasize\n      not(0x1f)\n      0x1f\n      dup3\n      add\n      and\n      dup3\n      add\n      dup1\n      0x40\n      mstore\n      pop\n      dup2\n      add\n      swap1\n      tag_161\n      swap2\n      swap1\n      tag_102\n      jump\t// in\n    tag_161:\n      pop\n        /* \"contracts/ComplicatedDEX.sol\":1076:1082  tokenB */\n      0x02\n      0x00\n      swap1\n      sload\n      swap1\n      0x0100\n      exp\n      swap1\n      div\n      0xffffffffffffffffffffffffffffffffffffffff\n      and\n        /* \"contracts/ComplicatedDEX.sol\":1076:1095  tokenB.transferFrom */\n      0xffffffffffffffffffffffffffffffffffffffff\n      and\n      0x23b872dd\n        /* \"contracts/ComplicatedDEX.sol\":1096:1106  msg.sender */\n      caller\n        /* \"contracts/ComplicatedDEX.sol\":1116:1120  this */\n      address\n        /* \"contracts/ComplicatedDEX.sol\":1123:1130  _iznosB */\n      dup5\n        /* \"contracts/ComplicatedDEX.sol\":1076:1131  tokenB.transferFrom(msg.sender, address(this), _iznosB) */\n      mload(0x40)\n      dup5\n      0xffffffff\n      and\n      0xe0\n      shl\n      dup2\n      mstore\n      0x04\n      add\n      tag_162\n      swap4\n      swap3\n      swap2\n      swap1\n      tag_128\n      jump\t// in\n    tag_162:\n      0x20\n      mload(0x40)\n      dup1\n      dup4\n      sub\n      dup2\n      0x00\n      dup8\n      gas\n      call\n      iszero\n      dup1\n      iszero\n      tag_164\n      jumpi\n      returndatacopy(0x00, 0x00, returndatasize)\n      revert(0x00, returndatasize)\n    tag_164:\n      pop\n      pop\n      pop\n      pop\n      mload(0x40)\n      returndatasize\n      not(0x1f)\n      0x1f\n      dup3\n      add\n      and\n      dup3\n      add\n      dup1\n      0x40\n      mstore\n      pop\n      dup2\n      add\n      swap1\n      tag_165\n      swap2\n      swap1\n      tag_102\n      jump\t// in\n    tag_165:\n      pop\n        /* \"contracts/ComplicatedDEX.sol\":1144:1158  uint256 noviLP */\n      0x00\n        /* \"contracts/ComplicatedDEX.sol\":1189:1190  0 */\n      0x00\n        /* \"contracts/ComplicatedDEX.sol\":1173:1185  ukupniLPUdio */\n      sload(0x06)\n        /* \"contracts/ComplicatedDEX.sol\":1173:1190  ukupniLPUdio == 0 */\n      sub\n        /* \"contracts/ComplicatedDEX.sol\":1169:1430  if (ukupniLPUdio == 0) {... */\n      tag_166\n      jumpi\n        /* \"contracts/ComplicatedDEX.sol\":1270:1277  _iznosB */\n      dup2\n        /* \"contracts/ComplicatedDEX.sol\":1260:1267  _iznosA */\n      dup4\n        /* \"contracts/ComplicatedDEX.sol\":1260:1277  _iznosA + _iznosB */\n      tag_167\n      swap2\n      swap1\n      tag_118\n      jump\t// in\n    tag_167:\n        /* \"contracts/ComplicatedDEX.sol\":1251:1277  noviLP = _iznosA + _iznosB */\n      swap1\n      pop\n        /* \"contracts/ComplicatedDEX.sol\":1169:1430  if (ukupniLPUdio == 0) {... */\n      jump(tag_168)\n    tag_166:\n        /* \"contracts/ComplicatedDEX.sol\":1410:1418  rezervaA */\n      sload(0x03)\n        /* \"contracts/ComplicatedDEX.sol\":1394:1406  ukupniLPUdio */\n      sload(0x06)\n        /* \"contracts/ComplicatedDEX.sol\":1384:1391  _iznosA */\n      dup5\n        /* \"contracts/ComplicatedDEX.sol\":1384:1406  _iznosA * ukupniLPUdio */\n      tag_169\n      swap2\n      swap1\n      tag_83\n      jump\t// in\n    tag_169:\n        /* \"contracts/ComplicatedDEX.sol\":1383:1418  (_iznosA * ukupniLPUdio) / rezervaA */\n      tag_170\n      swap2\n      swap1\n      tag_85\n      jump\t// in\n    tag_170:\n        /* \"contracts/ComplicatedDEX.sol\":1374:1418  noviLP = (_iznosA * ukupniLPUdio) / rezervaA */\n      swap1\n      pop\n        /* \"contracts/ComplicatedDEX.sol\":1169:1430  if (ukupniLPUdio == 0) {... */\n    tag_168:\n        /* \"contracts/ComplicatedDEX.sol\":1464:1470  noviLP */\n      dup1\n        /* \"contracts/ComplicatedDEX.sol\":1442:1448  lpUdio */\n      0x05\n        /* \"contracts/ComplicatedDEX.sol\":1442:1460  lpUdio[msg.sender] */\n      0x00\n        /* \"contracts/ComplicatedDEX.sol\":1449:1459  msg.sender */\n      caller\n        /* \"contracts/ComplicatedDEX.sol\":1442:1460  lpUdio[msg.sender] */\n      0xffffffffffffffffffffffffffffffffffffffff\n      and\n      0xffffffffffffffffffffffffffffffffffffffff\n      and\n      dup2\n      mstore\n      0x20\n      add\n      swap1\n      dup2\n      mstore\n      0x20\n      add\n      0x00\n      keccak256\n      0x00\n        /* \"contracts/ComplicatedDEX.sol\":1442:1470  lpUdio[msg.sender] += noviLP */\n      dup3\n      dup3\n      sload\n      tag_171\n      swap2\n      swap1\n      tag_118\n      jump\t// in\n    tag_171:\n      swap3\n      pop\n      pop\n      dup2\n      swap1\n      sstore\n      pop\n        /* \"contracts/ComplicatedDEX.sol\":1497:1503  noviLP */\n      dup1\n        /* \"contracts/ComplicatedDEX.sol\":1481:1493  ukupniLPUdio */\n      0x06\n      0x00\n        /* \"contracts/ComplicatedDEX.sol\":1481:1503  ukupniLPUdio += noviLP */\n      dup3\n      dup3\n      sload\n      tag_172\n      swap2\n      swap1\n      tag_118\n      jump\t// in\n    tag_172:\n      swap3\n      pop\n      pop\n      dup2\n      swap1\n      sstore\n      pop\n        /* \"contracts/ComplicatedDEX.sol\":1526:1533  _iznosA */\n      dup3\n        /* \"contracts/ComplicatedDEX.sol\":1514:1522  rezervaA */\n      0x03\n      0x00\n        /* \"contracts/ComplicatedDEX.sol\":1514:1533  rezervaA += _iznosA */\n      dup3\n      dup3\n      sload\n      tag_173\n      swap2\n      swap1\n      tag_118\n      jump\t// in\n    tag_173:\n      swap3\n      pop\n      pop\n      dup2\n      swap1\n      sstore\n      pop\n        /* \"contracts/ComplicatedDEX.sol\":1556:1563  _iznosB */\n      dup2\n        /* \"contracts/ComplicatedDEX.sol\":1544:1552  rezervaB */\n      0x04\n      0x00\n        /* \"contracts/ComplicatedDEX.sol\":1544:1563  rezervaB += _iznosB */\n      dup3\n      dup3\n      sload\n      tag_174\n      swap2\n      swap1\n      tag_118\n      jump\t// in\n    tag_174:\n      swap3\n      pop\n      pop\n      dup2\n      swap1\n      sstore\n      pop\n        /* \"contracts/ComplicatedDEX.sol\":1598:1608  msg.sender */\n      caller\n        /* \"contracts/ComplicatedDEX.sol\":1581:1635  LikvidnostDodana(msg.sender, _iznosA, _iznosB, noviLP) */\n      0xffffffffffffffffffffffffffffffffffffffff\n      and\n      0xfbc3652f26c817763b292ba5c345286f709ee38227938acf66a96e9893e95ce8\n        /* \"contracts/ComplicatedDEX.sol\":1610:1617  _iznosA */\n      dup5\n        /* \"contracts/ComplicatedDEX.sol\":1619:1626  _iznosB */\n      dup5\n        /* \"contracts/ComplicatedDEX.sol\":1628:1634  noviLP */\n      dup5\n        /* \"contracts/ComplicatedDEX.sol\":1581:1635  LikvidnostDodana(msg.sender, _iznosA, _iznosB, noviLP) */\n      mload(0x40)\n      tag_175\n      swap4\n      swap3\n      swap2\n      swap1\n      tag_176\n      jump\t// in\n    tag_175:\n      mload(0x40)\n      dup1\n      swap2\n      sub\n      swap1\n      log2\n        /* \"contracts/ComplicatedDEX.sol\":919:1643  {... */\n      pop\n        /* \"contracts/ComplicatedDEX.sol\":853:1643  function dodajLikvidnost(uint256 _iznosA, uint256 _iznosB) public {... */\n      pop\n      pop\n      jump\t// out\n        /* \"contracts/ComplicatedDEX.sol\":278:319  mapping(address => uint256) public lpUdio */\n    tag_65:\n      mstore(0x20, 0x05)\n      dup1\n      0x00\n      mstore\n      keccak256(0x00, 0x40)\n      0x00\n      swap2\n      pop\n      swap1\n      pop\n      sload\n      dup2\n      jump\t// out\n        /* \"contracts/ComplicatedDEX.sol\":4575:4689  function stanjeRezervacija() public view returns (uint256, uint256) {... */\n    tag_68:\n        /* \"contracts/ComplicatedDEX.sol\":4625:4632  uint256 */\n      0x00\n        /* \"contracts/ComplicatedDEX.sol\":4634:4641  uint256 */\n      0x00\n        /* \"contracts/ComplicatedDEX.sol\":4662:4670  rezervaA */\n      sload(0x03)\n        /* \"contracts/ComplicatedDEX.sol\":4672:4680  rezervaB */\n      sload(0x04)\n        /* \"contracts/ComplicatedDEX.sol\":4654:4681  return (rezervaA, rezervaB) */\n      swap2\n      pop\n      swap2\n      pop\n        /* \"contracts/ComplicatedDEX.sol\":4575:4689  function stanjeRezervacija() public view returns (uint256, uint256) {... */\n      swap1\n      swap2\n      jump\t// out\n        /* \"contracts/ComplicatedDEX.sol\":3240:4025  function swapBzaA(uint256 _iznosB) public returns (uint256) {... */\n    tag_73:\n        /* \"contracts/ComplicatedDEX.sol\":3291:3298  uint256 */\n      0x00\n        /* \"contracts/ComplicatedDEX.sol\":3329:3330  0 */\n      0x00\n        /* \"contracts/ComplicatedDEX.sol\":3319:3326  _iznosB */\n      dup3\n        /* \"contracts/ComplicatedDEX.sol\":3319:3330  _iznosB > 0 */\n      gt\n        /* \"contracts/ComplicatedDEX.sol\":3311:3360  require(_iznosB > 0, \"Iznos mora biti veci od 0\") */\n      tag_179\n      jumpi\n      mload(0x40)\n      0x08c379a000000000000000000000000000000000000000000000000000000000\n      dup2\n      mstore\n      0x04\n      add\n      tag_180\n      swap1\n      tag_78\n      jump\t// in\n    tag_180:\n      mload(0x40)\n      dup1\n      swap2\n      sub\n      swap1\n      revert\n    tag_179:\n        /* \"contracts/ComplicatedDEX.sol\":3390:3391  0 */\n      0x00\n        /* \"contracts/ComplicatedDEX.sol\":3379:3387  rezervaA */\n      sload(0x03)\n        /* \"contracts/ComplicatedDEX.sol\":3379:3391  rezervaA > 0 */\n      gt\n        /* \"contracts/ComplicatedDEX.sol\":3379:3407  rezervaA > 0 && rezervaB > 0 */\n      dup1\n      iszero\n      tag_181\n      jumpi\n      pop\n        /* \"contracts/ComplicatedDEX.sol\":3406:3407  0 */\n      0x00\n        /* \"contracts/ComplicatedDEX.sol\":3395:3403  rezervaB */\n      sload(0x04)\n        /* \"contracts/ComplicatedDEX.sol\":3395:3407  rezervaB > 0 */\n      gt\n        /* \"contracts/ComplicatedDEX.sol\":3379:3407  rezervaA > 0 && rezervaB > 0 */\n    tag_181:\n        /* \"contracts/ComplicatedDEX.sol\":3371:3427  require(rezervaA > 0 && rezervaB > 0, \"Bazen je prazan\") */\n      tag_182\n      jumpi\n      mload(0x40)\n      0x08c379a000000000000000000000000000000000000000000000000000000000\n      dup2\n      mstore\n      0x04\n      add\n      tag_183\n      swap1\n      tag_114\n      jump\t// in\n    tag_183:\n      mload(0x40)\n      dup1\n      swap2\n      sub\n      swap1\n      revert\n    tag_182:\n        /* \"contracts/ComplicatedDEX.sol\":3486:3512  uint256 iznosBNakonNaknade */\n      0x00\n        /* \"contracts/ComplicatedDEX.sol\":3525:3528  997 */\n      0x03e5\n        /* \"contracts/ComplicatedDEX.sol\":3515:3522  _iznosB */\n      dup4\n        /* \"contracts/ComplicatedDEX.sol\":3515:3528  _iznosB * 997 */\n      tag_184\n      swap2\n      swap1\n      tag_83\n      jump\t// in\n    tag_184:\n        /* \"contracts/ComplicatedDEX.sol\":3486:3528  uint256 iznosBNakonNaknade = _iznosB * 997 */\n      swap1\n      pop\n        /* \"contracts/ComplicatedDEX.sol\":3539:3553  uint256 iznosA */\n      0x00\n        /* \"contracts/ComplicatedDEX.sol\":3609:3627  iznosBNakonNaknade */\n      dup2\n        /* \"contracts/ComplicatedDEX.sol\":3602:3606  1000 */\n      0x03e8\n        /* \"contracts/ComplicatedDEX.sol\":3591:3599  rezervaB */\n      sload(0x04)\n        /* \"contracts/ComplicatedDEX.sol\":3591:3606  rezervaB * 1000 */\n      tag_185\n      swap2\n      swap1\n      tag_83\n      jump\t// in\n    tag_185:\n        /* \"contracts/ComplicatedDEX.sol\":3591:3627  rezervaB * 1000 + iznosBNakonNaknade */\n      tag_186\n      swap2\n      swap1\n      tag_118\n      jump\t// in\n    tag_186:\n        /* \"contracts/ComplicatedDEX.sol\":3568:3586  iznosBNakonNaknade */\n      dup3\n        /* \"contracts/ComplicatedDEX.sol\":3557:3565  rezervaA */\n      sload(0x03)\n        /* \"contracts/ComplicatedDEX.sol\":3557:3586  rezervaA * iznosBNakonNaknade */\n      tag_187\n      swap2\n      swap1\n      tag_83\n      jump\t// in\n    tag_187:\n        /* \"contracts/ComplicatedDEX.sol\":3556:3628  (rezervaA * iznosBNakonNaknade) / (rezervaB * 1000 + iznosBNakonNaknade) */\n      tag_188\n      swap2\n      swap1\n      tag_85\n      jump\t// in\n    tag_188:\n        /* \"contracts/ComplicatedDEX.sol\":3539:3628  uint256 iznosA = (rezervaA * iznosBNakonNaknade) / (rezervaB * 1000 + iznosBNakonNaknade) */\n      swap1\n      pop\n        /* \"contracts/ComplicatedDEX.sol\":3658:3659  0 */\n      0x00\n        /* \"contracts/ComplicatedDEX.sol\":3649:3655  iznosA */\n      dup2\n        /* \"contracts/ComplicatedDEX.sol\":3649:3659  iznosA > 0 */\n      gt\n        /* \"contracts/ComplicatedDEX.sol\":3641:3689  require(iznosA > 0, \"Iznos zamjene je prenizak\") */\n      tag_189\n      jumpi\n      mload(0x40)\n      0x08c379a000000000000000000000000000000000000000000000000000000000\n      dup2\n      mstore\n      0x04\n      add\n      tag_190\n      swap1\n      tag_123\n      jump\t// in\n    tag_190:\n      mload(0x40)\n      dup1\n      swap2\n      sub\n      swap1\n      revert\n    tag_189:\n        /* \"contracts/ComplicatedDEX.sol\":3720:3726  iznosA */\n      dup1\n        /* \"contracts/ComplicatedDEX.sol\":3708:3716  rezervaA */\n      sload(0x03)\n        /* \"contracts/ComplicatedDEX.sol\":3708:3726  rezervaA >= iznosA */\n      lt\n      iszero\n        /* \"contracts/ComplicatedDEX.sol\":3700:3753  require(rezervaA >= iznosA, \"Nedovoljno rezervi TKA\") */\n      tag_191\n      jumpi\n      mload(0x40)\n      0x08c379a000000000000000000000000000000000000000000000000000000000\n      dup2\n      mstore\n      0x04\n      add\n      tag_192\n      swap1\n      tag_193\n      jump\t// in\n    tag_192:\n      mload(0x40)\n      dup1\n      swap2\n      sub\n      swap1\n      revert\n    tag_191:\n        /* \"contracts/ComplicatedDEX.sol\":3766:3772  tokenB */\n      0x02\n      0x00\n      swap1\n      sload\n      swap1\n      0x0100\n      exp\n      swap1\n      div\n      0xffffffffffffffffffffffffffffffffffffffff\n      and\n        /* \"contracts/ComplicatedDEX.sol\":3766:3785  tokenB.transferFrom */\n      0xffffffffffffffffffffffffffffffffffffffff\n      and\n      0x23b872dd\n        /* \"contracts/ComplicatedDEX.sol\":3786:3796  msg.sender */\n      caller\n        /* \"contracts/ComplicatedDEX.sol\":3806:3810  this */\n      address\n        /* \"contracts/ComplicatedDEX.sol\":3813:3820  _iznosB */\n      dup8\n        /* \"contracts/ComplicatedDEX.sol\":3766:3821  tokenB.transferFrom(msg.sender, address(this), _iznosB) */\n      mload(0x40)\n      dup5\n      0xffffffff\n      and\n      0xe0\n      shl\n      dup2\n      mstore\n      0x04\n      add\n      tag_194\n      swap4\n      swap3\n      swap2\n      swap1\n      tag_128\n      jump\t// in\n    tag_194:\n      0x20\n      mload(0x40)\n      dup1\n      dup4\n      sub\n      dup2\n      0x00\n      dup8\n      gas\n      call\n      iszero\n      dup1\n      iszero\n      tag_196\n      jumpi\n      returndatacopy(0x00, 0x00, returndatasize)\n      revert(0x00, returndatasize)\n    tag_196:\n      pop\n      pop\n      pop\n      pop\n      mload(0x40)\n      returndatasize\n      not(0x1f)\n      0x1f\n      dup3\n      add\n      and\n      dup3\n      add\n      dup1\n      0x40\n      mstore\n      pop\n      dup2\n      add\n      swap1\n      tag_197\n      swap2\n      swap1\n      tag_102\n      jump\t// in\n    tag_197:\n      pop\n        /* \"contracts/ComplicatedDEX.sol\":3832:3838  tokenA */\n      0x01\n      0x00\n      swap1\n      sload\n      swap1\n      0x0100\n      exp\n      swap1\n      div\n      0xffffffffffffffffffffffffffffffffffffffff\n      and\n        /* \"contracts/ComplicatedDEX.sol\":3832:3847  tokenA.transfer */\n      0xffffffffffffffffffffffffffffffffffffffff\n      and\n      0xa9059cbb\n        /* \"contracts/ComplicatedDEX.sol\":3848:3858  msg.sender */\n      caller\n        /* \"contracts/ComplicatedDEX.sol\":3860:3866  iznosA */\n      dup4\n        /* \"contracts/ComplicatedDEX.sol\":3832:3867  tokenA.transfer(msg.sender, iznosA) */\n      mload(0x40)\n      dup4\n      0xffffffff\n      and\n      0xe0\n      shl\n      dup2\n      mstore\n      0x04\n      add\n      tag_198\n      swap3\n      swap2\n      swap1\n      tag_98\n      jump\t// in\n    tag_198:\n      0x20\n      mload(0x40)\n      dup1\n      dup4\n      sub\n      dup2\n      0x00\n      dup8\n      gas\n      call\n      iszero\n      dup1\n      iszero\n      tag_200\n      jumpi\n      returndatacopy(0x00, 0x00, returndatasize)\n      revert(0x00, returndatasize)\n    tag_200:\n      pop\n      pop\n      pop\n      pop\n      mload(0x40)\n      returndatasize\n      not(0x1f)\n      0x1f\n      dup3\n      add\n      and\n      dup3\n      add\n      dup1\n      0x40\n      mstore\n      pop\n      dup2\n      add\n      swap1\n      tag_201\n      swap2\n      swap1\n      tag_102\n      jump\t// in\n    tag_201:\n      pop\n        /* \"contracts/ComplicatedDEX.sol\":3892:3899  _iznosB */\n      dup4\n        /* \"contracts/ComplicatedDEX.sol\":3880:3888  rezervaB */\n      0x04\n      0x00\n        /* \"contracts/ComplicatedDEX.sol\":3880:3899  rezervaB += _iznosB */\n      dup3\n      dup3\n      sload\n      tag_202\n      swap2\n      swap1\n      tag_118\n      jump\t// in\n    tag_202:\n      swap3\n      pop\n      pop\n      dup2\n      swap1\n      sstore\n      pop\n        /* \"contracts/ComplicatedDEX.sol\":3922:3928  iznosA */\n      dup1\n        /* \"contracts/ComplicatedDEX.sol\":3910:3918  rezervaA */\n      0x03\n      0x00\n        /* \"contracts/ComplicatedDEX.sol\":3910:3928  rezervaA -= iznosA */\n      dup3\n      dup3\n      sload\n      tag_203\n      swap2\n      swap1\n      tag_93\n      jump\t// in\n    tag_203:\n      swap3\n      pop\n      pop\n      dup2\n      swap1\n      sstore\n      pop\n        /* \"contracts/ComplicatedDEX.sol\":3951:3961  msg.sender */\n      caller\n        /* \"contracts/ComplicatedDEX.sol\":3946:3993  Swap(msg.sender, \"TKB -> TKA\", _iznosB, iznosA) */\n      0xffffffffffffffffffffffffffffffffffffffff\n      and\n      0xd6fc4a38a3a3702d8fb16d699f0581d9d0ba09223b03c76aebd61831fe696f50\n        /* \"contracts/ComplicatedDEX.sol\":3977:3984  _iznosB */\n      dup6\n        /* \"contracts/ComplicatedDEX.sol\":3986:3992  iznosA */\n      dup4\n        /* \"contracts/ComplicatedDEX.sol\":3946:3993  Swap(msg.sender, \"TKB -> TKA\", _iznosB, iznosA) */\n      mload(0x40)\n      tag_204\n      swap3\n      swap2\n      swap1\n      tag_205\n      jump\t// in\n    tag_204:\n      mload(0x40)\n      dup1\n      swap2\n      sub\n      swap1\n      log2\n        /* \"contracts/ComplicatedDEX.sol\":4011:4017  iznosA */\n      dup1\n        /* \"contracts/ComplicatedDEX.sol\":4004:4017  return iznosA */\n      swap3\n      pop\n      pop\n      pop\n        /* \"contracts/ComplicatedDEX.sol\":3240:4025  function swapBzaA(uint256 _iznosB) public returns (uint256) {... */\n      swap2\n      swap1\n      pop\n      jump\t// out\n        /* \"#utility.yul\":88:205   */\n    tag_207:\n        /* \"#utility.yul\":197:198   */\n      0x00\n        /* \"#utility.yul\":194:195   */\n      0x00\n        /* \"#utility.yul\":187:199   */\n      revert\n        /* \"#utility.yul\":334:411   */\n    tag_209:\n        /* \"#utility.yul\":371:378   */\n      0x00\n        /* \"#utility.yul\":400:405   */\n      dup2\n        /* \"#utility.yul\":389:405   */\n      swap1\n      pop\n        /* \"#utility.yul\":334:411   */\n      swap2\n      swap1\n      pop\n      jump\t// out\n        /* \"#utility.yul\":417:539   */\n    tag_210:\n        /* \"#utility.yul\":490:514   */\n      tag_259\n        /* \"#utility.yul\":508:513   */\n      dup2\n        /* \"#utility.yul\":490:514   */\n      tag_209\n      jump\t// in\n    tag_259:\n        /* \"#utility.yul\":483:488   */\n      dup2\n        /* \"#utility.yul\":480:515   */\n      eq\n        /* \"#utility.yul\":470:533   */\n      tag_260\n      jumpi\n        /* \"#utility.yul\":529:530   */\n      0x00\n        /* \"#utility.yul\":526:527   */\n      0x00\n        /* \"#utility.yul\":519:531   */\n      revert\n        /* \"#utility.yul\":470:533   */\n    tag_260:\n        /* \"#utility.yul\":417:539   */\n      pop\n      jump\t// out\n        /* \"#utility.yul\":545:684   */\n    tag_211:\n        /* \"#utility.yul\":591:596   */\n      0x00\n        /* \"#utility.yul\":629:635   */\n      dup2\n        /* \"#utility.yul\":616:636   */\n      calldataload\n        /* \"#utility.yul\":607:636   */\n      swap1\n      pop\n        /* \"#utility.yul\":645:678   */\n      tag_262\n        /* \"#utility.yul\":672:677   */\n      dup2\n        /* \"#utility.yul\":645:678   */\n      tag_210\n      jump\t// in\n    tag_262:\n        /* \"#utility.yul\":545:684   */\n      swap3\n      swap2\n      pop\n      pop\n      jump\t// out\n        /* \"#utility.yul\":690:1019   */\n    tag_22:\n        /* \"#utility.yul\":749:755   */\n      0x00\n        /* \"#utility.yul\":798:800   */\n      0x20\n        /* \"#utility.yul\":786:795   */\n      dup3\n        /* \"#utility.yul\":777:784   */\n      dup5\n        /* \"#utility.yul\":773:796   */\n      sub\n        /* \"#utility.yul\":769:801   */\n      slt\n        /* \"#utility.yul\":766:885   */\n      iszero\n      tag_264\n      jumpi\n        /* \"#utility.yul\":804:883   */\n      tag_265\n      tag_207\n      jump\t// in\n    tag_265:\n        /* \"#utility.yul\":766:885   */\n    tag_264:\n        /* \"#utility.yul\":924:925   */\n      0x00\n        /* \"#utility.yul\":949:1002   */\n      tag_266\n        /* \"#utility.yul\":994:1001   */\n      dup5\n        /* \"#utility.yul\":985:991   */\n      dup3\n        /* \"#utility.yul\":974:983   */\n      dup6\n        /* \"#utility.yul\":970:992   */\n      add\n        /* \"#utility.yul\":949:1002   */\n      tag_211\n      jump\t// in\n    tag_266:\n        /* \"#utility.yul\":939:1002   */\n      swap2\n      pop\n        /* \"#utility.yul\":895:1012   */\n      pop\n        /* \"#utility.yul\":690:1019   */\n      swap3\n      swap2\n      pop\n      pop\n      jump\t// out\n        /* \"#utility.yul\":1025:1151   */\n    tag_212:\n        /* \"#utility.yul\":1062:1069   */\n      0x00\n        /* \"#utility.yul\":1102:1144   */\n      0xffffffffffffffffffffffffffffffffffffffff\n        /* \"#utility.yul\":1095:1100   */\n      dup3\n        /* \"#utility.yul\":1091:1145   */\n      and\n        /* \"#utility.yul\":1080:1145   */\n      swap1\n      pop\n        /* \"#utility.yul\":1025:1151   */\n      swap2\n      swap1\n      pop\n      jump\t// out\n        /* \"#utility.yul\":1157:1217   */\n    tag_213:\n        /* \"#utility.yul\":1185:1188   */\n      0x00\n        /* \"#utility.yul\":1206:1211   */\n      dup2\n        /* \"#utility.yul\":1199:1211   */\n      swap1\n      pop\n        /* \"#utility.yul\":1157:1217   */\n      swap2\n      swap1\n      pop\n      jump\t// out\n        /* \"#utility.yul\":1223:1365   */\n    tag_214:\n        /* \"#utility.yul\":1273:1282   */\n      0x00\n        /* \"#utility.yul\":1306:1359   */\n      tag_270\n        /* \"#utility.yul\":1324:1358   */\n      tag_271\n        /* \"#utility.yul\":1333:1357   */\n      tag_272\n        /* \"#utility.yul\":1351:1356   */\n      dup5\n        /* \"#utility.yul\":1333:1357   */\n      tag_212\n      jump\t// in\n    tag_272:\n        /* \"#utility.yul\":1324:1358   */\n      tag_213\n      jump\t// in\n    tag_271:\n        /* \"#utility.yul\":1306:1359   */\n      tag_212\n      jump\t// in\n    tag_270:\n        /* \"#utility.yul\":1293:1359   */\n      swap1\n      pop\n        /* \"#utility.yul\":1223:1365   */\n      swap2\n      swap1\n      pop\n      jump\t// out\n        /* \"#utility.yul\":1371:1497   */\n    tag_215:\n        /* \"#utility.yul\":1421:1430   */\n      0x00\n        /* \"#utility.yul\":1454:1491   */\n      tag_274\n        /* \"#utility.yul\":1485:1490   */\n      dup3\n        /* \"#utility.yul\":1454:1491   */\n      tag_214\n      jump\t// in\n    tag_274:\n        /* \"#utility.yul\":1441:1491   */\n      swap1\n      pop\n        /* \"#utility.yul\":1371:1497   */\n      swap2\n      swap1\n      pop\n      jump\t// out\n        /* \"#utility.yul\":1503:1643   */\n    tag_216:\n        /* \"#utility.yul\":1567:1576   */\n      0x00\n        /* \"#utility.yul\":1600:1637   */\n      tag_276\n        /* \"#utility.yul\":1631:1636   */\n      dup3\n        /* \"#utility.yul\":1600:1637   */\n      tag_215\n      jump\t// in\n    tag_276:\n        /* \"#utility.yul\":1587:1637   */\n      swap1\n      pop\n        /* \"#utility.yul\":1503:1643   */\n      swap2\n      swap1\n      pop\n      jump\t// out\n        /* \"#utility.yul\":1649:1808   */\n    tag_217:\n        /* \"#utility.yul\":1750:1801   */\n      tag_278\n        /* \"#utility.yul\":1795:1800   */\n      dup2\n        /* \"#utility.yul\":1750:1801   */\n      tag_216\n      jump\t// in\n    tag_278:\n        /* \"#utility.yul\":1745:1748   */\n      dup3\n        /* \"#utility.yul\":1738:1802   */\n      mstore\n        /* \"#utility.yul\":1649:1808   */\n      pop\n      pop\n      jump\t// out\n        /* \"#utility.yul\":1814:2064   */\n    tag_27:\n        /* \"#utility.yul\":1921:1925   */\n      0x00\n        /* \"#utility.yul\":1959:1961   */\n      0x20\n        /* \"#utility.yul\":1948:1957   */\n      dup3\n        /* \"#utility.yul\":1944:1962   */\n      add\n        /* \"#utility.yul\":1936:1962   */\n      swap1\n      pop\n        /* \"#utility.yul\":1972:2057   */\n      tag_280\n        /* \"#utility.yul\":2054:2055   */\n      0x00\n        /* \"#utility.yul\":2043:2052   */\n      dup4\n        /* \"#utility.yul\":2039:2056   */\n      add\n        /* \"#utility.yul\":2030:2036   */\n      dup5\n        /* \"#utility.yul\":1972:2057   */\n      tag_217\n      jump\t// in\n    tag_280:\n        /* \"#utility.yul\":1814:2064   */\n      swap3\n      swap2\n      pop\n      pop\n      jump\t// out\n        /* \"#utility.yul\":2070:2188   */\n    tag_218:\n        /* \"#utility.yul\":2157:2181   */\n      tag_282\n        /* \"#utility.yul\":2175:2180   */\n      dup2\n        /* \"#utility.yul\":2157:2181   */\n      tag_209\n      jump\t// in\n    tag_282:\n        /* \"#utility.yul\":2152:2155   */\n      dup3\n        /* \"#utility.yul\":2145:2182   */\n      mstore\n        /* \"#utility.yul\":2070:2188   */\n      pop\n      pop\n      jump\t// out\n        /* \"#utility.yul\":2194:2416   */\n    tag_31:\n        /* \"#utility.yul\":2287:2291   */\n      0x00\n        /* \"#utility.yul\":2325:2327   */\n      0x20\n        /* \"#utility.yul\":2314:2323   */\n      dup3\n        /* \"#utility.yul\":2310:2328   */\n      add\n        /* \"#utility.yul\":2302:2328   */\n      swap1\n      pop\n        /* \"#utility.yul\":2338:2409   */\n      tag_284\n        /* \"#utility.yul\":2406:2407   */\n      0x00\n        /* \"#utility.yul\":2395:2404   */\n      dup4\n        /* \"#utility.yul\":2391:2408   */\n      add\n        /* \"#utility.yul\":2382:2388   */\n      dup5\n        /* \"#utility.yul\":2338:2409   */\n      tag_218\n      jump\t// in\n    tag_284:\n        /* \"#utility.yul\":2194:2416   */\n      swap3\n      swap2\n      pop\n      pop\n      jump\t// out\n        /* \"#utility.yul\":2422:3041   */\n    tag_44:\n        /* \"#utility.yul\":2499:2505   */\n      0x00\n        /* \"#utility.yul\":2507:2513   */\n      0x00\n        /* \"#utility.yul\":2515:2521   */\n      0x00\n        /* \"#utility.yul\":2564:2566   */\n      0x60\n        /* \"#utility.yul\":2552:2561   */\n      dup5\n        /* \"#utility.yul\":2543:2550   */\n      dup7\n        /* \"#utility.yul\":2539:2562   */\n      sub\n        /* \"#utility.yul\":2535:2567   */\n      slt\n        /* \"#utility.yul\":2532:2651   */\n      iszero\n      tag_286\n      jumpi\n        /* \"#utility.yul\":2570:2649   */\n      tag_287\n      tag_207\n      jump\t// in\n    tag_287:\n        /* \"#utility.yul\":2532:2651   */\n    tag_286:\n        /* \"#utility.yul\":2690:2691   */\n      0x00\n        /* \"#utility.yul\":2715:2768   */\n      tag_288\n        /* \"#utility.yul\":2760:2767   */\n      dup7\n        /* \"#utility.yul\":2751:2757   */\n      dup3\n        /* \"#utility.yul\":2740:2749   */\n      dup8\n        /* \"#utility.yul\":2736:2758   */\n      add\n        /* \"#utility.yul\":2715:2768   */\n      tag_211\n      jump\t// in\n    tag_288:\n        /* \"#utility.yul\":2705:2768   */\n      swap4\n      pop\n        /* \"#utility.yul\":2661:2778   */\n      pop\n        /* \"#utility.yul\":2817:2819   */\n      0x20\n        /* \"#utility.yul\":2843:2896   */\n      tag_289\n        /* \"#utility.yul\":2888:2895   */\n      dup7\n        /* \"#utility.yul\":2879:2885   */\n      dup3\n        /* \"#utility.yul\":2868:2877   */\n      dup8\n        /* \"#utility.yul\":2864:2886   */\n      add\n        /* \"#utility.yul\":2843:2896   */\n      tag_211\n      jump\t// in\n    tag_289:\n        /* \"#utility.yul\":2833:2896   */\n      swap3\n      pop\n        /* \"#utility.yul\":2788:2906   */\n      pop\n        /* \"#utility.yul\":2945:2947   */\n      0x40\n        /* \"#utility.yul\":2971:3024   */\n      tag_290\n        /* \"#utility.yul\":3016:3023   */\n      dup7\n        /* \"#utility.yul\":3007:3013   */\n      dup3\n        /* \"#utility.yul\":2996:3005   */\n      dup8\n        /* \"#utility.yul\":2992:3014   */\n      add\n        /* \"#utility.yul\":2971:3024   */\n      tag_211\n      jump\t// in\n    tag_290:\n        /* \"#utility.yul\":2961:3024   */\n      swap2\n      pop\n        /* \"#utility.yul\":2916:3034   */\n      pop\n        /* \"#utility.yul\":2422:3041   */\n      swap3\n      pop\n      swap3\n      pop\n      swap3\n      jump\t// out\n        /* \"#utility.yul\":3047:3187   */\n    tag_219:\n        /* \"#utility.yul\":3111:3120   */\n      0x00\n        /* \"#utility.yul\":3144:3181   */\n      tag_292\n        /* \"#utility.yul\":3175:3180   */\n      dup3\n        /* \"#utility.yul\":3144:3181   */\n      tag_215\n      jump\t// in\n    tag_292:\n        /* \"#utility.yul\":3131:3181   */\n      swap1\n      pop\n        /* \"#utility.yul\":3047:3187   */\n      swap2\n      swap1\n      pop\n      jump\t// out\n        /* \"#utility.yul\":3193:3352   */\n    tag_220:\n        /* \"#utility.yul\":3294:3345   */\n      tag_294\n        /* \"#utility.yul\":3339:3344   */\n      dup2\n        /* \"#utility.yul\":3294:3345   */\n      tag_219\n      jump\t// in\n    tag_294:\n        /* \"#utility.yul\":3289:3292   */\n      dup3\n        /* \"#utility.yul\":3282:3346   */\n      mstore\n        /* \"#utility.yul\":3193:3352   */\n      pop\n      pop\n      jump\t// out\n        /* \"#utility.yul\":3358:3608   */\n    tag_50:\n        /* \"#utility.yul\":3465:3469   */\n      0x00\n        /* \"#utility.yul\":3503:3505   */\n      0x20\n        /* \"#utility.yul\":3492:3501   */\n      dup3\n        /* \"#utility.yul\":3488:3506   */\n      add\n        /* \"#utility.yul\":3480:3506   */\n      swap1\n      pop\n        /* \"#utility.yul\":3516:3601   */\n      tag_296\n        /* \"#utility.yul\":3598:3599   */\n      0x00\n        /* \"#utility.yul\":3587:3596   */\n      dup4\n        /* \"#utility.yul\":3583:3600   */\n      add\n        /* \"#utility.yul\":3574:3580   */\n      dup5\n        /* \"#utility.yul\":3516:3601   */\n      tag_220\n      jump\t// in\n    tag_296:\n        /* \"#utility.yul\":3358:3608   */\n      swap3\n      swap2\n      pop\n      pop\n      jump\t// out\n        /* \"#utility.yul\":3614:3710   */\n    tag_221:\n        /* \"#utility.yul\":3651:3658   */\n      0x00\n        /* \"#utility.yul\":3680:3704   */\n      tag_298\n        /* \"#utility.yul\":3698:3703   */\n      dup3\n        /* \"#utility.yul\":3680:3704   */\n      tag_212\n      jump\t// in\n    tag_298:\n        /* \"#utility.yul\":3669:3704   */\n      swap1\n      pop\n        /* \"#utility.yul\":3614:3710   */\n      swap2\n      swap1\n      pop\n      jump\t// out\n        /* \"#utility.yul\":3716:3834   */\n    tag_222:\n        /* \"#utility.yul\":3803:3827   */\n      tag_300\n        /* \"#utility.yul\":3821:3826   */\n      dup2\n        /* \"#utility.yul\":3803:3827   */\n      tag_221\n      jump\t// in\n    tag_300:\n        /* \"#utility.yul\":3798:3801   */\n      dup3\n        /* \"#utility.yul\":3791:3828   */\n      mstore\n        /* \"#utility.yul\":3716:3834   */\n      pop\n      pop\n      jump\t// out\n        /* \"#utility.yul\":3840:4062   */\n    tag_57:\n        /* \"#utility.yul\":3933:3937   */\n      0x00\n        /* \"#utility.yul\":3971:3973   */\n      0x20\n        /* \"#utility.yul\":3960:3969   */\n      dup3\n        /* \"#utility.yul\":3956:3974   */\n      add\n        /* \"#utility.yul\":3948:3974   */\n      swap1\n      pop\n        /* \"#utility.yul\":3984:4055   */\n      tag_302\n        /* \"#utility.yul\":4052:4053   */\n      0x00\n        /* \"#utility.yul\":4041:4050   */\n      dup4\n        /* \"#utility.yul\":4037:4054   */\n      add\n        /* \"#utility.yul\":4028:4034   */\n      dup5\n        /* \"#utility.yul\":3984:4055   */\n      tag_222\n      jump\t// in\n    tag_302:\n        /* \"#utility.yul\":3840:4062   */\n      swap3\n      swap2\n      pop\n      pop\n      jump\t// out\n        /* \"#utility.yul\":4068:4542   */\n    tag_60:\n        /* \"#utility.yul\":4136:4142   */\n      0x00\n        /* \"#utility.yul\":4144:4150   */\n      0x00\n        /* \"#utility.yul\":4193:4195   */\n      0x40\n        /* \"#utility.yul\":4181:4190   */\n      dup4\n        /* \"#utility.yul\":4172:4179   */\n      dup6\n        /* \"#utility.yul\":4168:4191   */\n      sub\n        /* \"#utility.yul\":4164:4196   */\n      slt\n        /* \"#utility.yul\":4161:4280   */\n      iszero\n      tag_304\n      jumpi\n        /* \"#utility.yul\":4199:4278   */\n      tag_305\n      tag_207\n      jump\t// in\n    tag_305:\n        /* \"#utility.yul\":4161:4280   */\n    tag_304:\n        /* \"#utility.yul\":4319:4320   */\n      0x00\n        /* \"#utility.yul\":4344:4397   */\n      tag_306\n        /* \"#utility.yul\":4389:4396   */\n      dup6\n        /* \"#utility.yul\":4380:4386   */\n      dup3\n        /* \"#utility.yul\":4369:4378   */\n      dup7\n        /* \"#utility.yul\":4365:4387   */\n      add\n        /* \"#utility.yul\":4344:4397   */\n      tag_211\n      jump\t// in\n    tag_306:\n        /* \"#utility.yul\":4334:4397   */\n      swap3\n      pop\n        /* \"#utility.yul\":4290:4407   */\n      pop\n        /* \"#utility.yul\":4446:4448   */\n      0x20\n        /* \"#utility.yul\":4472:4525   */\n      tag_307\n        /* \"#utility.yul\":4517:4524   */\n      dup6\n        /* \"#utility.yul\":4508:4514   */\n      dup3\n        /* \"#utility.yul\":4497:4506   */\n      dup7\n        /* \"#utility.yul\":4493:4515   */\n      add\n        /* \"#utility.yul\":4472:4525   */\n      tag_211\n      jump\t// in\n    tag_307:\n        /* \"#utility.yul\":4462:4525   */\n      swap2\n      pop\n        /* \"#utility.yul\":4417:4535   */\n      pop\n        /* \"#utility.yul\":4068:4542   */\n      swap3\n      pop\n      swap3\n      swap1\n      pop\n      jump\t// out\n        /* \"#utility.yul\":4548:4670   */\n    tag_223:\n        /* \"#utility.yul\":4621:4645   */\n      tag_309\n        /* \"#utility.yul\":4639:4644   */\n      dup2\n        /* \"#utility.yul\":4621:4645   */\n      tag_221\n      jump\t// in\n    tag_309:\n        /* \"#utility.yul\":4614:4619   */\n      dup2\n        /* \"#utility.yul\":4611:4646   */\n      eq\n        /* \"#utility.yul\":4601:4664   */\n      tag_310\n      jumpi\n        /* \"#utility.yul\":4660:4661   */\n      0x00\n        /* \"#utility.yul\":4657:4658   */\n      0x00\n        /* \"#utility.yul\":4650:4662   */\n      revert\n        /* \"#utility.yul\":4601:4664   */\n    tag_310:\n        /* \"#utility.yul\":4548:4670   */\n      pop\n      jump\t// out\n        /* \"#utility.yul\":4676:4815   */\n    tag_224:\n        /* \"#utility.yul\":4722:4727   */\n      0x00\n        /* \"#utility.yul\":4760:4766   */\n      dup2\n        /* \"#utility.yul\":4747:4767   */\n      calldataload\n        /* \"#utility.yul\":4738:4767   */\n      swap1\n      pop\n        /* \"#utility.yul\":4776:4809   */\n      tag_312\n        /* \"#utility.yul\":4803:4808   */\n      dup2\n        /* \"#utility.yul\":4776:4809   */\n      tag_223\n      jump\t// in\n    tag_312:\n        /* \"#utility.yul\":4676:4815   */\n      swap3\n      swap2\n      pop\n      pop\n      jump\t// out\n        /* \"#utility.yul\":4821:5150   */\n    tag_64:\n        /* \"#utility.yul\":4880:4886   */\n      0x00\n        /* \"#utility.yul\":4929:4931   */\n      0x20\n        /* \"#utility.yul\":4917:4926   */\n      dup3\n        /* \"#utility.yul\":4908:4915   */\n      dup5\n        /* \"#utility.yul\":4904:4927   */\n      sub\n        /* \"#utility.yul\":4900:4932   */\n      slt\n        /* \"#utility.yul\":4897:5016   */\n      iszero\n      tag_314\n      jumpi\n        /* \"#utility.yul\":4935:5014   */\n      tag_315\n      tag_207\n      jump\t// in\n    tag_315:\n        /* \"#utility.yul\":4897:5016   */\n    tag_314:\n        /* \"#utility.yul\":5055:5056   */\n      0x00\n        /* \"#utility.yul\":5080:5133   */\n      tag_316\n        /* \"#utility.yul\":5125:5132   */\n      dup5\n        /* \"#utility.yul\":5116:5122   */\n      dup3\n        /* \"#utility.yul\":5105:5114   */\n      dup6\n        /* \"#utility.yul\":5101:5123   */\n      add\n        /* \"#utility.yul\":5080:5133   */\n      tag_224\n      jump\t// in\n    tag_316:\n        /* \"#utility.yul\":5070:5133   */\n      swap2\n      pop\n        /* \"#utility.yul\":5026:5143   */\n      pop\n        /* \"#utility.yul\":4821:5150   */\n      swap3\n      swap2\n      pop\n      pop\n      jump\t// out\n        /* \"#utility.yul\":5156:5488   */\n    tag_70:\n        /* \"#utility.yul\":5277:5281   */\n      0x00\n        /* \"#utility.yul\":5315:5317   */\n      0x40\n        /* \"#utility.yul\":5304:5313   */\n      dup3\n        /* \"#utility.yul\":5300:5318   */\n      add\n        /* \"#utility.yul\":5292:5318   */\n      swap1\n      pop\n        /* \"#utility.yul\":5328:5399   */\n      tag_318\n        /* \"#utility.yul\":5396:5397   */\n      0x00\n        /* \"#utility.yul\":5385:5394   */\n      dup4\n        /* \"#utility.yul\":5381:5398   */\n      add\n        /* \"#utility.yul\":5372:5378   */\n      dup6\n        /* \"#utility.yul\":5328:5399   */\n      tag_218\n      jump\t// in\n    tag_318:\n        /* \"#utility.yul\":5409:5481   */\n      tag_319\n        /* \"#utility.yul\":5477:5479   */\n      0x20\n        /* \"#utility.yul\":5466:5475   */\n      dup4\n        /* \"#utility.yul\":5462:5480   */\n      add\n        /* \"#utility.yul\":5453:5459   */\n      dup5\n        /* \"#utility.yul\":5409:5481   */\n      tag_218\n      jump\t// in\n    tag_319:\n        /* \"#utility.yul\":5156:5488   */\n      swap4\n      swap3\n      pop\n      pop\n      pop\n      jump\t// out\n        /* \"#utility.yul\":5494:5663   */\n    tag_225:\n        /* \"#utility.yul\":5578:5589   */\n      0x00\n        /* \"#utility.yul\":5612:5618   */\n      dup3\n        /* \"#utility.yul\":5607:5610   */\n      dup3\n        /* \"#utility.yul\":5600:5619   */\n      mstore\n        /* \"#utility.yul\":5652:5656   */\n      0x20\n        /* \"#utility.yul\":5647:5650   */\n      dup3\n        /* \"#utility.yul\":5643:5657   */\n      add\n        /* \"#utility.yul\":5628:5657   */\n      swap1\n      pop\n        /* \"#utility.yul\":5494:5663   */\n      swap3\n      swap2\n      pop\n      pop\n      jump\t// out\n        /* \"#utility.yul\":5669:5844   */\n    tag_226:\n        /* \"#utility.yul\":5809:5836   */\n      0x497a6e6f73206d6f726120626974692076656369206f64203000000000000000\n        /* \"#utility.yul\":5805:5806   */\n      0x00\n        /* \"#utility.yul\":5797:5803   */\n      dup3\n        /* \"#utility.yul\":5793:5807   */\n      add\n        /* \"#utility.yul\":5786:5837   */\n      mstore\n        /* \"#utility.yul\":5669:5844   */\n      pop\n      jump\t// out\n        /* \"#utility.yul\":5850:6216   */\n    tag_227:\n        /* \"#utility.yul\":5992:5995   */\n      0x00\n        /* \"#utility.yul\":6013:6080   */\n      tag_323\n        /* \"#utility.yul\":6077:6079   */\n      0x19\n        /* \"#utility.yul\":6072:6075   */\n      dup4\n        /* \"#utility.yul\":6013:6080   */\n      tag_225\n      jump\t// in\n    tag_323:\n        /* \"#utility.yul\":6006:6080   */\n      swap2\n      pop\n        /* \"#utility.yul\":6089:6182   */\n      tag_324\n        /* \"#utility.yul\":6178:6181   */\n      dup3\n        /* \"#utility.yul\":6089:6182   */\n      tag_226\n      jump\t// in\n    tag_324:\n        /* \"#utility.yul\":6207:6209   */\n      0x20\n        /* \"#utility.yul\":6202:6205   */\n      dup3\n        /* \"#utility.yul\":6198:6210   */\n      add\n        /* \"#utility.yul\":6191:6210   */\n      swap1\n      pop\n        /* \"#utility.yul\":5850:6216   */\n      swap2\n      swap1\n      pop\n      jump\t// out\n        /* \"#utility.yul\":6222:6641   */\n    tag_78:\n        /* \"#utility.yul\":6388:6392   */\n      0x00\n        /* \"#utility.yul\":6426:6428   */\n      0x20\n        /* \"#utility.yul\":6415:6424   */\n      dup3\n        /* \"#utility.yul\":6411:6429   */\n      add\n        /* \"#utility.yul\":6403:6429   */\n      swap1\n      pop\n        /* \"#utility.yul\":6475:6484   */\n      dup2\n        /* \"#utility.yul\":6469:6473   */\n      dup2\n        /* \"#utility.yul\":6465:6485   */\n      sub\n        /* \"#utility.yul\":6461:6462   */\n      0x00\n        /* \"#utility.yul\":6450:6459   */\n      dup4\n        /* \"#utility.yul\":6446:6463   */\n      add\n        /* \"#utility.yul\":6439:6486   */\n      mstore\n        /* \"#utility.yul\":6503:6634   */\n      tag_326\n        /* \"#utility.yul\":6629:6633   */\n      dup2\n        /* \"#utility.yul\":6503:6634   */\n      tag_227\n      jump\t// in\n    tag_326:\n        /* \"#utility.yul\":6495:6634   */\n      swap1\n      pop\n        /* \"#utility.yul\":6222:6641   */\n      swap2\n      swap1\n      pop\n      jump\t// out\n        /* \"#utility.yul\":6647:6817   */\n    tag_228:\n        /* \"#utility.yul\":6787:6809   */\n      0x4e65646f766f6c6a6e6f204c502075646a656c61000000000000000000000000\n        /* \"#utility.yul\":6783:6784   */\n      0x00\n        /* \"#utility.yul\":6775:6781   */\n      dup3\n        /* \"#utility.yul\":6771:6785   */\n      add\n        /* \"#utility.yul\":6764:6810   */\n      mstore\n        /* \"#utility.yul\":6647:6817   */\n      pop\n      jump\t// out\n        /* \"#utility.yul\":6823:7189   */\n    tag_229:\n        /* \"#utility.yul\":6965:6968   */\n      0x00\n        /* \"#utility.yul\":6986:7053   */\n      tag_329\n        /* \"#utility.yul\":7050:7052   */\n      0x14\n        /* \"#utility.yul\":7045:7048   */\n      dup4\n        /* \"#utility.yul\":6986:7053   */\n      tag_225\n      jump\t// in\n    tag_329:\n        /* \"#utility.yul\":6979:7053   */\n      swap2\n      pop\n        /* \"#utility.yul\":7062:7155   */\n      tag_330\n        /* \"#utility.yul\":7151:7154   */\n      dup3\n        /* \"#utility.yul\":7062:7155   */\n      tag_228\n      jump\t// in\n    tag_330:\n        /* \"#utility.yul\":7180:7182   */\n      0x20\n        /* \"#utility.yul\":7175:7178   */\n      dup3\n        /* \"#utility.yul\":7171:7183   */\n      add\n        /* \"#utility.yul\":7164:7183   */\n      swap1\n      pop\n        /* \"#utility.yul\":6823:7189   */\n      swap2\n      swap1\n      pop\n      jump\t// out\n        /* \"#utility.yul\":7195:7614   */\n    tag_81:\n        /* \"#utility.yul\":7361:7365   */\n      0x00\n        /* \"#utility.yul\":7399:7401   */\n      0x20\n        /* \"#utility.yul\":7388:7397   */\n      dup3\n        /* \"#utility.yul\":7384:7402   */\n      add\n        /* \"#utility.yul\":7376:7402   */\n      swap1\n      pop\n        /* \"#utility.yul\":7448:7457   */\n      dup2\n        /* \"#utility.yul\":7442:7446   */\n      dup2\n        /* \"#utility.yul\":7438:7458   */\n      sub\n        /* \"#utility.yul\":7434:7435   */\n      0x00\n        /* \"#utility.yul\":7423:7432   */\n      dup4\n        /* \"#utility.yul\":7419:7436   */\n      add\n        /* \"#utility.yul\":7412:7459   */\n      mstore\n        /* \"#utility.yul\":7476:7607   */\n      tag_332\n        /* \"#utility.yul\":7602:7606   */\n      dup2\n        /* \"#utility.yul\":7476:7607   */\n      tag_229\n      jump\t// in\n    tag_332:\n        /* \"#utility.yul\":7468:7607   */\n      swap1\n      pop\n        /* \"#utility.yul\":7195:7614   */\n      swap2\n      swap1\n      pop\n      jump\t// out\n        /* \"#utility.yul\":7620:7800   */\n    tag_230:\n        /* \"#utility.yul\":7668:7745   */\n      0x4e487b7100000000000000000000000000000000000000000000000000000000\n        /* \"#utility.yul\":7665:7666   */\n      0x00\n        /* \"#utility.yul\":7658:7746   */\n      mstore\n        /* \"#utility.yul\":7765:7769   */\n      0x11\n        /* \"#utility.yul\":7762:7763   */\n      0x04\n        /* \"#utility.yul\":7755:7770   */\n      mstore\n        /* \"#utility.yul\":7789:7793   */\n      0x24\n        /* \"#utility.yul\":7786:7787   */\n      0x00\n        /* \"#utility.yul\":7779:7794   */\n      revert\n        /* \"#utility.yul\":7806:8216   */\n    tag_83:\n        /* \"#utility.yul\":7846:7853   */\n      0x00\n        /* \"#utility.yul\":7869:7889   */\n      tag_335\n        /* \"#utility.yul\":7887:7888   */\n      dup3\n        /* \"#utility.yul\":7869:7889   */\n      tag_209\n      jump\t// in\n    tag_335:\n        /* \"#utility.yul\":7864:7889   */\n      swap2\n      pop\n        /* \"#utility.yul\":7903:7923   */\n      tag_336\n        /* \"#utility.yul\":7921:7922   */\n      dup4\n        /* \"#utility.yul\":7903:7923   */\n      tag_209\n      jump\t// in\n    tag_336:\n        /* \"#utility.yul\":7898:7923   */\n      swap3\n      pop\n        /* \"#utility.yul\":7958:7959   */\n      dup3\n        /* \"#utility.yul\":7955:7956   */\n      dup3\n        /* \"#utility.yul\":7951:7960   */\n      mul\n        /* \"#utility.yul\":7980:8010   */\n      tag_337\n        /* \"#utility.yul\":7998:8009   */\n      dup2\n        /* \"#utility.yul\":7980:8010   */\n      tag_209\n      jump\t// in\n    tag_337:\n        /* \"#utility.yul\":7969:8010   */\n      swap2\n      pop\n        /* \"#utility.yul\":8159:8160   */\n      dup3\n        /* \"#utility.yul\":8150:8157   */\n      dup3\n        /* \"#utility.yul\":8146:8161   */\n      div\n        /* \"#utility.yul\":8143:8144   */\n      dup5\n        /* \"#utility.yul\":8140:8162   */\n      eq\n        /* \"#utility.yul\":8120:8121   */\n      dup4\n        /* \"#utility.yul\":8113:8122   */\n      iszero\n        /* \"#utility.yul\":8093:8176   */\n      or\n        /* \"#utility.yul\":8070:8209   */\n      tag_338\n      jumpi\n        /* \"#utility.yul\":8189:8207   */\n      tag_339\n      tag_230\n      jump\t// in\n    tag_339:\n        /* \"#utility.yul\":8070:8209   */\n    tag_338:\n        /* \"#utility.yul\":7854:8216   */\n      pop\n        /* \"#utility.yul\":7806:8216   */\n      swap3\n      swap2\n      pop\n      pop\n      jump\t// out\n        /* \"#utility.yul\":8222:8402   */\n    tag_231:\n        /* \"#utility.yul\":8270:8347   */\n      0x4e487b7100000000000000000000000000000000000000000000000000000000\n        /* \"#utility.yul\":8267:8268   */\n      0x00\n        /* \"#utility.yul\":8260:8348   */\n      mstore\n        /* \"#utility.yul\":8367:8371   */\n      0x12\n        /* \"#utility.yul\":8364:8365   */\n      0x04\n        /* \"#utility.yul\":8357:8372   */\n      mstore\n        /* \"#utility.yul\":8391:8395   */\n      0x24\n        /* \"#utility.yul\":8388:8389   */\n      0x00\n        /* \"#utility.yul\":8381:8396   */\n      revert\n        /* \"#utility.yul\":8408:8593   */\n    tag_85:\n        /* \"#utility.yul\":8448:8449   */\n      0x00\n        /* \"#utility.yul\":8465:8485   */\n      tag_342\n        /* \"#utility.yul\":8483:8484   */\n      dup3\n        /* \"#utility.yul\":8465:8485   */\n      tag_209\n      jump\t// in\n    tag_342:\n        /* \"#utility.yul\":8460:8485   */\n      swap2\n      pop\n        /* \"#utility.yul\":8499:8519   */\n      tag_343\n        /* \"#utility.yul\":8517:8518   */\n      dup4\n        /* \"#utility.yul\":8499:8519   */\n      tag_209\n      jump\t// in\n    tag_343:\n        /* \"#utility.yul\":8494:8519   */\n      swap3\n      pop\n        /* \"#utility.yul\":8538:8539   */\n      dup3\n        /* \"#utility.yul\":8528:8563   */\n      tag_344\n      jumpi\n        /* \"#utility.yul\":8543:8561   */\n      tag_345\n      tag_231\n      jump\t// in\n    tag_345:\n        /* \"#utility.yul\":8528:8563   */\n    tag_344:\n        /* \"#utility.yul\":8585:8586   */\n      dup3\n        /* \"#utility.yul\":8582:8583   */\n      dup3\n        /* \"#utility.yul\":8578:8587   */\n      div\n        /* \"#utility.yul\":8573:8587   */\n      swap1\n      pop\n        /* \"#utility.yul\":8408:8593   */\n      swap3\n      swap2\n      pop\n      pop\n      jump\t// out\n        /* \"#utility.yul\":8599:8777   */\n    tag_232:\n        /* \"#utility.yul\":8739:8769   */\n      0x497a6e6f7320706f766c6163656e6a61206a65207072656e697a616b00000000\n        /* \"#utility.yul\":8735:8736   */\n      0x00\n        /* \"#utility.yul\":8727:8733   */\n      dup3\n        /* \"#utility.yul\":8723:8737   */\n      add\n        /* \"#utility.yul\":8716:8770   */\n      mstore\n        /* \"#utility.yul\":8599:8777   */\n      pop\n      jump\t// out\n        /* \"#utility.yul\":8783:9149   */\n    tag_233:\n        /* \"#utility.yul\":8925:8928   */\n      0x00\n        /* \"#utility.yul\":8946:9013   */\n      tag_348\n        /* \"#utility.yul\":9010:9012   */\n      0x1c\n        /* \"#utility.yul\":9005:9008   */\n      dup4\n        /* \"#utility.yul\":8946:9013   */\n      tag_225\n      jump\t// in\n    tag_348:\n        /* \"#utility.yul\":8939:9013   */\n      swap2\n      pop\n        /* \"#utility.yul\":9022:9115   */\n      tag_349\n        /* \"#utility.yul\":9111:9114   */\n      dup3\n        /* \"#utility.yul\":9022:9115   */\n      tag_232\n      jump\t// in\n    tag_349:\n        /* \"#utility.yul\":9140:9142   */\n      0x20\n        /* \"#utility.yul\":9135:9138   */\n      dup3\n        /* \"#utility.yul\":9131:9143   */\n      add\n        /* \"#utility.yul\":9124:9143   */\n      swap1\n      pop\n        /* \"#utility.yul\":8783:9149   */\n      swap2\n      swap1\n      pop\n      jump\t// out\n        /* \"#utility.yul\":9155:9574   */\n    tag_91:\n        /* \"#utility.yul\":9321:9325   */\n      0x00\n        /* \"#utility.yul\":9359:9361   */\n      0x20\n        /* \"#utility.yul\":9348:9357   */\n      dup3\n        /* \"#utility.yul\":9344:9362   */\n      add\n        /* \"#utility.yul\":9336:9362   */\n      swap1\n      pop\n        /* \"#utility.yul\":9408:9417   */\n      dup2\n        /* \"#utility.yul\":9402:9406   */\n      dup2\n        /* \"#utility.yul\":9398:9418   */\n      sub\n        /* \"#utility.yul\":9394:9395   */\n      0x00\n        /* \"#utility.yul\":9383:9392   */\n      dup4\n        /* \"#utility.yul\":9379:9396   */\n      add\n        /* \"#utility.yul\":9372:9419   */\n      mstore\n        /* \"#utility.yul\":9436:9567   */\n      tag_351\n        /* \"#utility.yul\":9562:9566   */\n      dup2\n        /* \"#utility.yul\":9436:9567   */\n      tag_233\n      jump\t// in\n    tag_351:\n        /* \"#utility.yul\":9428:9567   */\n      swap1\n      pop\n        /* \"#utility.yul\":9155:9574   */\n      swap2\n      swap1\n      pop\n      jump\t// out\n        /* \"#utility.yul\":9580:9774   */\n    tag_93:\n        /* \"#utility.yul\":9620:9624   */\n      0x00\n        /* \"#utility.yul\":9640:9660   */\n      tag_353\n        /* \"#utility.yul\":9658:9659   */\n      dup3\n        /* \"#utility.yul\":9640:9660   */\n      tag_209\n      jump\t// in\n    tag_353:\n        /* \"#utility.yul\":9635:9660   */\n      swap2\n      pop\n        /* \"#utility.yul\":9674:9694   */\n      tag_354\n        /* \"#utility.yul\":9692:9693   */\n      dup4\n        /* \"#utility.yul\":9674:9694   */\n      tag_209\n      jump\t// in\n    tag_354:\n        /* \"#utility.yul\":9669:9694   */\n      swap3\n      pop\n        /* \"#utility.yul\":9718:9719   */\n      dup3\n        /* \"#utility.yul\":9715:9716   */\n      dup3\n        /* \"#utility.yul\":9711:9720   */\n      sub\n        /* \"#utility.yul\":9703:9720   */\n      swap1\n      pop\n        /* \"#utility.yul\":9742:9743   */\n      dup2\n        /* \"#utility.yul\":9736:9740   */\n      dup2\n        /* \"#utility.yul\":9733:9744   */\n      gt\n        /* \"#utility.yul\":9730:9767   */\n      iszero\n      tag_355\n      jumpi\n        /* \"#utility.yul\":9747:9765   */\n      tag_356\n      tag_230\n      jump\t// in\n    tag_356:\n        /* \"#utility.yul\":9730:9767   */\n    tag_355:\n        /* \"#utility.yul\":9580:9774   */\n      swap3\n      swap2\n      pop\n      pop\n      jump\t// out\n        /* \"#utility.yul\":9780:10112   */\n    tag_98:\n        /* \"#utility.yul\":9901:9905   */\n      0x00\n        /* \"#utility.yul\":9939:9941   */\n      0x40\n        /* \"#utility.yul\":9928:9937   */\n      dup3\n        /* \"#utility.yul\":9924:9942   */\n      add\n        /* \"#utility.yul\":9916:9942   */\n      swap1\n      pop\n        /* \"#utility.yul\":9952:10023   */\n      tag_358\n        /* \"#utility.yul\":10020:10021   */\n      0x00\n        /* \"#utility.yul\":10009:10018   */\n      dup4\n        /* \"#utility.yul\":10005:10022   */\n      add\n        /* \"#utility.yul\":9996:10002   */\n      dup6\n        /* \"#utility.yul\":9952:10023   */\n      tag_222\n      jump\t// in\n    tag_358:\n        /* \"#utility.yul\":10033:10105   */\n      tag_359\n        /* \"#utility.yul\":10101:10103   */\n      0x20\n        /* \"#utility.yul\":10090:10099   */\n      dup4\n        /* \"#utility.yul\":10086:10104   */\n      add\n        /* \"#utility.yul\":10077:10083   */\n      dup5\n        /* \"#utility.yul\":10033:10105   */\n      tag_218\n      jump\t// in\n    tag_359:\n        /* \"#utility.yul\":9780:10112   */\n      swap4\n      swap3\n      pop\n      pop\n      pop\n      jump\t// out\n        /* \"#utility.yul\":10118:10208   */\n    tag_234:\n        /* \"#utility.yul\":10152:10159   */\n      0x00\n        /* \"#utility.yul\":10195:10200   */\n      dup2\n        /* \"#utility.yul\":10188:10201   */\n      iszero\n        /* \"#utility.yul\":10181:10202   */\n      iszero\n        /* \"#utility.yul\":10170:10202   */\n      swap1\n      pop\n        /* \"#utility.yul\":10118:10208   */\n      swap2\n      swap1\n      pop\n      jump\t// out\n        /* \"#utility.yul\":10214:10330   */\n    tag_235:\n        /* \"#utility.yul\":10284:10305   */\n      tag_362\n        /* \"#utility.yul\":10299:10304   */\n      dup2\n        /* \"#utility.yul\":10284:10305   */\n      tag_234\n      jump\t// in\n    tag_362:\n        /* \"#utility.yul\":10277:10282   */\n      dup2\n        /* \"#utility.yul\":10274:10306   */\n      eq\n        /* \"#utility.yul\":10264:10324   */\n      tag_363\n      jumpi\n        /* \"#utility.yul\":10320:10321   */\n      0x00\n        /* \"#utility.yul\":10317:10318   */\n      0x00\n        /* \"#utility.yul\":10310:10322   */\n      revert\n        /* \"#utility.yul\":10264:10324   */\n    tag_363:\n        /* \"#utility.yul\":10214:10330   */\n      pop\n      jump\t// out\n        /* \"#utility.yul\":10336:10473   */\n    tag_236:\n        /* \"#utility.yul\":10390:10395   */\n      0x00\n        /* \"#utility.yul\":10421:10427   */\n      dup2\n        /* \"#utility.yul\":10415:10428   */\n      mload\n        /* \"#utility.yul\":10406:10428   */\n      swap1\n      pop\n        /* \"#utility.yul\":10437:10467   */\n      tag_365\n        /* \"#utility.yul\":10461:10466   */\n      dup2\n        /* \"#utility.yul\":10437:10467   */\n      tag_235\n      jump\t// in\n    tag_365:\n        /* \"#utility.yul\":10336:10473   */\n      swap3\n      swap2\n      pop\n      pop\n      jump\t// out\n        /* \"#utility.yul\":10479:10824   */\n    tag_102:\n        /* \"#utility.yul\":10546:10552   */\n      0x00\n        /* \"#utility.yul\":10595:10597   */\n      0x20\n        /* \"#utility.yul\":10583:10592   */\n      dup3\n        /* \"#utility.yul\":10574:10581   */\n      dup5\n        /* \"#utility.yul\":10570:10593   */\n      sub\n        /* \"#utility.yul\":10566:10598   */\n      slt\n        /* \"#utility.yul\":10563:10682   */\n      iszero\n      tag_367\n      jumpi\n        /* \"#utility.yul\":10601:10680   */\n      tag_368\n      tag_207\n      jump\t// in\n    tag_368:\n        /* \"#utility.yul\":10563:10682   */\n    tag_367:\n        /* \"#utility.yul\":10721:10722   */\n      0x00\n        /* \"#utility.yul\":10746:10807   */\n      tag_369\n        /* \"#utility.yul\":10799:10806   */\n      dup5\n        /* \"#utility.yul\":10790:10796   */\n      dup3\n        /* \"#utility.yul\":10779:10788   */\n      dup6\n        /* \"#utility.yul\":10775:10797   */\n      add\n        /* \"#utility.yul\":10746:10807   */\n      tag_236\n      jump\t// in\n    tag_369:\n        /* \"#utility.yul\":10736:10807   */\n      swap2\n      pop\n        /* \"#utility.yul\":10692:10817   */\n      pop\n        /* \"#utility.yul\":10479:10824   */\n      swap3\n      swap2\n      pop\n      pop\n      jump\t// out\n        /* \"#utility.yul\":10830:10995   */\n    tag_237:\n        /* \"#utility.yul\":10970:10987   */\n      0x42617a656e206a65207072617a616e0000000000000000000000000000000000\n        /* \"#utility.yul\":10966:10967   */\n      0x00\n        /* \"#utility.yul\":10958:10964   */\n      dup3\n        /* \"#utility.yul\":10954:10968   */\n      add\n        /* \"#utility.yul\":10947:10988   */\n      mstore\n        /* \"#utility.yul\":10830:10995   */\n      pop\n      jump\t// out\n        /* \"#utility.yul\":11001:11367   */\n    tag_238:\n        /* \"#utility.yul\":11143:11146   */\n      0x00\n        /* \"#utility.yul\":11164:11231   */\n      tag_372\n        /* \"#utility.yul\":11228:11230   */\n      0x0f\n        /* \"#utility.yul\":11223:11226   */\n      dup4\n        /* \"#utility.yul\":11164:11231   */\n      tag_225\n      jump\t// in\n    tag_372:\n        /* \"#utility.yul\":11157:11231   */\n      swap2\n      pop\n        /* \"#utility.yul\":11240:11333   */\n      tag_373\n        /* \"#utility.yul\":11329:11332   */\n      dup3\n        /* \"#utility.yul\":11240:11333   */\n      tag_237\n      jump\t// in\n    tag_373:\n        /* \"#utility.yul\":11358:11360   */\n      0x20\n        /* \"#utility.yul\":11353:11356   */\n      dup3\n        /* \"#utility.yul\":11349:11361   */\n      add\n        /* \"#utility.yul\":11342:11361   */\n      swap1\n      pop\n        /* \"#utility.yul\":11001:11367   */\n      swap2\n      swap1\n      pop\n      jump\t// out\n        /* \"#utility.yul\":11373:11792   */\n    tag_114:\n        /* \"#utility.yul\":11539:11543   */\n      0x00\n        /* \"#utility.yul\":11577:11579   */\n      0x20\n        /* \"#utility.yul\":11566:11575   */\n      dup3\n        /* \"#utility.yul\":11562:11580   */\n      add\n        /* \"#utility.yul\":11554:11580   */\n      swap1\n      pop\n        /* \"#utility.yul\":11626:11635   */\n      dup2\n        /* \"#utility.yul\":11620:11624   */\n      dup2\n        /* \"#utility.yul\":11616:11636   */\n      sub\n        /* \"#utility.yul\":11612:11613   */\n      0x00\n        /* \"#utility.yul\":11601:11610   */\n      dup4\n        /* \"#utility.yul\":11597:11614   */\n      add\n        /* \"#utility.yul\":11590:11637   */\n      mstore\n        /* \"#utility.yul\":11654:11785   */\n      tag_375\n        /* \"#utility.yul\":11780:11784   */\n      dup2\n        /* \"#utility.yul\":11654:11785   */\n      tag_238\n      jump\t// in\n    tag_375:\n        /* \"#utility.yul\":11646:11785   */\n      swap1\n      pop\n        /* \"#utility.yul\":11373:11792   */\n      swap2\n      swap1\n      pop\n      jump\t// out\n        /* \"#utility.yul\":11798:11989   */\n    tag_118:\n        /* \"#utility.yul\":11838:11841   */\n      0x00\n        /* \"#utility.yul\":11857:11877   */\n      tag_377\n        /* \"#utility.yul\":11875:11876   */\n      dup3\n        /* \"#utility.yul\":11857:11877   */\n      tag_209\n      jump\t// in\n    tag_377:\n        /* \"#utility.yul\":11852:11877   */\n      swap2\n      pop\n        /* \"#utility.yul\":11891:11911   */\n      tag_378\n        /* \"#utility.yul\":11909:11910   */\n      dup4\n        /* \"#utility.yul\":11891:11911   */\n      tag_209\n      jump\t// in\n    tag_378:\n        /* \"#utility.yul\":11886:11911   */\n      swap3\n      pop\n        /* \"#utility.yul\":11934:11935   */\n      dup3\n        /* \"#utility.yul\":11931:11932   */\n      dup3\n        /* \"#utility.yul\":11927:11936   */\n      add\n        /* \"#utility.yul\":11920:11936   */\n      swap1\n      pop\n        /* \"#utility.yul\":11955:11958   */\n      dup1\n        /* \"#utility.yul\":11952:11953   */\n      dup3\n        /* \"#utility.yul\":11949:11959   */\n      gt\n        /* \"#utility.yul\":11946:11982   */\n      iszero\n      tag_379\n      jumpi\n        /* \"#utility.yul\":11962:11980   */\n      tag_380\n      tag_230\n      jump\t// in\n    tag_380:\n        /* \"#utility.yul\":11946:11982   */\n    tag_379:\n        /* \"#utility.yul\":11798:11989   */\n      swap3\n      swap2\n      pop\n      pop\n      jump\t// out\n        /* \"#utility.yul\":11995:12170   */\n    tag_239:\n        /* \"#utility.yul\":12135:12162   */\n      0x497a6e6f73207a616d6a656e65206a65207072656e697a616b00000000000000\n        /* \"#utility.yul\":12131:12132   */\n      0x00\n        /* \"#utility.yul\":12123:12129   */\n      dup3\n        /* \"#utility.yul\":12119:12133   */\n      add\n        /* \"#utility.yul\":12112:12163   */\n      mstore\n        /* \"#utility.yul\":11995:12170   */\n      pop\n      jump\t// out\n        /* \"#utility.yul\":12176:12542   */\n    tag_240:\n        /* \"#utility.yul\":12318:12321   */\n      0x00\n        /* \"#utility.yul\":12339:12406   */\n      tag_383\n        /* \"#utility.yul\":12403:12405   */\n      0x19\n        /* \"#utility.yul\":12398:12401   */\n      dup4\n        /* \"#utility.yul\":12339:12406   */\n      tag_225\n      jump\t// in\n    tag_383:\n        /* \"#utility.yul\":12332:12406   */\n      swap2\n      pop\n        /* \"#utility.yul\":12415:12508   */\n      tag_384\n        /* \"#utility.yul\":12504:12507   */\n      dup3\n        /* \"#utility.yul\":12415:12508   */\n      tag_239\n      jump\t// in\n    tag_384:\n        /* \"#utility.yul\":12533:12535   */\n      0x20\n        /* \"#utility.yul\":12528:12531   */\n      dup3\n        /* \"#utility.yul\":12524:12536   */\n      add\n        /* \"#utility.yul\":12517:12536   */\n      swap1\n      pop\n        /* \"#utility.yul\":12176:12542   */\n      swap2\n      swap1\n      pop\n      jump\t// out\n        /* \"#utility.yul\":12548:12967   */\n    tag_123:\n        /* \"#utility.yul\":12714:12718   */\n      0x00\n        /* \"#utility.yul\":12752:12754   */\n      0x20\n        /* \"#utility.yul\":12741:12750   */\n      dup3\n        /* \"#utility.yul\":12737:12755   */\n      add\n        /* \"#utility.yul\":12729:12755   */\n      swap1\n      pop\n        /* \"#utility.yul\":12801:12810   */\n      dup2\n        /* \"#utility.yul\":12795:12799   */\n      dup2\n        /* \"#utility.yul\":12791:12811   */\n      sub\n        /* \"#utility.yul\":12787:12788   */\n      0x00\n        /* \"#utility.yul\":12776:12785   */\n      dup4\n        /* \"#utility.yul\":12772:12789   */\n      add\n        /* \"#utility.yul\":12765:12812   */\n      mstore\n        /* \"#utility.yul\":12829:12960   */\n      tag_386\n        /* \"#utility.yul\":12955:12959   */\n      dup2\n        /* \"#utility.yul\":12829:12960   */\n      tag_240\n      jump\t// in\n    tag_386:\n        /* \"#utility.yul\":12821:12960   */\n      swap1\n      pop\n        /* \"#utility.yul\":12548:12967   */\n      swap2\n      swap1\n      pop\n      jump\t// out\n        /* \"#utility.yul\":12973:13145   */\n    tag_241:\n        /* \"#utility.yul\":13113:13137   */\n      0x4e65646f766f6c6a6e6f2072657a6572766920544b4200000000000000000000\n        /* \"#utility.yul\":13109:13110   */\n      0x00\n        /* \"#utility.yul\":13101:13107   */\n      dup3\n        /* \"#utility.yul\":13097:13111   */\n      add\n        /* \"#utility.yul\":13090:13138   */\n      mstore\n        /* \"#utility.yul\":12973:13145   */\n      pop\n      jump\t// out\n        /* \"#utility.yul\":13151:13517   */\n    tag_242:\n        /* \"#utility.yul\":13293:13296   */\n      0x00\n        /* \"#utility.yul\":13314:13381   */\n      tag_389\n        /* \"#utility.yul\":13378:13380   */\n      0x16\n        /* \"#utility.yul\":13373:13376   */\n      dup4\n        /* \"#utility.yul\":13314:13381   */\n      tag_225\n      jump\t// in\n    tag_389:\n        /* \"#utility.yul\":13307:13381   */\n      swap2\n      pop\n        /* \"#utility.yul\":13390:13483   */\n      tag_390\n        /* \"#utility.yul\":13479:13482   */\n      dup3\n        /* \"#utility.yul\":13390:13483   */\n      tag_241\n      jump\t// in\n    tag_390:\n        /* \"#utility.yul\":13508:13510   */\n      0x20\n        /* \"#utility.yul\":13503:13506   */\n      dup3\n        /* \"#utility.yul\":13499:13511   */\n      add\n        /* \"#utility.yul\":13492:13511   */\n      swap1\n      pop\n        /* \"#utility.yul\":13151:13517   */\n      swap2\n      swap1\n      pop\n      jump\t// out\n        /* \"#utility.yul\":13523:13942   */\n    tag_126:\n        /* \"#utility.yul\":13689:13693   */\n      0x00\n        /* \"#utility.yul\":13727:13729   */\n      0x20\n        /* \"#utility.yul\":13716:13725   */\n      dup3\n        /* \"#utility.yul\":13712:13730   */\n      add\n        /* \"#utility.yul\":13704:13730   */\n      swap1\n      pop\n        /* \"#utility.yul\":13776:13785   */\n      dup2\n        /* \"#utility.yul\":13770:13774   */\n      dup2\n        /* \"#utility.yul\":13766:13786   */\n      sub\n        /* \"#utility.yul\":13762:13763   */\n      0x00\n        /* \"#utility.yul\":13751:13760   */\n      dup4\n        /* \"#utility.yul\":13747:13764   */\n      add\n        /* \"#utility.yul\":13740:13787   */\n      mstore\n        /* \"#utility.yul\":13804:13935   */\n      tag_392\n        /* \"#utility.yul\":13930:13934   */\n      dup2\n        /* \"#utility.yul\":13804:13935   */\n      tag_242\n      jump\t// in\n    tag_392:\n        /* \"#utility.yul\":13796:13935   */\n      swap1\n      pop\n        /* \"#utility.yul\":13523:13942   */\n      swap2\n      swap1\n      pop\n      jump\t// out\n        /* \"#utility.yul\":13948:14390   */\n    tag_128:\n        /* \"#utility.yul\":14097:14101   */\n      0x00\n        /* \"#utility.yul\":14135:14137   */\n      0x60\n        /* \"#utility.yul\":14124:14133   */\n      dup3\n        /* \"#utility.yul\":14120:14138   */\n      add\n        /* \"#utility.yul\":14112:14138   */\n      swap1\n      pop\n        /* \"#utility.yul\":14148:14219   */\n      tag_394\n        /* \"#utility.yul\":14216:14217   */\n      0x00\n        /* \"#utility.yul\":14205:14214   */\n      dup4\n        /* \"#utility.yul\":14201:14218   */\n      add\n        /* \"#utility.yul\":14192:14198   */\n      dup7\n        /* \"#utility.yul\":14148:14219   */\n      tag_222\n      jump\t// in\n    tag_394:\n        /* \"#utility.yul\":14229:14301   */\n      tag_395\n        /* \"#utility.yul\":14297:14299   */\n      0x20\n        /* \"#utility.yul\":14286:14295   */\n      dup4\n        /* \"#utility.yul\":14282:14300   */\n      add\n        /* \"#utility.yul\":14273:14279   */\n      dup6\n        /* \"#utility.yul\":14229:14301   */\n      tag_222\n      jump\t// in\n    tag_395:\n        /* \"#utility.yul\":14311:14383   */\n      tag_396\n        /* \"#utility.yul\":14379:14381   */\n      0x40\n        /* \"#utility.yul\":14368:14377   */\n      dup4\n        /* \"#utility.yul\":14364:14382   */\n      add\n        /* \"#utility.yul\":14355:14361   */\n      dup5\n        /* \"#utility.yul\":14311:14383   */\n      tag_218\n      jump\t// in\n    tag_396:\n        /* \"#utility.yul\":13948:14390   */\n      swap5\n      swap4\n      pop\n      pop\n      pop\n      pop\n      jump\t// out\n        /* \"#utility.yul\":14396:14556   */\n    tag_243:\n        /* \"#utility.yul\":14536:14548   */\n      0x544b41202d3e20544b4200000000000000000000000000000000000000000000\n        /* \"#utility.yul\":14532:14533   */\n      0x00\n        /* \"#utility.yul\":14524:14530   */\n      dup3\n        /* \"#utility.yul\":14520:14534   */\n      add\n        /* \"#utility.yul\":14513:14549   */\n      mstore\n        /* \"#utility.yul\":14396:14556   */\n      pop\n      jump\t// out\n        /* \"#utility.yul\":14562:14928   */\n    tag_244:\n        /* \"#utility.yul\":14704:14707   */\n      0x00\n        /* \"#utility.yul\":14725:14792   */\n      tag_399\n        /* \"#utility.yul\":14789:14791   */\n      0x0a\n        /* \"#utility.yul\":14784:14787   */\n      dup4\n        /* \"#utility.yul\":14725:14792   */\n      tag_225\n      jump\t// in\n    tag_399:\n        /* \"#utility.yul\":14718:14792   */\n      swap2\n      pop\n        /* \"#utility.yul\":14801:14894   */\n      tag_400\n        /* \"#utility.yul\":14890:14893   */\n      dup3\n        /* \"#utility.yul\":14801:14894   */\n      tag_243\n      jump\t// in\n    tag_400:\n        /* \"#utility.yul\":14919:14921   */\n      0x20\n        /* \"#utility.yul\":14914:14917   */\n      dup3\n        /* \"#utility.yul\":14910:14922   */\n      add\n        /* \"#utility.yul\":14903:14922   */\n      swap1\n      pop\n        /* \"#utility.yul\":14562:14928   */\n      swap2\n      swap1\n      pop\n      jump\t// out\n        /* \"#utility.yul\":14934:15573   */\n    tag_139:\n        /* \"#utility.yul\":15156:15160   */\n      0x00\n        /* \"#utility.yul\":15194:15196   */\n      0x60\n        /* \"#utility.yul\":15183:15192   */\n      dup3\n        /* \"#utility.yul\":15179:15197   */\n      add\n        /* \"#utility.yul\":15171:15197   */\n      swap1\n      pop\n        /* \"#utility.yul\":15243:15252   */\n      dup2\n        /* \"#utility.yul\":15237:15241   */\n      dup2\n        /* \"#utility.yul\":15233:15253   */\n      sub\n        /* \"#utility.yul\":15229:15230   */\n      0x00\n        /* \"#utility.yul\":15218:15227   */\n      dup4\n        /* \"#utility.yul\":15214:15231   */\n      add\n        /* \"#utility.yul\":15207:15254   */\n      mstore\n        /* \"#utility.yul\":15271:15402   */\n      tag_402\n        /* \"#utility.yul\":15397:15401   */\n      dup2\n        /* \"#utility.yul\":15271:15402   */\n      tag_244\n      jump\t// in\n    tag_402:\n        /* \"#utility.yul\":15263:15402   */\n      swap1\n      pop\n        /* \"#utility.yul\":15412:15484   */\n      tag_403\n        /* \"#utility.yul\":15480:15482   */\n      0x20\n        /* \"#utility.yul\":15469:15478   */\n      dup4\n        /* \"#utility.yul\":15465:15483   */\n      add\n        /* \"#utility.yul\":15456:15462   */\n      dup6\n        /* \"#utility.yul\":15412:15484   */\n      tag_218\n      jump\t// in\n    tag_403:\n        /* \"#utility.yul\":15494:15566   */\n      tag_404\n        /* \"#utility.yul\":15562:15564   */\n      0x40\n        /* \"#utility.yul\":15551:15560   */\n      dup4\n        /* \"#utility.yul\":15547:15565   */\n      add\n        /* \"#utility.yul\":15538:15544   */\n      dup5\n        /* \"#utility.yul\":15494:15566   */\n      tag_218\n      jump\t// in\n    tag_404:\n        /* \"#utility.yul\":14934:15573   */\n      swap4\n      swap3\n      pop\n      pop\n      pop\n      jump\t// out\n        /* \"#utility.yul\":15579:15758   */\n    tag_245:\n        /* \"#utility.yul\":15719:15750   */\n      0x52657a65727665206d6f72616a7520626974692076656365206f642030000000\n        /* \"#utility.yul\":15715:15716   */\n      0x00\n        /* \"#utility.yul\":15707:15713   */\n      dup3\n        /* \"#utility.yul\":15703:15717   */\n      add\n        /* \"#utility.yul\":15696:15751   */\n      mstore\n        /* \"#utility.yul\":15579:15758   */\n      pop\n      jump\t// out\n        /* \"#utility.yul\":15764:16130   */\n    tag_246:\n        /* \"#utility.yul\":15906:15909   */\n      0x00\n        /* \"#utility.yul\":15927:15994   */\n      tag_407\n        /* \"#utility.yul\":15991:15993   */\n      0x1d\n        /* \"#utility.yul\":15986:15989   */\n      dup4\n        /* \"#utility.yul\":15927:15994   */\n      tag_225\n      jump\t// in\n    tag_407:\n        /* \"#utility.yul\":15920:15994   */\n      swap2\n      pop\n        /* \"#utility.yul\":16003:16096   */\n      tag_408\n        /* \"#utility.yul\":16092:16095   */\n      dup3\n        /* \"#utility.yul\":16003:16096   */\n      tag_245\n      jump\t// in\n    tag_408:\n        /* \"#utility.yul\":16121:16123   */\n      0x20\n        /* \"#utility.yul\":16116:16119   */\n      dup3\n        /* \"#utility.yul\":16112:16124   */\n      add\n        /* \"#utility.yul\":16105:16124   */\n      swap1\n      pop\n        /* \"#utility.yul\":15764:16130   */\n      swap2\n      swap1\n      pop\n      jump\t// out\n        /* \"#utility.yul\":16136:16555   */\n    tag_147:\n        /* \"#utility.yul\":16302:16306   */\n      0x00\n        /* \"#utility.yul\":16340:16342   */\n      0x20\n        /* \"#utility.yul\":16329:16338   */\n      dup3\n        /* \"#utility.yul\":16325:16343   */\n      add\n        /* \"#utility.yul\":16317:16343   */\n      swap1\n      pop\n        /* \"#utility.yul\":16389:16398   */\n      dup2\n        /* \"#utility.yul\":16383:16387   */\n      dup2\n        /* \"#utility.yul\":16379:16399   */\n      sub\n        /* \"#utility.yul\":16375:16376   */\n      0x00\n        /* \"#utility.yul\":16364:16373   */\n      dup4\n        /* \"#utility.yul\":16360:16377   */\n      add\n        /* \"#utility.yul\":16353:16400   */\n      mstore\n        /* \"#utility.yul\":16417:16548   */\n      tag_410\n        /* \"#utility.yul\":16543:16547   */\n      dup2\n        /* \"#utility.yul\":16417:16548   */\n      tag_246\n      jump\t// in\n    tag_410:\n        /* \"#utility.yul\":16409:16548   */\n      swap1\n      pop\n        /* \"#utility.yul\":16136:16555   */\n      swap2\n      swap1\n      pop\n      jump\t// out\n        /* \"#utility.yul\":16561:16739   */\n    tag_247:\n        /* \"#utility.yul\":16701:16731   */\n      0x497a6e6f7369206d6f72616a7520626974692076656369206f64203000000000\n        /* \"#utility.yul\":16697:16698   */\n      0x00\n        /* \"#utility.yul\":16689:16695   */\n      dup3\n        /* \"#utility.yul\":16685:16699   */\n      add\n        /* \"#utility.yul\":16678:16732   */\n      mstore\n        /* \"#utility.yul\":16561:16739   */\n      pop\n      jump\t// out\n        /* \"#utility.yul\":16745:17111   */\n    tag_248:\n        /* \"#utility.yul\":16887:16890   */\n      0x00\n        /* \"#utility.yul\":16908:16975   */\n      tag_413\n        /* \"#utility.yul\":16972:16974   */\n      0x1c\n        /* \"#utility.yul\":16967:16970   */\n      dup4\n        /* \"#utility.yul\":16908:16975   */\n      tag_225\n      jump\t// in\n    tag_413:\n        /* \"#utility.yul\":16901:16975   */\n      swap2\n      pop\n        /* \"#utility.yul\":16984:17077   */\n      tag_414\n        /* \"#utility.yul\":17073:17076   */\n      dup3\n        /* \"#utility.yul\":16984:17077   */\n      tag_247\n      jump\t// in\n    tag_414:\n        /* \"#utility.yul\":17102:17104   */\n      0x20\n        /* \"#utility.yul\":17097:17100   */\n      dup3\n        /* \"#utility.yul\":17093:17105   */\n      add\n        /* \"#utility.yul\":17086:17105   */\n      swap1\n      pop\n        /* \"#utility.yul\":16745:17111   */\n      swap2\n      swap1\n      pop\n      jump\t// out\n        /* \"#utility.yul\":17117:17536   */\n    tag_157:\n        /* \"#utility.yul\":17283:17287   */\n      0x00\n        /* \"#utility.yul\":17321:17323   */\n      0x20\n        /* \"#utility.yul\":17310:17319   */\n      dup3\n        /* \"#utility.yul\":17306:17324   */\n      add\n        /* \"#utility.yul\":17298:17324   */\n      swap1\n      pop\n        /* \"#utility.yul\":17370:17379   */\n      dup2\n        /* \"#utility.yul\":17364:17368   */\n      dup2\n        /* \"#utility.yul\":17360:17380   */\n      sub\n        /* \"#utility.yul\":17356:17357   */\n      0x00\n        /* \"#utility.yul\":17345:17354   */\n      dup4\n        /* \"#utility.yul\":17341:17358   */\n      add\n        /* \"#utility.yul\":17334:17381   */\n      mstore\n        /* \"#utility.yul\":17398:17529   */\n      tag_416\n        /* \"#utility.yul\":17524:17528   */\n      dup2\n        /* \"#utility.yul\":17398:17529   */\n      tag_248\n      jump\t// in\n    tag_416:\n        /* \"#utility.yul\":17390:17529   */\n      swap1\n      pop\n        /* \"#utility.yul\":17117:17536   */\n      swap2\n      swap1\n      pop\n      jump\t// out\n        /* \"#utility.yul\":17542:17984   */\n    tag_176:\n        /* \"#utility.yul\":17691:17695   */\n      0x00\n        /* \"#utility.yul\":17729:17731   */\n      0x60\n        /* \"#utility.yul\":17718:17727   */\n      dup3\n        /* \"#utility.yul\":17714:17732   */\n      add\n        /* \"#utility.yul\":17706:17732   */\n      swap1\n      pop\n        /* \"#utility.yul\":17742:17813   */\n      tag_418\n        /* \"#utility.yul\":17810:17811   */\n      0x00\n        /* \"#utility.yul\":17799:17808   */\n      dup4\n        /* \"#utility.yul\":17795:17812   */\n      add\n        /* \"#utility.yul\":17786:17792   */\n      dup7\n        /* \"#utility.yul\":17742:17813   */\n      tag_218\n      jump\t// in\n    tag_418:\n        /* \"#utility.yul\":17823:17895   */\n      tag_419\n        /* \"#utility.yul\":17891:17893   */\n      0x20\n        /* \"#utility.yul\":17880:17889   */\n      dup4\n        /* \"#utility.yul\":17876:17894   */\n      add\n        /* \"#utility.yul\":17867:17873   */\n      dup6\n        /* \"#utility.yul\":17823:17895   */\n      tag_218\n      jump\t// in\n    tag_419:\n        /* \"#utility.yul\":17905:17977   */\n      tag_420\n        /* \"#utility.yul\":17973:17975   */\n      0x40\n        /* \"#utility.yul\":17962:17971   */\n      dup4\n        /* \"#utility.yul\":17958:17976   */\n      add\n        /* \"#utility.yul\":17949:17955   */\n      dup5\n        /* \"#utility.yul\":17905:17977   */\n      tag_218\n      jump\t// in\n    tag_420:\n        /* \"#utility.yul\":17542:17984   */\n      swap5\n      swap4\n      pop\n      pop\n      pop\n      pop\n      jump\t// out\n        /* \"#utility.yul\":17990:18162   */\n    tag_249:\n        /* \"#utility.yul\":18130:18154   */\n      0x4e65646f766f6c6a6e6f2072657a6572766920544b4100000000000000000000\n        /* \"#utility.yul\":18126:18127   */\n      0x00\n        /* \"#utility.yul\":18118:18124   */\n      dup3\n        /* \"#utility.yul\":18114:18128   */\n      add\n        /* \"#utility.yul\":18107:18155   */\n      mstore\n        /* \"#utility.yul\":17990:18162   */\n      pop\n      jump\t// out\n        /* \"#utility.yul\":18168:18534   */\n    tag_250:\n        /* \"#utility.yul\":18310:18313   */\n      0x00\n        /* \"#utility.yul\":18331:18398   */\n      tag_423\n        /* \"#utility.yul\":18395:18397   */\n      0x16\n        /* \"#utility.yul\":18390:18393   */\n      dup4\n        /* \"#utility.yul\":18331:18398   */\n      tag_225\n      jump\t// in\n    tag_423:\n        /* \"#utility.yul\":18324:18398   */\n      swap2\n      pop\n        /* \"#utility.yul\":18407:18500   */\n      tag_424\n        /* \"#utility.yul\":18496:18499   */\n      dup3\n        /* \"#utility.yul\":18407:18500   */\n      tag_249\n      jump\t// in\n    tag_424:\n        /* \"#utility.yul\":18525:18527   */\n      0x20\n        /* \"#utility.yul\":18520:18523   */\n      dup3\n        /* \"#utility.yul\":18516:18528   */\n      add\n        /* \"#utility.yul\":18509:18528   */\n      swap1\n      pop\n        /* \"#utility.yul\":18168:18534   */\n      swap2\n      swap1\n      pop\n      jump\t// out\n        /* \"#utility.yul\":18540:18959   */\n    tag_193:\n        /* \"#utility.yul\":18706:18710   */\n      0x00\n        /* \"#utility.yul\":18744:18746   */\n      0x20\n        /* \"#utility.yul\":18733:18742   */\n      dup3\n        /* \"#utility.yul\":18729:18747   */\n      add\n        /* \"#utility.yul\":18721:18747   */\n      swap1\n      pop\n        /* \"#utility.yul\":18793:18802   */\n      dup2\n        /* \"#utility.yul\":18787:18791   */\n      dup2\n        /* \"#utility.yul\":18783:18803   */\n      sub\n        /* \"#utility.yul\":18779:18780   */\n      0x00\n        /* \"#utility.yul\":18768:18777   */\n      dup4\n        /* \"#utility.yul\":18764:18781   */\n      add\n        /* \"#utility.yul\":18757:18804   */\n      mstore\n        /* \"#utility.yul\":18821:18952   */\n      tag_426\n        /* \"#utility.yul\":18947:18951   */\n      dup2\n        /* \"#utility.yul\":18821:18952   */\n      tag_250\n      jump\t// in\n    tag_426:\n        /* \"#utility.yul\":18813:18952   */\n      swap1\n      pop\n        /* \"#utility.yul\":18540:18959   */\n      swap2\n      swap1\n      pop\n      jump\t// out\n        /* \"#utility.yul\":18965:19125   */\n    tag_251:\n        /* \"#utility.yul\":19105:19117   */\n      0x544b42202d3e20544b4100000000000000000000000000000000000000000000\n        /* \"#utility.yul\":19101:19102   */\n      0x00\n        /* \"#utility.yul\":19093:19099   */\n      dup3\n        /* \"#utility.yul\":19089:19103   */\n      add\n        /* \"#utility.yul\":19082:19118   */\n      mstore\n        /* \"#utility.yul\":18965:19125   */\n      pop\n      jump\t// out\n        /* \"#utility.yul\":19131:19497   */\n    tag_252:\n        /* \"#utility.yul\":19273:19276   */\n      0x00\n        /* \"#utility.yul\":19294:19361   */\n      tag_429\n        /* \"#utility.yul\":19358:19360   */\n      0x0a\n        /* \"#utility.yul\":19353:19356   */\n      dup4\n        /* \"#utility.yul\":19294:19361   */\n      tag_225\n      jump\t// in\n    tag_429:\n        /* \"#utility.yul\":19287:19361   */\n      swap2\n      pop\n        /* \"#utility.yul\":19370:19463   */\n      tag_430\n        /* \"#utility.yul\":19459:19462   */\n      dup3\n        /* \"#utility.yul\":19370:19463   */\n      tag_251\n      jump\t// in\n    tag_430:\n        /* \"#utility.yul\":19488:19490   */\n      0x20\n        /* \"#utility.yul\":19483:19486   */\n      dup3\n        /* \"#utility.yul\":19479:19491   */\n      add\n        /* \"#utility.yul\":19472:19491   */\n      swap1\n      pop\n        /* \"#utility.yul\":19131:19497   */\n      swap2\n      swap1\n      pop\n      jump\t// out\n        /* \"#utility.yul\":19503:20142   */\n    tag_205:\n        /* \"#utility.yul\":19725:19729   */\n      0x00\n        /* \"#utility.yul\":19763:19765   */\n      0x60\n        /* \"#utility.yul\":19752:19761   */\n      dup3\n        /* \"#utility.yul\":19748:19766   */\n      add\n        /* \"#utility.yul\":19740:19766   */\n      swap1\n      pop\n        /* \"#utility.yul\":19812:19821   */\n      dup2\n        /* \"#utility.yul\":19806:19810   */\n      dup2\n        /* \"#utility.yul\":19802:19822   */\n      sub\n        /* \"#utility.yul\":19798:19799   */\n      0x00\n        /* \"#utility.yul\":19787:19796   */\n      dup4\n        /* \"#utility.yul\":19783:19800   */\n      add\n        /* \"#utility.yul\":19776:19823   */\n      mstore\n        /* \"#utility.yul\":19840:19971   */\n      tag_432\n        /* \"#utility.yul\":19966:19970   */\n      dup2\n        /* \"#utility.yul\":19840:19971   */\n      tag_252\n      jump\t// in\n    tag_432:\n        /* \"#utility.yul\":19832:19971   */\n      swap1\n      pop\n        /* \"#utility.yul\":19981:20053   */\n      tag_433\n        /* \"#utility.yul\":20049:20051   */\n      0x20\n        /* \"#utility.yul\":20038:20047   */\n      dup4\n        /* \"#utility.yul\":20034:20052   */\n      add\n        /* \"#utility.yul\":20025:20031   */\n      dup6\n        /* \"#utility.yul\":19981:20053   */\n      tag_218\n      jump\t// in\n    tag_433:\n        /* \"#utility.yul\":20063:20135   */\n      tag_434\n        /* \"#utility.yul\":20131:20133   */\n      0x40\n        /* \"#utility.yul\":20120:20129   */\n      dup4\n        /* \"#utility.yul\":20116:20134   */\n      add\n        /* \"#utility.yul\":20107:20113   */\n      dup5\n        /* \"#utility.yul\":20063:20135   */\n      tag_218\n      jump\t// in\n    tag_434:\n        /* \"#utility.yul\":19503:20142   */\n      swap4\n      swap3\n      pop\n      pop\n      pop\n      jump\t// out\n\n    auxdata: 0xa264697066735822122036e44792e843e3e63acab5057f0c3c0582d1e38f6d0636b32e758ce2f2dffdf764736f6c63430008220033\n}\n",
				"bytecode": {
					"linkReferences": {},
					"object": "608060405234801561000f575f5ffd5b50604051611c66380380611c6683398181016040528101906100319190610155565b335f5f6101000a81548173ffffffffffffffffffffffffffffffffffffffff021916908373ffffffffffffffffffffffffffffffffffffffff1602179055508160015f6101000a81548173ffffffffffffffffffffffffffffffffffffffff021916908373ffffffffffffffffffffffffffffffffffffffff1602179055508060025f6101000a81548173ffffffffffffffffffffffffffffffffffffffff021916908373ffffffffffffffffffffffffffffffffffffffff1602179055505050610193565b5f5ffd5b5f73ffffffffffffffffffffffffffffffffffffffff82169050919050565b5f610124826100fb565b9050919050565b6101348161011a565b811461013e575f5ffd5b50565b5f8151905061014f8161012b565b92915050565b5f5f6040838503121561016b5761016a6100f7565b5b5f61017885828601610141565b925050602061018985828601610141565b9150509250929050565b611ac6806101a05f395ff3fe608060405234801561000f575f5ffd5b50600436106100e8575f3560e01c80635f64b55b1161008a578063a9f5d5ed11610064578063a9f5d5ed1461023a578063b66e94ed14610256578063c5365c1b14610286578063ca4a1b8f146102a5576100e8565b80635f64b55b146101e05780636e7c13b6146101fe5780638da5cb5b1461021c576100e8565b80631f67316e116100c65780631f67316e146101445780632e84046b146101745780633064c16c14610192578063529e0ada146101b0576100e8565b80630c5a7c84146100ec5780630fc63d1014610108578063128540c914610126575b5f5ffd5b6101066004803603810190610101919061114c565b6102d5565b005b61011061064a565b60405161011d91906111f1565b60405180910390f35b61012e61066f565b60405161013b9190611219565b60405180910390f35b61015e6004803603810190610159919061114c565b610675565b60405161016b9190611219565b60405180910390f35b61017c61099d565b6040516101899190611219565b60405180910390f35b61019a6109e1565b6040516101a79190611219565b60405180910390f35b6101ca60048036038101906101c59190611232565b6109e7565b6040516101d79190611219565b60405180910390f35b6101e8610ac1565b6040516101f591906112a2565b60405180910390f35b610206610ae6565b6040516102139190611219565b60405180910390f35b610224610aec565b60405161023191906112db565b60405180910390f35b610254600480360381019061024f91906112f4565b610b10565b005b610270600480360381019061026b919061135c565b610dc8565b60405161027d9190611219565b60405180910390f35b61028e610ddd565b60405161029c929190611387565b60405180910390f35b6102bf60048036038101906102ba919061114c565b610ded565b6040516102cc9190611219565b60405180910390f35b5f8111610317576040517f08c379a000000000000000000000000000000000000000000000000000000000815260040161030e90611408565b60405180910390fd5b8060055f3373ffffffffffffffffffffffffffffffffffffffff1673ffffffffffffffffffffffffffffffffffffffff1681526020019081526020015f20541015610397576040517f08c379a000000000000000000000000000000000000000000000000000000000815260040161038e90611470565b60405180910390fd5b5f600654600354836103a991906114bb565b6103b39190611529565b90505f600654600454846103c791906114bb565b6103d19190611529565b90505f821180156103e157505f81115b610420576040517f08c379a0000000000000000000000000000000000000000000000000000000008152600401610417906115a3565b60405180910390fd5b8260055f3373ffffffffffffffffffffffffffffffffffffffff1673ffffffffffffffffffffffffffffffffffffffff1681526020019081526020015f205f82825461046c91906115c1565b925050819055508260065f82825461048491906115c1565b925050819055508160035f82825461049c91906115c1565b925050819055508060045f8282546104b491906115c1565b9250508190555060015f9054906101000a900473ffffffffffffffffffffffffffffffffffffffff1673ffffffffffffffffffffffffffffffffffffffff1663a9059cbb33846040518363ffffffff1660e01b81526004016105179291906115f4565b6020604051808303815f875af1158015610533573d5f5f3e3d5ffd5b505050506040513d601f19601f820116820180604052508101906105579190611650565b5060025f9054906101000a900473ffffffffffffffffffffffffffffffffffffffff1673ffffffffffffffffffffffffffffffffffffffff1663a9059cbb33836040518363ffffffff1660e01b81526004016105b49291906115f4565b6020604051808303815f875af11580156105d0573d5f5f3e3d5ffd5b505050506040513d601f19601f820116820180604052508101906105f49190611650565b503373ffffffffffffffffffffffffffffffffffffffff167f055bf8c843779aaaeaf90154d7b411b5232ee8b87d532c142c862e26cda5b351838360405161063d929190611387565b60405180910390a2505050565b60015f9054906101000a900473ffffffffffffffffffffffffffffffffffffffff1681565b60035481565b5f5f82116106b8576040517f08c379a00000000000000000000000000000000000000000000000000000000081526004016106af90611408565b60405180910390fd5b5f6003541180156106ca57505f600454115b610709576040517f08c379a0000000000000000000000000000000000000000000000000000000008152600401610700906116c5565b60405180910390fd5b5f6103e58361071891906114bb565b90505f816103e860035461072c91906114bb565b61073691906116e3565b8260045461074491906114bb565b61074e9190611529565b90505f8111610792576040517f08c379a000000000000000000000000000000000000000000000000000000000815260040161078990611760565b60405180910390fd5b8060045410156107d7576040517f08c379a00000000000000000000000000000000000000000000000000000000081526004016107ce906117c8565b60405180910390fd5b60015f9054906101000a900473ffffffffffffffffffffffffffffffffffffffff1673ffffffffffffffffffffffffffffffffffffffff166323b872dd3330876040518463ffffffff1660e01b8152600401610835939291906117e6565b6020604051808303815f875af1158015610851573d5f5f3e3d5ffd5b505050506040513d601f19601f820116820180604052508101906108759190611650565b5060025f9054906101000a900473ffffffffffffffffffffffffffffffffffffffff1673ffffffffffffffffffffffffffffffffffffffff1663a9059cbb33836040518363ffffffff1660e01b81526004016108d29291906115f4565b6020604051808303815f875af11580156108ee573d5f5f3e3d5ffd5b505050506040513d601f19601f820116820180604052508101906109129190611650565b508360035f82825461092491906116e3565b925050819055508060045f82825461093c91906115c1565b925050819055503373ffffffffffffffffffffffffffffffffffffffff167fd6fc4a38a3a3702d8fb16d699f0581d9d0ba09223b03c76aebd61831fe696f50858360405161098b929190611865565b60405180910390a28092505050919050565b5f60055f3373ffffffffffffffffffffffffffffffffffffffff1673ffffffffffffffffffffffffffffffffffffffff1681526020019081526020015f2054905090565b60045481565b5f5f8411610a2a576040517f08c379a0000000000000000000000000000000000000000000000000000000008152600401610a2190611408565b60405180910390fd5b5f83118015610a3857505f82115b610a77576040517f08c379a0000000000000000000000000000000000000000000000000000000008152600401610a6e906118e9565b60405180910390fd5b5f6103e585610a8691906114bb565b9050806103e885610a9791906114bb565b610aa191906116e3565b8184610aad91906114bb565b610ab79190611529565b9150509392505050565b60025f9054906101000a900473ffffffffffffffffffffffffffffffffffffffff1681565b60065481565b5f5f9054906101000a900473ffffffffffffffffffffffffffffffffffffffff1681565b5f82118015610b1e57505f81115b610b5d576040517f08c379a0000000000000000000000000000000000000000000000000000000008152600401610b5490611951565b60405180910390fd5b60015f9054906101000a900473ffffffffffffffffffffffffffffffffffffffff1673ffffffffffffffffffffffffffffffffffffffff166323b872dd3330856040518463ffffffff1660e01b8152600401610bbb939291906117e6565b6020604051808303815f875af1158015610bd7573d5f5f3e3d5ffd5b505050506040513d601f19601f82011682018060405250810190610bfb9190611650565b5060025f9054906101000a900473ffffffffffffffffffffffffffffffffffffffff1673ffffffffffffffffffffffffffffffffffffffff166323b872dd3330846040518463ffffffff1660e01b8152600401610c5a939291906117e6565b6020604051808303815f875af1158015610c76573d5f5f3e3d5ffd5b505050506040513d601f19601f82011682018060405250810190610c9a9190611650565b505f5f60065403610cb8578183610cb191906116e3565b9050610cd6565b60035460065484610cc991906114bb565b610cd39190611529565b90505b8060055f3373ffffffffffffffffffffffffffffffffffffffff1673ffffffffffffffffffffffffffffffffffffffff1681526020019081526020015f205f828254610d2291906116e3565b925050819055508060065f828254610d3a91906116e3565b925050819055508260035f828254610d5291906116e3565b925050819055508160045f828254610d6a91906116e3565b925050819055503373ffffffffffffffffffffffffffffffffffffffff167ffbc3652f26c817763b292ba5c345286f709ee38227938acf66a96e9893e95ce8848484604051610dbb9392919061196f565b60405180910390a2505050565b6005602052805f5260405f205f915090505481565b5f5f600354600454915091509091565b5f5f8211610e30576040517f08c379a0000000000000000000000000000000000000000000000000000000008152600401610e2790611408565b60405180910390fd5b5f600354118015610e4257505f600454115b610e81576040517f08c379a0000000000000000000000000000000000000000000000000000000008152600401610e78906116c5565b60405180910390fd5b5f6103e583610e9091906114bb565b90505f816103e8600454610ea491906114bb565b610eae91906116e3565b82600354610ebc91906114bb565b610ec69190611529565b90505f8111610f0a576040517f08c379a0000000000000000000000000000000000000000000000000000000008152600401610f0190611760565b60405180910390fd5b806003541015610f4f576040517f08c379a0000000000000000000000000000000000000000000000000000000008152600401610f46906119ee565b60405180910390fd5b60025f9054906101000a900473ffffffffffffffffffffffffffffffffffffffff1673ffffffffffffffffffffffffffffffffffffffff166323b872dd3330876040518463ffffffff1660e01b8152600401610fad939291906117e6565b6020604051808303815f875af1158015610fc9573d5f5f3e3d5ffd5b505050506040513d601f19601f82011682018060405250810190610fed9190611650565b5060015f9054906101000a900473ffffffffffffffffffffffffffffffffffffffff1673ffffffffffffffffffffffffffffffffffffffff1663a9059cbb33836040518363ffffffff1660e01b815260040161104a9291906115f4565b6020604051808303815f875af1158015611066573d5f5f3e3d5ffd5b505050506040513d601f19601f8201168201806040525081019061108a9190611650565b508360045f82825461109c91906116e3565b925050819055508060035f8282546110b491906115c1565b925050819055503373ffffffffffffffffffffffffffffffffffffffff167fd6fc4a38a3a3702d8fb16d699f0581d9d0ba09223b03c76aebd61831fe696f508583604051611103929190611a56565b60405180910390a28092505050919050565b5f5ffd5b5f819050919050565b61112b81611119565b8114611135575f5ffd5b50565b5f8135905061114681611122565b92915050565b5f6020828403121561116157611160611115565b5b5f61116e84828501611138565b91505092915050565b5f73ffffffffffffffffffffffffffffffffffffffff82169050919050565b5f819050919050565b5f6111b96111b46111af84611177565b611196565b611177565b9050919050565b5f6111ca8261119f565b9050919050565b5f6111db826111c0565b9050919050565b6111eb816111d1565b82525050565b5f6020820190506112045f8301846111e2565b92915050565b61121381611119565b82525050565b5f60208201905061122c5f83018461120a565b92915050565b5f5f5f6060848603121561124957611248611115565b5b5f61125686828701611138565b935050602061126786828701611138565b925050604061127886828701611138565b9150509250925092565b5f61128c826111c0565b9050919050565b61129c81611282565b82525050565b5f6020820190506112b55f830184611293565b92915050565b5f6112c582611177565b9050919050565b6112d5816112bb565b82525050565b5f6020820190506112ee5f8301846112cc565b92915050565b5f5f6040838503121561130a57611309611115565b5b5f61131785828601611138565b925050602061132885828601611138565b9150509250929050565b61133b816112bb565b8114611345575f5ffd5b50565b5f8135905061135681611332565b92915050565b5f6020828403121561137157611370611115565b5b5f61137e84828501611348565b91505092915050565b5f60408201905061139a5f83018561120a565b6113a7602083018461120a565b9392505050565b5f82825260208201905092915050565b7f497a6e6f73206d6f726120626974692076656369206f642030000000000000005f82015250565b5f6113f26019836113ae565b91506113fd826113be565b602082019050919050565b5f6020820190508181035f83015261141f816113e6565b9050919050565b7f4e65646f766f6c6a6e6f204c502075646a656c610000000000000000000000005f82015250565b5f61145a6014836113ae565b915061146582611426565b602082019050919050565b5f6020820190508181035f8301526114878161144e565b9050919050565b7f4e487b71000000000000000000000000000000000000000000000000000000005f52601160045260245ffd5b5f6114c582611119565b91506114d083611119565b92508282026114de81611119565b915082820484148315176114f5576114f461148e565b5b5092915050565b7f4e487b71000000000000000000000000000000000000000000000000000000005f52601260045260245ffd5b5f61153382611119565b915061153e83611119565b92508261154e5761154d6114fc565b5b828204905092915050565b7f497a6e6f7320706f766c6163656e6a61206a65207072656e697a616b000000005f82015250565b5f61158d601c836113ae565b915061159882611559565b602082019050919050565b5f6020820190508181035f8301526115ba81611581565b9050919050565b5f6115cb82611119565b91506115d683611119565b92508282039050818111156115ee576115ed61148e565b5b92915050565b5f6040820190506116075f8301856112cc565b611614602083018461120a565b9392505050565b5f8115159050919050565b61162f8161161b565b8114611639575f5ffd5b50565b5f8151905061164a81611626565b92915050565b5f6020828403121561166557611664611115565b5b5f6116728482850161163c565b91505092915050565b7f42617a656e206a65207072617a616e00000000000000000000000000000000005f82015250565b5f6116af600f836113ae565b91506116ba8261167b565b602082019050919050565b5f6020820190508181035f8301526116dc816116a3565b9050919050565b5f6116ed82611119565b91506116f883611119565b92508282019050808211156117105761170f61148e565b5b92915050565b7f497a6e6f73207a616d6a656e65206a65207072656e697a616b000000000000005f82015250565b5f61174a6019836113ae565b915061175582611716565b602082019050919050565b5f6020820190508181035f8301526117778161173e565b9050919050565b7f4e65646f766f6c6a6e6f2072657a6572766920544b42000000000000000000005f82015250565b5f6117b26016836113ae565b91506117bd8261177e565b602082019050919050565b5f6020820190508181035f8301526117df816117a6565b9050919050565b5f6060820190506117f95f8301866112cc565b61180660208301856112cc565b611813604083018461120a565b949350505050565b7f544b41202d3e20544b42000000000000000000000000000000000000000000005f82015250565b5f61184f600a836113ae565b915061185a8261181b565b602082019050919050565b5f6060820190508181035f83015261187c81611843565b905061188b602083018561120a565b611898604083018461120a565b9392505050565b7f52657a65727665206d6f72616a7520626974692076656365206f6420300000005f82015250565b5f6118d3601d836113ae565b91506118de8261189f565b602082019050919050565b5f6020820190508181035f830152611900816118c7565b9050919050565b7f497a6e6f7369206d6f72616a7520626974692076656369206f642030000000005f82015250565b5f61193b601c836113ae565b915061194682611907565b602082019050919050565b5f6020820190508181035f8301526119688161192f565b9050919050565b5f6060820190506119825f83018661120a565b61198f602083018561120a565b61199c604083018461120a565b949350505050565b7f4e65646f766f6c6a6e6f2072657a6572766920544b41000000000000000000005f82015250565b5f6119d86016836113ae565b91506119e3826119a4565b602082019050919050565b5f6020820190508181035f830152611a05816119cc565b9050919050565b7f544b42202d3e20544b41000000000000000000000000000000000000000000005f82015250565b5f611a40600a836113ae565b9150611a4b82611a0c565b602082019050919050565b5f6060820190508181035f830152611a6d81611a34565b9050611a7c602083018561120a565b611a89604083018461120a565b939250505056fea264697066735822122036e44792e843e3e63acab5057f0c3c0582d1e38f6d0636b32e758ce2f2dffdf764736f6c63430008220033",
					"opcodes": "PUSH1 0x80 PUSH1 0x40 MSTORE CALLVALUE DUP1 ISZERO PUSH2 0xF JUMPI PUSH0 PUSH0 REVERT JUMPDEST POP PUSH1 0x40 MLOAD PUSH2 0x1C66 CODESIZE SUB DUP1 PUSH2 0x1C66 DUP4 CODECOPY DUP2 DUP2 ADD PUSH1 0x40 MSTORE DUP2 ADD SWAP1 PUSH2 0x31 SWAP2 SWAP1 PUSH2 0x155 JUMP JUMPDEST CALLER PUSH0 PUSH0 PUSH2 0x100 EXP DUP2 SLOAD DUP2 PUSH20 0xFFFFFFFFFFFFFFFFFFFFFFFFFFFFFFFFFFFFFFFF MUL NOT AND SWAP1 DUP4 PUSH20 0xFFFFFFFFFFFFFFFFFFFFFFFFFFFFFFFFFFFFFFFF AND MUL OR SWAP1 SSTORE POP DUP2 PUSH1 0x1 PUSH0 PUSH2 0x100 EXP DUP2 SLOAD DUP2 PUSH20 0xFFFFFFFFFFFFFFFFFFFFFFFFFFFFFFFFFFFFFFFF MUL NOT AND SWAP1 DUP4 PUSH20 0xFFFFFFFFFFFFFFFFFFFFFFFFFFFFFFFFFFFFFFFF AND MUL OR SWAP1 SSTORE POP DUP1 PUSH1 0x2 PUSH0 PUSH2 0x100 EXP DUP2 SLOAD DUP2 PUSH20 0xFFFFFFFFFFFFFFFFFFFFFFFFFFFFFFFFFFFFFFFF MUL NOT AND SWAP1 DUP4 PUSH20 0xFFFFFFFFFFFFFFFFFFFFFFFFFFFFFFFFFFFFFFFF AND MUL OR SWAP1 SSTORE POP POP POP PUSH2 0x193 JUMP JUMPDEST PUSH0 PUSH0 REVERT JUMPDEST PUSH0 PUSH20 0xFFFFFFFFFFFFFFFFFFFFFFFFFFFFFFFFFFFFFFFF DUP3 AND SWAP1 POP SWAP2 SWAP1 POP JUMP JUMPDEST PUSH0 PUSH2 0x124 DUP3 PUSH2 0xFB JUMP JUMPDEST SWAP1 POP SWAP2 SWAP1 POP JUMP JUMPDEST PUSH2 0x134 DUP2 PUSH2 0x11A JUMP JUMPDEST DUP2 EQ PUSH2 0x13E JUMPI PUSH0 PUSH0 REVERT JUMPDEST POP JUMP JUMPDEST PUSH0 DUP2 MLOAD SWAP1 POP PUSH2 0x14F DUP2 PUSH2 0x12B JUMP JUMPDEST SWAP3 SWAP2 POP POP JUMP JUMPDEST PUSH0 PUSH0 PUSH1 0x40 DUP4 DUP6 SUB SLT ISZERO PUSH2 0x16B JUMPI PUSH2 0x16A PUSH2 0xF7 JUMP JUMPDEST JUMPDEST PUSH0 PUSH2 0x178 DUP6 DUP3 DUP7 ADD PUSH2 0x141 JUMP JUMPDEST SWAP3 POP POP PUSH1 0x20 PUSH2 0x189 DUP6 DUP3 DUP7 ADD PUSH2 0x141 JUMP JUMPDEST SWAP2 POP POP SWAP3 POP SWAP3 SWAP1 POP JUMP JUMPDEST PUSH2 0x1AC6 DUP1 PUSH2 0x1A0 PUSH0 CODECOPY PUSH0 RETURN INVALID PUSH1 0x80 PUSH1 0x40 MSTORE CALLVALUE DUP1 ISZERO PUSH2 0xF JUMPI PUSH0 PUSH0 REVERT JUMPDEST POP PUSH1 0x4 CALLDATASIZE LT PUSH2 0xE8 JUMPI PUSH0 CALLDATALOAD PUSH1 0xE0 SHR DUP1 PUSH4 0x5F64B55B GT PUSH2 0x8A JUMPI DUP1 PUSH4 0xA9F5D5ED GT PUSH2 0x64 JUMPI DUP1 PUSH4 0xA9F5D5ED EQ PUSH2 0x23A JUMPI DUP1 PUSH4 0xB66E94ED EQ PUSH2 0x256 JUMPI DUP1 PUSH4 0xC5365C1B EQ PUSH2 0x286 JUMPI DUP1 PUSH4 0xCA4A1B8F EQ PUSH2 0x2A5 JUMPI PUSH2 0xE8 JUMP JUMPDEST DUP1 PUSH4 0x5F64B55B EQ PUSH2 0x1E0 JUMPI DUP1 PUSH4 0x6E7C13B6 EQ PUSH2 0x1FE JUMPI DUP1 PUSH4 0x8DA5CB5B EQ PUSH2 0x21C JUMPI PUSH2 0xE8 JUMP JUMPDEST DUP1 PUSH4 0x1F67316E GT PUSH2 0xC6 JUMPI DUP1 PUSH4 0x1F67316E EQ PUSH2 0x144 JUMPI DUP1 PUSH4 0x2E84046B EQ PUSH2 0x174 JUMPI DUP1 PUSH4 0x3064C16C EQ PUSH2 0x192 JUMPI DUP1 PUSH4 0x529E0ADA EQ PUSH2 0x1B0 JUMPI PUSH2 0xE8 JUMP JUMPDEST DUP1 PUSH4 0xC5A7C84 EQ PUSH2 0xEC JUMPI DUP1 PUSH4 0xFC63D10 EQ PUSH2 0x108 JUMPI DUP1 PUSH4 0x128540C9 EQ PUSH2 0x126 JUMPI JUMPDEST PUSH0 PUSH0 REVERT JUMPDEST PUSH2 0x106 PUSH1 0x4 DUP1 CALLDATASIZE SUB DUP2 ADD SWAP1 PUSH2 0x101 SWAP2 SWAP1 PUSH2 0x114C JUMP JUMPDEST PUSH2 0x2D5 JUMP JUMPDEST STOP JUMPDEST PUSH2 0x110 PUSH2 0x64A JUMP JUMPDEST PUSH1 0x40 MLOAD PUSH2 0x11D SWAP2 SWAP1 PUSH2 0x11F1 JUMP JUMPDEST PUSH1 0x40 MLOAD DUP1 SWAP2 SUB SWAP1 RETURN JUMPDEST PUSH2 0x12E PUSH2 0x66F JUMP JUMPDEST PUSH1 0x40 MLOAD PUSH2 0x13B SWAP2 SWAP1 PUSH2 0x1219 JUMP JUMPDEST PUSH1 0x40 MLOAD DUP1 SWAP2 SUB SWAP1 RETURN JUMPDEST PUSH2 0x15E PUSH1 0x4 DUP1 CALLDATASIZE SUB DUP2 ADD SWAP1 PUSH2 0x159 SWAP2 SWAP1 PUSH2 0x114C JUMP JUMPDEST PUSH2 0x675 JUMP JUMPDEST PUSH1 0x40 MLOAD PUSH2 0x16B SWAP2 SWAP1 PUSH2 0x1219 JUMP JUMPDEST PUSH1 0x40 MLOAD DUP1 SWAP2 SUB SWAP1 RETURN JUMPDEST PUSH2 0x17C PUSH2 0x99D JUMP JUMPDEST PUSH1 0x40 MLOAD PUSH2 0x189 SWAP2 SWAP1 PUSH2 0x1219 JUMP JUMPDEST PUSH1 0x40 MLOAD DUP1 SWAP2 SUB SWAP1 RETURN JUMPDEST PUSH2 0x19A PUSH2 0x9E1 JUMP JUMPDEST PUSH1 0x40 MLOAD PUSH2 0x1A7 SWAP2 SWAP1 PUSH2 0x1219 JUMP JUMPDEST PUSH1 0x40 MLOAD DUP1 SWAP2 SUB SWAP1 RETURN JUMPDEST PUSH2 0x1CA PUSH1 0x4 DUP1 CALLDATASIZE SUB DUP2 ADD SWAP1 PUSH2 0x1C5 SWAP2 SWAP1 PUSH2 0x1232 JUMP JUMPDEST PUSH2 0x9E7 JUMP JUMPDEST PUSH1 0x40 MLOAD PUSH2 0x1D7 SWAP2 SWAP1 PUSH2 0x1219 JUMP JUMPDEST PUSH1 0x40 MLOAD DUP1 SWAP2 SUB SWAP1 RETURN JUMPDEST PUSH2 0x1E8 PUSH2 0xAC1 JUMP JUMPDEST PUSH1 0x40 MLOAD PUSH2 0x1F5 SWAP2 SWAP1 PUSH2 0x12A2 JUMP JUMPDEST PUSH1 0x40 MLOAD DUP1 SWAP2 SUB SWAP1 RETURN JUMPDEST PUSH2 0x206 PUSH2 0xAE6 JUMP JUMPDEST PUSH1 0x40 MLOAD PUSH2 0x213 SWAP2 SWAP1 PUSH2 0x1219 JUMP JUMPDEST PUSH1 0x40 MLOAD DUP1 SWAP2 SUB SWAP1 RETURN JUMPDEST PUSH2 0x224 PUSH2 0xAEC JUMP JUMPDEST PUSH1 0x40 MLOAD PUSH2 0x231 SWAP2 SWAP1 PUSH2 0x12DB JUMP JUMPDEST PUSH1 0x40 MLOAD DUP1 SWAP2 SUB SWAP1 RETURN JUMPDEST PUSH2 0x254 PUSH1 0x4 DUP1 CALLDATASIZE SUB DUP2 ADD SWAP1 PUSH2 0x24F SWAP2 SWAP1 PUSH2 0x12F4 JUMP JUMPDEST PUSH2 0xB10 JUMP JUMPDEST STOP JUMPDEST PUSH2 0x270 PUSH1 0x4 DUP1 CALLDATASIZE SUB DUP2 ADD SWAP1 PUSH2 0x26B SWAP2 SWAP1 PUSH2 0x135C JUMP JUMPDEST PUSH2 0xDC8 JUMP JUMPDEST PUSH1 0x40 MLOAD PUSH2 0x27D SWAP2 SWAP1 PUSH2 0x1219 JUMP JUMPDEST PUSH1 0x40 MLOAD DUP1 SWAP2 SUB SWAP1 RETURN JUMPDEST PUSH2 0x28E PUSH2 0xDDD JUMP JUMPDEST PUSH1 0x40 MLOAD PUSH2 0x29C SWAP3 SWAP2 SWAP1 PUSH2 0x1387 JUMP JUMPDEST PUSH1 0x40 MLOAD DUP1 SWAP2 SUB SWAP1 RETURN JUMPDEST PUSH2 0x2BF PUSH1 0x4 DUP1 CALLDATASIZE SUB DUP2 ADD SWAP1 PUSH2 0x2BA SWAP2 SWAP1 PUSH2 0x114C JUMP JUMPDEST PUSH2 0xDED JUMP JUMPDEST PUSH1 0x40 MLOAD PUSH2 0x2CC SWAP2 SWAP1 PUSH2 0x1219 JUMP JUMPDEST PUSH1 0x40 MLOAD DUP1 SWAP2 SUB SWAP1 RETURN JUMPDEST PUSH0 DUP2 GT PUSH2 0x317 JUMPI PUSH1 0x40 MLOAD PUSH32 0x8C379A000000000000000000000000000000000000000000000000000000000 DUP2 MSTORE PUSH1 0x4 ADD PUSH2 0x30E SWAP1 PUSH2 0x1408 JUMP JUMPDEST PUSH1 0x40 MLOAD DUP1 SWAP2 SUB SWAP1 REVERT JUMPDEST DUP1 PUSH1 0x5 PUSH0 CALLER PUSH20 0xFFFFFFFFFFFFFFFFFFFFFFFFFFFFFFFFFFFFFFFF AND PUSH20 0xFFFFFFFFFFFFFFFFFFFFFFFFFFFFFFFFFFFFFFFF AND DUP2 MSTORE PUSH1 0x20 ADD SWAP1 DUP2 MSTORE PUSH1 0x20 ADD PUSH0 KECCAK256 SLOAD LT ISZERO PUSH2 0x397 JUMPI PUSH1 0x40 MLOAD PUSH32 0x8C379A000000000000000000000000000000000000000000000000000000000 DUP2 MSTORE PUSH1 0x4 ADD PUSH2 0x38E SWAP1 PUSH2 0x1470 JUMP JUMPDEST PUSH1 0x40 MLOAD DUP1 SWAP2 SUB SWAP1 REVERT JUMPDEST PUSH0 PUSH1 0x6 SLOAD PUSH1 0x3 SLOAD DUP4 PUSH2 0x3A9 SWAP2 SWAP1 PUSH2 0x14BB JUMP JUMPDEST PUSH2 0x3B3 SWAP2 SWAP1 PUSH2 0x1529 JUMP JUMPDEST SWAP1 POP PUSH0 PUSH1 0x6 SLOAD PUSH1 0x4 SLOAD DUP5 PUSH2 0x3C7 SWAP2 SWAP1 PUSH2 0x14BB JUMP JUMPDEST PUSH2 0x3D1 SWAP2 SWAP1 PUSH2 0x1529 JUMP JUMPDEST SWAP1 POP PUSH0 DUP3 GT DUP1 ISZERO PUSH2 0x3E1 JUMPI POP PUSH0 DUP2 GT JUMPDEST PUSH2 0x420 JUMPI PUSH1 0x40 MLOAD PUSH32 0x8C379A000000000000000000000000000000000000000000000000000000000 DUP2 MSTORE PUSH1 0x4 ADD PUSH2 0x417 SWAP1 PUSH2 0x15A3 JUMP JUMPDEST PUSH1 0x40 MLOAD DUP1 SWAP2 SUB SWAP1 REVERT JUMPDEST DUP3 PUSH1 0x5 PUSH0 CALLER PUSH20 0xFFFFFFFFFFFFFFFFFFFFFFFFFFFFFFFFFFFFFFFF AND PUSH20 0xFFFFFFFFFFFFFFFFFFFFFFFFFFFFFFFFFFFFFFFF AND DUP2 MSTORE PUSH1 0x20 ADD SWAP1 DUP2 MSTORE PUSH1 0x20 ADD PUSH0 KECCAK256 PUSH0 DUP3 DUP3 SLOAD PUSH2 0x46C SWAP2 SWAP1 PUSH2 0x15C1 JUMP JUMPDEST SWAP3 POP POP DUP2 SWAP1 SSTORE POP DUP3 PUSH1 0x6 PUSH0 DUP3 DUP3 SLOAD PUSH2 0x484 SWAP2 SWAP1 PUSH2 0x15C1 JUMP JUMPDEST SWAP3 POP POP DUP2 SWAP1 SSTORE POP DUP2 PUSH1 0x3 PUSH0 DUP3 DUP3 SLOAD PUSH2 0x49C SWAP2 SWAP1 PUSH2 0x15C1 JUMP JUMPDEST SWAP3 POP POP DUP2 SWAP1 SSTORE POP DUP1 PUSH1 0x4 PUSH0 DUP3 DUP3 SLOAD PUSH2 0x4B4 SWAP2 SWAP1 PUSH2 0x15C1 JUMP JUMPDEST SWAP3 POP POP DUP2 SWAP1 SSTORE POP PUSH1 0x1 PUSH0 SWAP1 SLOAD SWAP1 PUSH2 0x100 EXP SWAP1 DIV PUSH20 0xFFFFFFFFFFFFFFFFFFFFFFFFFFFFFFFFFFFFFFFF AND PUSH20 0xFFFFFFFFFFFFFFFFFFFFFFFFFFFFFFFFFFFFFFFF AND PUSH4 0xA9059CBB CALLER DUP5 PUSH1 0x40 MLOAD DUP4 PUSH4 0xFFFFFFFF AND PUSH1 0xE0 SHL DUP2 MSTORE PUSH1 0x4 ADD PUSH2 0x517 SWAP3 SWAP2 SWAP1 PUSH2 0x15F4 JUMP JUMPDEST PUSH1 0x20 PUSH1 0x40 MLOAD DUP1 DUP4 SUB DUP2 PUSH0 DUP8 GAS CALL ISZERO DUP1 ISZERO PUSH2 0x533 JUMPI RETURNDATASIZE PUSH0 PUSH0 RETURNDATACOPY RETURNDATASIZE PUSH0 REVERT JUMPDEST POP POP POP POP PUSH1 0x40 MLOAD RETURNDATASIZE PUSH1 0x1F NOT PUSH1 0x1F DUP3 ADD AND DUP3 ADD DUP1 PUSH1 0x40 MSTORE POP DUP2 ADD SWAP1 PUSH2 0x557 SWAP2 SWAP1 PUSH2 0x1650 JUMP JUMPDEST POP PUSH1 0x2 PUSH0 SWAP1 SLOAD SWAP1 PUSH2 0x100 EXP SWAP1 DIV PUSH20 0xFFFFFFFFFFFFFFFFFFFFFFFFFFFFFFFFFFFFFFFF AND PUSH20 0xFFFFFFFFFFFFFFFFFFFFFFFFFFFFFFFFFFFFFFFF AND PUSH4 0xA9059CBB CALLER DUP4 PUSH1 0x40 MLOAD DUP4 PUSH4 0xFFFFFFFF AND PUSH1 0xE0 SHL DUP2 MSTORE PUSH1 0x4 ADD PUSH2 0x5B4 SWAP3 SWAP2 SWAP1 PUSH2 0x15F4 JUMP JUMPDEST PUSH1 0x20 PUSH1 0x40 MLOAD DUP1 DUP4 SUB DUP2 PUSH0 DUP8 GAS CALL ISZERO DUP1 ISZERO PUSH2 0x5D0 JUMPI RETURNDATASIZE PUSH0 PUSH0 RETURNDATACOPY RETURNDATASIZE PUSH0 REVERT JUMPDEST POP POP POP POP PUSH1 0x40 MLOAD RETURNDATASIZE PUSH1 0x1F NOT PUSH1 0x1F DUP3 ADD AND DUP3 ADD DUP1 PUSH1 0x40 MSTORE POP DUP2 ADD SWAP1 PUSH2 0x5F4 SWAP2 SWAP1 PUSH2 0x1650 JUMP JUMPDEST POP CALLER PUSH20 0xFFFFFFFFFFFFFFFFFFFFFFFFFFFFFFFFFFFFFFFF AND PUSH32 0x55BF8C843779AAAEAF90154D7B411B5232EE8B87D532C142C862E26CDA5B351 DUP4 DUP4 PUSH1 0x40 MLOAD PUSH2 0x63D SWAP3 SWAP2 SWAP1 PUSH2 0x1387 JUMP JUMPDEST PUSH1 0x40 MLOAD DUP1 SWAP2 SUB SWAP1 LOG2 POP POP POP JUMP JUMPDEST PUSH1 0x1 PUSH0 SWAP1 SLOAD SWAP1 PUSH2 0x100 EXP SWAP1 DIV PUSH20 0xFFFFFFFFFFFFFFFFFFFFFFFFFFFFFFFFFFFFFFFF AND DUP2 JUMP JUMPDEST PUSH1 0x3 SLOAD DUP2 JUMP JUMPDEST PUSH0 PUSH0 DUP3 GT PUSH2 0x6B8 JUMPI PUSH1 0x40 MLOAD PUSH32 0x8C379A000000000000000000000000000000000000000000000000000000000 DUP2 MSTORE PUSH1 0x4 ADD PUSH2 0x6AF SWAP1 PUSH2 0x1408 JUMP JUMPDEST PUSH1 0x40 MLOAD DUP1 SWAP2 SUB SWAP1 REVERT JUMPDEST PUSH0 PUSH1 0x3 SLOAD GT DUP1 ISZERO PUSH2 0x6CA JUMPI POP PUSH0 PUSH1 0x4 SLOAD GT JUMPDEST PUSH2 0x709 JUMPI PUSH1 0x40 MLOAD PUSH32 0x8C379A000000000000000000000000000000000000000000000000000000000 DUP2 MSTORE PUSH1 0x4 ADD PUSH2 0x700 SWAP1 PUSH2 0x16C5 JUMP JUMPDEST PUSH1 0x40 MLOAD DUP1 SWAP2 SUB SWAP1 REVERT JUMPDEST PUSH0 PUSH2 0x3E5 DUP4 PUSH2 0x718 SWAP2 SWAP1 PUSH2 0x14BB JUMP JUMPDEST SWAP1 POP PUSH0 DUP2 PUSH2 0x3E8 PUSH1 0x3 SLOAD PUSH2 0x72C SWAP2 SWAP1 PUSH2 0x14BB JUMP JUMPDEST PUSH2 0x736 SWAP2 SWAP1 PUSH2 0x16E3 JUMP JUMPDEST DUP3 PUSH1 0x4 SLOAD PUSH2 0x744 SWAP2 SWAP1 PUSH2 0x14BB JUMP JUMPDEST PUSH2 0x74E SWAP2 SWAP1 PUSH2 0x1529 JUMP JUMPDEST SWAP1 POP PUSH0 DUP2 GT PUSH2 0x792 JUMPI PUSH1 0x40 MLOAD PUSH32 0x8C379A000000000000000000000000000000000000000000000000000000000 DUP2 MSTORE PUSH1 0x4 ADD PUSH2 0x789 SWAP1 PUSH2 0x1760 JUMP JUMPDEST PUSH1 0x40 MLOAD DUP1 SWAP2 SUB SWAP1 REVERT JUMPDEST DUP1 PUSH1 0x4 SLOAD LT ISZERO PUSH2 0x7D7 JUMPI PUSH1 0x40 MLOAD PUSH32 0x8C379A000000000000000000000000000000000000000000000000000000000 DUP2 MSTORE PUSH1 0x4 ADD PUSH2 0x7CE SWAP1 PUSH2 0x17C8 JUMP JUMPDEST PUSH1 0x40 MLOAD DUP1 SWAP2 SUB SWAP1 REVERT JUMPDEST PUSH1 0x1 PUSH0 SWAP1 SLOAD SWAP1 PUSH2 0x100 EXP SWAP1 DIV PUSH20 0xFFFFFFFFFFFFFFFFFFFFFFFFFFFFFFFFFFFFFFFF AND PUSH20 0xFFFFFFFFFFFFFFFFFFFFFFFFFFFFFFFFFFFFFFFF AND PUSH4 0x23B872DD CALLER ADDRESS DUP8 PUSH1 0x40 MLOAD DUP5 PUSH4 0xFFFFFFFF AND PUSH1 0xE0 SHL DUP2 MSTORE PUSH1 0x4 ADD PUSH2 0x835 SWAP4 SWAP3 SWAP2 SWAP1 PUSH2 0x17E6 JUMP JUMPDEST PUSH1 0x20 PUSH1 0x40 MLOAD DUP1 DUP4 SUB DUP2 PUSH0 DUP8 GAS CALL ISZERO DUP1 ISZERO PUSH2 0x851 JUMPI RETURNDATASIZE PUSH0 PUSH0 RETURNDATACOPY RETURNDATASIZE PUSH0 REVERT JUMPDEST POP POP POP POP PUSH1 0x40 MLOAD RETURNDATASIZE PUSH1 0x1F NOT PUSH1 0x1F DUP3 ADD AND DUP3 ADD DUP1 PUSH1 0x40 MSTORE POP DUP2 ADD SWAP1 PUSH2 0x875 SWAP2 SWAP1 PUSH2 0x1650 JUMP JUMPDEST POP PUSH1 0x2 PUSH0 SWAP1 SLOAD SWAP1 PUSH2 0x100 EXP SWAP1 DIV PUSH20 0xFFFFFFFFFFFFFFFFFFFFFFFFFFFFFFFFFFFFFFFF AND PUSH20 0xFFFFFFFFFFFFFFFFFFFFFFFFFFFFFFFFFFFFFFFF AND PUSH4 0xA9059CBB CALLER DUP4 PUSH1 0x40 MLOAD DUP4 PUSH4 0xFFFFFFFF AND PUSH1 0xE0 SHL DUP2 MSTORE PUSH1 0x4 ADD PUSH2 0x8D2 SWAP3 SWAP2 SWAP1 PUSH2 0x15F4 JUMP JUMPDEST PUSH1 0x20 PUSH1 0x40 MLOAD DUP1 DUP4 SUB DUP2 PUSH0 DUP8 GAS CALL ISZERO DUP1 ISZERO PUSH2 0x8EE JUMPI RETURNDATASIZE PUSH0 PUSH0 RETURNDATACOPY RETURNDATASIZE PUSH0 REVERT JUMPDEST POP POP POP POP PUSH1 0x40 MLOAD RETURNDATASIZE PUSH1 0x1F NOT PUSH1 0x1F DUP3 ADD AND DUP3 ADD DUP1 PUSH1 0x40 MSTORE POP DUP2 ADD SWAP1 PUSH2 0x912 SWAP2 SWAP1 PUSH2 0x1650 JUMP JUMPDEST POP DUP4 PUSH1 0x3 PUSH0 DUP3 DUP3 SLOAD PUSH2 0x924 SWAP2 SWAP1 PUSH2 0x16E3 JUMP JUMPDEST SWAP3 POP POP DUP2 SWAP1 SSTORE POP DUP1 PUSH1 0x4 PUSH0 DUP3 DUP3 SLOAD PUSH2 0x93C SWAP2 SWAP1 PUSH2 0x15C1 JUMP JUMPDEST SWAP3 POP POP DUP2 SWAP1 SSTORE POP CALLER PUSH20 0xFFFFFFFFFFFFFFFFFFFFFFFFFFFFFFFFFFFFFFFF AND PUSH32 0xD6FC4A38A3A3702D8FB16D699F0581D9D0BA09223B03C76AEBD61831FE696F50 DUP6 DUP4 PUSH1 0x40 MLOAD PUSH2 0x98B SWAP3 SWAP2 SWAP1 PUSH2 0x1865 JUMP JUMPDEST PUSH1 0x40 MLOAD DUP1 SWAP2 SUB SWAP1 LOG2 DUP1 SWAP3 POP POP POP SWAP2 SWAP1 POP JUMP JUMPDEST PUSH0 PUSH1 0x5 PUSH0 CALLER PUSH20 0xFFFFFFFFFFFFFFFFFFFFFFFFFFFFFFFFFFFFFFFF AND PUSH20 0xFFFFFFFFFFFFFFFFFFFFFFFFFFFFFFFFFFFFFFFF AND DUP2 MSTORE PUSH1 0x20 ADD SWAP1 DUP2 MSTORE PUSH1 0x20 ADD PUSH0 KECCAK256 SLOAD SWAP1 POP SWAP1 JUMP JUMPDEST PUSH1 0x4 SLOAD DUP2 JUMP JUMPDEST PUSH0 PUSH0 DUP5 GT PUSH2 0xA2A JUMPI PUSH1 0x40 MLOAD PUSH32 0x8C379A000000000000000000000000000000000000000000000000000000000 DUP2 MSTORE PUSH1 0x4 ADD PUSH2 0xA21 SWAP1 PUSH2 0x1408 JUMP JUMPDEST PUSH1 0x40 MLOAD DUP1 SWAP2 SUB SWAP1 REVERT JUMPDEST PUSH0 DUP4 GT DUP1 ISZERO PUSH2 0xA38 JUMPI POP PUSH0 DUP3 GT JUMPDEST PUSH2 0xA77 JUMPI PUSH1 0x40 MLOAD PUSH32 0x8C379A000000000000000000000000000000000000000000000000000000000 DUP2 MSTORE PUSH1 0x4 ADD PUSH2 0xA6E SWAP1 PUSH2 0x18E9 JUMP JUMPDEST PUSH1 0x40 MLOAD DUP1 SWAP2 SUB SWAP1 REVERT JUMPDEST PUSH0 PUSH2 0x3E5 DUP6 PUSH2 0xA86 SWAP2 SWAP1 PUSH2 0x14BB JUMP JUMPDEST SWAP1 POP DUP1 PUSH2 0x3E8 DUP6 PUSH2 0xA97 SWAP2 SWAP1 PUSH2 0x14BB JUMP JUMPDEST PUSH2 0xAA1 SWAP2 SWAP1 PUSH2 0x16E3 JUMP JUMPDEST DUP2 DUP5 PUSH2 0xAAD SWAP2 SWAP1 PUSH2 0x14BB JUMP JUMPDEST PUSH2 0xAB7 SWAP2 SWAP1 PUSH2 0x1529 JUMP JUMPDEST SWAP2 POP POP SWAP4 SWAP3 POP POP POP JUMP JUMPDEST PUSH1 0x2 PUSH0 SWAP1 SLOAD SWAP1 PUSH2 0x100 EXP SWAP1 DIV PUSH20 0xFFFFFFFFFFFFFFFFFFFFFFFFFFFFFFFFFFFFFFFF AND DUP2 JUMP JUMPDEST PUSH1 0x6 SLOAD DUP2 JUMP JUMPDEST PUSH0 PUSH0 SWAP1 SLOAD SWAP1 PUSH2 0x100 EXP SWAP1 DIV PUSH20 0xFFFFFFFFFFFFFFFFFFFFFFFFFFFFFFFFFFFFFFFF AND DUP2 JUMP JUMPDEST PUSH0 DUP3 GT DUP1 ISZERO PUSH2 0xB1E JUMPI POP PUSH0 DUP2 GT JUMPDEST PUSH2 0xB5D JUMPI PUSH1 0x40 MLOAD PUSH32 0x8C379A000000000000000000000000000000000000000000000000000000000 DUP2 MSTORE PUSH1 0x4 ADD PUSH2 0xB54 SWAP1 PUSH2 0x1951 JUMP JUMPDEST PUSH1 0x40 MLOAD DUP1 SWAP2 SUB SWAP1 REVERT JUMPDEST PUSH1 0x1 PUSH0 SWAP1 SLOAD SWAP1 PUSH2 0x100 EXP SWAP1 DIV PUSH20 0xFFFFFFFFFFFFFFFFFFFFFFFFFFFFFFFFFFFFFFFF AND PUSH20 0xFFFFFFFFFFFFFFFFFFFFFFFFFFFFFFFFFFFFFFFF AND PUSH4 0x23B872DD CALLER ADDRESS DUP6 PUSH1 0x40 MLOAD DUP5 PUSH4 0xFFFFFFFF AND PUSH1 0xE0 SHL DUP2 MSTORE PUSH1 0x4 ADD PUSH2 0xBBB SWAP4 SWAP3 SWAP2 SWAP1 PUSH2 0x17E6 JUMP JUMPDEST PUSH1 0x20 PUSH1 0x40 MLOAD DUP1 DUP4 SUB DUP2 PUSH0 DUP8 GAS CALL ISZERO DUP1 ISZERO PUSH2 0xBD7 JUMPI RETURNDATASIZE PUSH0 PUSH0 RETURNDATACOPY RETURNDATASIZE PUSH0 REVERT JUMPDEST POP POP POP POP PUSH1 0x40 MLOAD RETURNDATASIZE PUSH1 0x1F NOT PUSH1 0x1F DUP3 ADD AND DUP3 ADD DUP1 PUSH1 0x40 MSTORE POP DUP2 ADD SWAP1 PUSH2 0xBFB SWAP2 SWAP1 PUSH2 0x1650 JUMP JUMPDEST POP PUSH1 0x2 PUSH0 SWAP1 SLOAD SWAP1 PUSH2 0x100 EXP SWAP1 DIV PUSH20 0xFFFFFFFFFFFFFFFFFFFFFFFFFFFFFFFFFFFFFFFF AND PUSH20 0xFFFFFFFFFFFFFFFFFFFFFFFFFFFFFFFFFFFFFFFF AND PUSH4 0x23B872DD CALLER ADDRESS DUP5 PUSH1 0x40 MLOAD DUP5 PUSH4 0xFFFFFFFF AND PUSH1 0xE0 SHL DUP2 MSTORE PUSH1 0x4 ADD PUSH2 0xC5A SWAP4 SWAP3 SWAP2 SWAP1 PUSH2 0x17E6 JUMP JUMPDEST PUSH1 0x20 PUSH1 0x40 MLOAD DUP1 DUP4 SUB DUP2 PUSH0 DUP8 GAS CALL ISZERO DUP1 ISZERO PUSH2 0xC76 JUMPI RETURNDATASIZE PUSH0 PUSH0 RETURNDATACOPY RETURNDATASIZE PUSH0 REVERT JUMPDEST POP POP POP POP PUSH1 0x40 MLOAD RETURNDATASIZE PUSH1 0x1F NOT PUSH1 0x1F DUP3 ADD AND DUP3 ADD DUP1 PUSH1 0x40 MSTORE POP DUP2 ADD SWAP1 PUSH2 0xC9A SWAP2 SWAP1 PUSH2 0x1650 JUMP JUMPDEST POP PUSH0 PUSH0 PUSH1 0x6 SLOAD SUB PUSH2 0xCB8 JUMPI DUP2 DUP4 PUSH2 0xCB1 SWAP2 SWAP1 PUSH2 0x16E3 JUMP JUMPDEST SWAP1 POP PUSH2 0xCD6 JUMP JUMPDEST PUSH1 0x3 SLOAD PUSH1 0x6 SLOAD DUP5 PUSH2 0xCC9 SWAP2 SWAP1 PUSH2 0x14BB JUMP JUMPDEST PUSH2 0xCD3 SWAP2 SWAP1 PUSH2 0x1529 JUMP JUMPDEST SWAP1 POP JUMPDEST DUP1 PUSH1 0x5 PUSH0 CALLER PUSH20 0xFFFFFFFFFFFFFFFFFFFFFFFFFFFFFFFFFFFFFFFF AND PUSH20 0xFFFFFFFFFFFFFFFFFFFFFFFFFFFFFFFFFFFFFFFF AND DUP2 MSTORE PUSH1 0x20 ADD SWAP1 DUP2 MSTORE PUSH1 0x20 ADD PUSH0 KECCAK256 PUSH0 DUP3 DUP3 SLOAD PUSH2 0xD22 SWAP2 SWAP1 PUSH2 0x16E3 JUMP JUMPDEST SWAP3 POP POP DUP2 SWAP1 SSTORE POP DUP1 PUSH1 0x6 PUSH0 DUP3 DUP3 SLOAD PUSH2 0xD3A SWAP2 SWAP1 PUSH2 0x16E3 JUMP JUMPDEST SWAP3 POP POP DUP2 SWAP1 SSTORE POP DUP3 PUSH1 0x3 PUSH0 DUP3 DUP3 SLOAD PUSH2 0xD52 SWAP2 SWAP1 PUSH2 0x16E3 JUMP JUMPDEST SWAP3 POP POP DUP2 SWAP1 SSTORE POP DUP2 PUSH1 0x4 PUSH0 DUP3 DUP3 SLOAD PUSH2 0xD6A SWAP2 SWAP1 PUSH2 0x16E3 JUMP JUMPDEST SWAP3 POP POP DUP2 SWAP1 SSTORE POP CALLER PUSH20 0xFFFFFFFFFFFFFFFFFFFFFFFFFFFFFFFFFFFFFFFF AND PUSH32 0xFBC3652F26C817763B292BA5C345286F709EE38227938ACF66A96E9893E95CE8 DUP5 DUP5 DUP5 PUSH1 0x40 MLOAD PUSH2 0xDBB SWAP4 SWAP3 SWAP2 SWAP1 PUSH2 0x196F JUMP JUMPDEST PUSH1 0x40 MLOAD DUP1 SWAP2 SUB SWAP1 LOG2 POP POP POP JUMP JUMPDEST PUSH1 0x5 PUSH1 0x20 MSTORE DUP1 PUSH0 MSTORE PUSH1 0x40 PUSH0 KECCAK256 PUSH0 SWAP2 POP SWAP1 POP SLOAD DUP2 JUMP JUMPDEST PUSH0 PUSH0 PUSH1 0x3 SLOAD PUSH1 0x4 SLOAD SWAP2 POP SWAP2 POP SWAP1 SWAP2 JUMP JUMPDEST PUSH0 PUSH0 DUP3 GT PUSH2 0xE30 JUMPI PUSH1 0x40 MLOAD PUSH32 0x8C379A000000000000000000000000000000000000000000000000000000000 DUP2 MSTORE PUSH1 0x4 ADD PUSH2 0xE27 SWAP1 PUSH2 0x1408 JUMP JUMPDEST PUSH1 0x40 MLOAD DUP1 SWAP2 SUB SWAP1 REVERT JUMPDEST PUSH0 PUSH1 0x3 SLOAD GT DUP1 ISZERO PUSH2 0xE42 JUMPI POP PUSH0 PUSH1 0x4 SLOAD GT JUMPDEST PUSH2 0xE81 JUMPI PUSH1 0x40 MLOAD PUSH32 0x8C379A000000000000000000000000000000000000000000000000000000000 DUP2 MSTORE PUSH1 0x4 ADD PUSH2 0xE78 SWAP1 PUSH2 0x16C5 JUMP JUMPDEST PUSH1 0x40 MLOAD DUP1 SWAP2 SUB SWAP1 REVERT JUMPDEST PUSH0 PUSH2 0x3E5 DUP4 PUSH2 0xE90 SWAP2 SWAP1 PUSH2 0x14BB JUMP JUMPDEST SWAP1 POP PUSH0 DUP2 PUSH2 0x3E8 PUSH1 0x4 SLOAD PUSH2 0xEA4 SWAP2 SWAP1 PUSH2 0x14BB JUMP JUMPDEST PUSH2 0xEAE SWAP2 SWAP1 PUSH2 0x16E3 JUMP JUMPDEST DUP3 PUSH1 0x3 SLOAD PUSH2 0xEBC SWAP2 SWAP1 PUSH2 0x14BB JUMP JUMPDEST PUSH2 0xEC6 SWAP2 SWAP1 PUSH2 0x1529 JUMP JUMPDEST SWAP1 POP PUSH0 DUP2 GT PUSH2 0xF0A JUMPI PUSH1 0x40 MLOAD PUSH32 0x8C379A000000000000000000000000000000000000000000000000000000000 DUP2 MSTORE PUSH1 0x4 ADD PUSH2 0xF01 SWAP1 PUSH2 0x1760 JUMP JUMPDEST PUSH1 0x40 MLOAD DUP1 SWAP2 SUB SWAP1 REVERT JUMPDEST DUP1 PUSH1 0x3 SLOAD LT ISZERO PUSH2 0xF4F JUMPI PUSH1 0x40 MLOAD PUSH32 0x8C379A000000000000000000000000000000000000000000000000000000000 DUP2 MSTORE PUSH1 0x4 ADD PUSH2 0xF46 SWAP1 PUSH2 0x19EE JUMP JUMPDEST PUSH1 0x40 MLOAD DUP1 SWAP2 SUB SWAP1 REVERT JUMPDEST PUSH1 0x2 PUSH0 SWAP1 SLOAD SWAP1 PUSH2 0x100 EXP SWAP1 DIV PUSH20 0xFFFFFFFFFFFFFFFFFFFFFFFFFFFFFFFFFFFFFFFF AND PUSH20 0xFFFFFFFFFFFFFFFFFFFFFFFFFFFFFFFFFFFFFFFF AND PUSH4 0x23B872DD CALLER ADDRESS DUP8 PUSH1 0x40 MLOAD DUP5 PUSH4 0xFFFFFFFF AND PUSH1 0xE0 SHL DUP2 MSTORE PUSH1 0x4 ADD PUSH2 0xFAD SWAP4 SWAP3 SWAP2 SWAP1 PUSH2 0x17E6 JUMP JUMPDEST PUSH1 0x20 PUSH1 0x40 MLOAD DUP1 DUP4 SUB DUP2 PUSH0 DUP8 GAS CALL ISZERO DUP1 ISZERO PUSH2 0xFC9 JUMPI RETURNDATASIZE PUSH0 PUSH0 RETURNDATACOPY RETURNDATASIZE PUSH0 REVERT JUMPDEST POP POP POP POP PUSH1 0x40 MLOAD RETURNDATASIZE PUSH1 0x1F NOT PUSH1 0x1F DUP3 ADD AND DUP3 ADD DUP1 PUSH1 0x40 MSTORE POP DUP2 ADD SWAP1 PUSH2 0xFED SWAP2 SWAP1 PUSH2 0x1650 JUMP JUMPDEST POP PUSH1 0x1 PUSH0 SWAP1 SLOAD SWAP1 PUSH2 0x100 EXP SWAP1 DIV PUSH20 0xFFFFFFFFFFFFFFFFFFFFFFFFFFFFFFFFFFFFFFFF AND PUSH20 0xFFFFFFFFFFFFFFFFFFFFFFFFFFFFFFFFFFFFFFFF AND PUSH4 0xA9059CBB CALLER DUP4 PUSH1 0x40 MLOAD DUP4 PUSH4 0xFFFFFFFF AND PUSH1 0xE0 SHL DUP2 MSTORE PUSH1 0x4 ADD PUSH2 0x104A SWAP3 SWAP2 SWAP1 PUSH2 0x15F4 JUMP JUMPDEST PUSH1 0x20 PUSH1 0x40 MLOAD DUP1 DUP4 SUB DUP2 PUSH0 DUP8 GAS CALL ISZERO DUP1 ISZERO PUSH2 0x1066 JUMPI RETURNDATASIZE PUSH0 PUSH0 RETURNDATACOPY RETURNDATASIZE PUSH0 REVERT JUMPDEST POP POP POP POP PUSH1 0x40 MLOAD RETURNDATASIZE PUSH1 0x1F NOT PUSH1 0x1F DUP3 ADD AND DUP3 ADD DUP1 PUSH1 0x40 MSTORE POP DUP2 ADD SWAP1 PUSH2 0x108A SWAP2 SWAP1 PUSH2 0x1650 JUMP JUMPDEST POP DUP4 PUSH1 0x4 PUSH0 DUP3 DUP3 SLOAD PUSH2 0x109C SWAP2 SWAP1 PUSH2 0x16E3 JUMP JUMPDEST SWAP3 POP POP DUP2 SWAP1 SSTORE POP DUP1 PUSH1 0x3 PUSH0 DUP3 DUP3 SLOAD PUSH2 0x10B4 SWAP2 SWAP1 PUSH2 0x15C1 JUMP JUMPDEST SWAP3 POP POP DUP2 SWAP1 SSTORE POP CALLER PUSH20 0xFFFFFFFFFFFFFFFFFFFFFFFFFFFFFFFFFFFFFFFF AND PUSH32 0xD6FC4A38A3A3702D8FB16D699F0581D9D0BA09223B03C76AEBD61831FE696F50 DUP6 DUP4 PUSH1 0x40 MLOAD PUSH2 0x1103 SWAP3 SWAP2 SWAP1 PUSH2 0x1A56 JUMP JUMPDEST PUSH1 0x40 MLOAD DUP1 SWAP2 SUB SWAP1 LOG2 DUP1 SWAP3 POP POP POP SWAP2 SWAP1 POP JUMP JUMPDEST PUSH0 PUSH0 REVERT JUMPDEST PUSH0 DUP2 SWAP1 POP SWAP2 SWAP1 POP JUMP JUMPDEST PUSH2 0x112B DUP2 PUSH2 0x1119 JUMP JUMPDEST DUP2 EQ PUSH2 0x1135 JUMPI PUSH0 PUSH0 REVERT JUMPDEST POP JUMP JUMPDEST PUSH0 DUP2 CALLDATALOAD SWAP1 POP PUSH2 0x1146 DUP2 PUSH2 0x1122 JUMP JUMPDEST SWAP3 SWAP2 POP POP JUMP JUMPDEST PUSH0 PUSH1 0x20 DUP3 DUP5 SUB SLT ISZERO PUSH2 0x1161 JUMPI PUSH2 0x1160 PUSH2 0x1115 JUMP JUMPDEST JUMPDEST PUSH0 PUSH2 0x116E DUP5 DUP3 DUP6 ADD PUSH2 0x1138 JUMP JUMPDEST SWAP2 POP POP SWAP3 SWAP2 POP POP JUMP JUMPDEST PUSH0 PUSH20 0xFFFFFFFFFFFFFFFFFFFFFFFFFFFFFFFFFFFFFFFF DUP3 AND SWAP1 POP SWAP2 SWAP1 POP JUMP JUMPDEST PUSH0 DUP2 SWAP1 POP SWAP2 SWAP1 POP JUMP JUMPDEST PUSH0 PUSH2 0x11B9 PUSH2 0x11B4 PUSH2 0x11AF DUP5 PUSH2 0x1177 JUMP JUMPDEST PUSH2 0x1196 JUMP JUMPDEST PUSH2 0x1177 JUMP JUMPDEST SWAP1 POP SWAP2 SWAP1 POP JUMP JUMPDEST PUSH0 PUSH2 0x11CA DUP3 PUSH2 0x119F JUMP JUMPDEST SWAP1 POP SWAP2 SWAP1 POP JUMP JUMPDEST PUSH0 PUSH2 0x11DB DUP3 PUSH2 0x11C0 JUMP JUMPDEST SWAP1 POP SWAP2 SWAP1 POP JUMP JUMPDEST PUSH2 0x11EB DUP2 PUSH2 0x11D1 JUMP JUMPDEST DUP3 MSTORE POP POP JUMP JUMPDEST PUSH0 PUSH1 0x20 DUP3 ADD SWAP1 POP PUSH2 0x1204 PUSH0 DUP4 ADD DUP5 PUSH2 0x11E2 JUMP JUMPDEST SWAP3 SWAP2 POP POP JUMP JUMPDEST PUSH2 0x1213 DUP2 PUSH2 0x1119 JUMP JUMPDEST DUP3 MSTORE POP POP JUMP JUMPDEST PUSH0 PUSH1 0x20 DUP3 ADD SWAP1 POP PUSH2 0x122C PUSH0 DUP4 ADD DUP5 PUSH2 0x120A JUMP JUMPDEST SWAP3 SWAP2 POP POP JUMP JUMPDEST PUSH0 PUSH0 PUSH0 PUSH1 0x60 DUP5 DUP7 SUB SLT ISZERO PUSH2 0x1249 JUMPI PUSH2 0x1248 PUSH2 0x1115 JUMP JUMPDEST JUMPDEST PUSH0 PUSH2 0x1256 DUP7 DUP3 DUP8 ADD PUSH2 0x1138 JUMP JUMPDEST SWAP4 POP POP PUSH1 0x20 PUSH2 0x1267 DUP7 DUP3 DUP8 ADD PUSH2 0x1138 JUMP JUMPDEST SWAP3 POP POP PUSH1 0x40 PUSH2 0x1278 DUP7 DUP3 DUP8 ADD PUSH2 0x1138 JUMP JUMPDEST SWAP2 POP POP SWAP3 POP SWAP3 POP SWAP3 JUMP JUMPDEST PUSH0 PUSH2 0x128C DUP3 PUSH2 0x11C0 JUMP JUMPDEST SWAP1 POP SWAP2 SWAP1 POP JUMP JUMPDEST PUSH2 0x129C DUP2 PUSH2 0x1282 JUMP JUMPDEST DUP3 MSTORE POP POP JUMP JUMPDEST PUSH0 PUSH1 0x20 DUP3 ADD SWAP1 POP PUSH2 0x12B5 PUSH0 DUP4 ADD DUP5 PUSH2 0x1293 JUMP JUMPDEST SWAP3 SWAP2 POP POP JUMP JUMPDEST PUSH0 PUSH2 0x12C5 DUP3 PUSH2 0x1177 JUMP JUMPDEST SWAP1 POP SWAP2 SWAP1 POP JUMP JUMPDEST PUSH2 0x12D5 DUP2 PUSH2 0x12BB JUMP JUMPDEST DUP3 MSTORE POP POP JUMP JUMPDEST PUSH0 PUSH1 0x20 DUP3 ADD SWAP1 POP PUSH2 0x12EE PUSH0 DUP4 ADD DUP5 PUSH2 0x12CC JUMP JUMPDEST SWAP3 SWAP2 POP POP JUMP JUMPDEST PUSH0 PUSH0 PUSH1 0x40 DUP4 DUP6 SUB SLT ISZERO PUSH2 0x130A JUMPI PUSH2 0x1309 PUSH2 0x1115 JUMP JUMPDEST JUMPDEST PUSH0 PUSH2 0x1317 DUP6 DUP3 DUP7 ADD PUSH2 0x1138 JUMP JUMPDEST SWAP3 POP POP PUSH1 0x20 PUSH2 0x1328 DUP6 DUP3 DUP7 ADD PUSH2 0x1138 JUMP JUMPDEST SWAP2 POP POP SWAP3 POP SWAP3 SWAP1 POP JUMP JUMPDEST PUSH2 0x133B DUP2 PUSH2 0x12BB JUMP JUMPDEST DUP2 EQ PUSH2 0x1345 JUMPI PUSH0 PUSH0 REVERT JUMPDEST POP JUMP JUMPDEST PUSH0 DUP2 CALLDATALOAD SWAP1 POP PUSH2 0x1356 DUP2 PUSH2 0x1332 JUMP JUMPDEST SWAP3 SWAP2 POP POP JUMP JUMPDEST PUSH0 PUSH1 0x20 DUP3 DUP5 SUB SLT ISZERO PUSH2 0x1371 JUMPI PUSH2 0x1370 PUSH2 0x1115 JUMP JUMPDEST JUMPDEST PUSH0 PUSH2 0x137E DUP5 DUP3 DUP6 ADD PUSH2 0x1348 JUMP JUMPDEST SWAP2 POP POP SWAP3 SWAP2 POP POP JUMP JUMPDEST PUSH0 PUSH1 0x40 DUP3 ADD SWAP1 POP PUSH2 0x139A PUSH0 DUP4 ADD DUP6 PUSH2 0x120A JUMP JUMPDEST PUSH2 0x13A7 PUSH1 0x20 DUP4 ADD DUP5 PUSH2 0x120A JUMP JUMPDEST SWAP4 SWAP3 POP POP POP JUMP JUMPDEST PUSH0 DUP3 DUP3 MSTORE PUSH1 0x20 DUP3 ADD SWAP1 POP SWAP3 SWAP2 POP POP JUMP JUMPDEST PUSH32 0x497A6E6F73206D6F726120626974692076656369206F64203000000000000000 PUSH0 DUP3 ADD MSTORE POP JUMP JUMPDEST PUSH0 PUSH2 0x13F2 PUSH1 0x19 DUP4 PUSH2 0x13AE JUMP JUMPDEST SWAP2 POP PUSH2 0x13FD DUP3 PUSH2 0x13BE JUMP JUMPDEST PUSH1 0x20 DUP3 ADD SWAP1 POP SWAP2 SWAP1 POP JUMP JUMPDEST PUSH0 PUSH1 0x20 DUP3 ADD SWAP1 POP DUP2 DUP2 SUB PUSH0 DUP4 ADD MSTORE PUSH2 0x141F DUP2 PUSH2 0x13E6 JUMP JUMPDEST SWAP1 POP SWAP2 SWAP1 POP JUMP JUMPDEST PUSH32 0x4E65646F766F6C6A6E6F204C502075646A656C61000000000000000000000000 PUSH0 DUP3 ADD MSTORE POP JUMP JUMPDEST PUSH0 PUSH2 0x145A PUSH1 0x14 DUP4 PUSH2 0x13AE JUMP JUMPDEST SWAP2 POP PUSH2 0x1465 DUP3 PUSH2 0x1426 JUMP JUMPDEST PUSH1 0x20 DUP3 ADD SWAP1 POP SWAP2 SWAP1 POP JUMP JUMPDEST PUSH0 PUSH1 0x20 DUP3 ADD SWAP1 POP DUP2 DUP2 SUB PUSH0 DUP4 ADD MSTORE PUSH2 0x1487 DUP2 PUSH2 0x144E JUMP JUMPDEST SWAP1 POP SWAP2 SWAP1 POP JUMP JUMPDEST PUSH32 0x4E487B7100000000000000000000000000000000000000000000000000000000 PUSH0 MSTORE PUSH1 0x11 PUSH1 0x4 MSTORE PUSH1 0x24 PUSH0 REVERT JUMPDEST PUSH0 PUSH2 0x14C5 DUP3 PUSH2 0x1119 JUMP JUMPDEST SWAP2 POP PUSH2 0x14D0 DUP4 PUSH2 0x1119 JUMP JUMPDEST SWAP3 POP DUP3 DUP3 MUL PUSH2 0x14DE DUP2 PUSH2 0x1119 JUMP JUMPDEST SWAP2 POP DUP3 DUP3 DIV DUP5 EQ DUP4 ISZERO OR PUSH2 0x14F5 JUMPI PUSH2 0x14F4 PUSH2 0x148E JUMP JUMPDEST JUMPDEST POP SWAP3 SWAP2 POP POP JUMP JUMPDEST PUSH32 0x4E487B7100000000000000000000000000000000000000000000000000000000 PUSH0 MSTORE PUSH1 0x12 PUSH1 0x4 MSTORE PUSH1 0x24 PUSH0 REVERT JUMPDEST PUSH0 PUSH2 0x1533 DUP3 PUSH2 0x1119 JUMP JUMPDEST SWAP2 POP PUSH2 0x153E DUP4 PUSH2 0x1119 JUMP JUMPDEST SWAP3 POP DUP3 PUSH2 0x154E JUMPI PUSH2 0x154D PUSH2 0x14FC JUMP JUMPDEST JUMPDEST DUP3 DUP3 DIV SWAP1 POP SWAP3 SWAP2 POP POP JUMP JUMPDEST PUSH32 0x497A6E6F7320706F766C6163656E6A61206A65207072656E697A616B00000000 PUSH0 DUP3 ADD MSTORE POP JUMP JUMPDEST PUSH0 PUSH2 0x158D PUSH1 0x1C DUP4 PUSH2 0x13AE JUMP JUMPDEST SWAP2 POP PUSH2 0x1598 DUP3 PUSH2 0x1559 JUMP JUMPDEST PUSH1 0x20 DUP3 ADD SWAP1 POP SWAP2 SWAP1 POP JUMP JUMPDEST PUSH0 PUSH1 0x20 DUP3 ADD SWAP1 POP DUP2 DUP2 SUB PUSH0 DUP4 ADD MSTORE PUSH2 0x15BA DUP2 PUSH2 0x1581 JUMP JUMPDEST SWAP1 POP SWAP2 SWAP1 POP JUMP JUMPDEST PUSH0 PUSH2 0x15CB DUP3 PUSH2 0x1119 JUMP JUMPDEST SWAP2 POP PUSH2 0x15D6 DUP4 PUSH2 0x1119 JUMP JUMPDEST SWAP3 POP DUP3 DUP3 SUB SWAP1 POP DUP2 DUP2 GT ISZERO PUSH2 0x15EE JUMPI PUSH2 0x15ED PUSH2 0x148E JUMP JUMPDEST JUMPDEST SWAP3 SWAP2 POP POP JUMP JUMPDEST PUSH0 PUSH1 0x40 DUP3 ADD SWAP1 POP PUSH2 0x1607 PUSH0 DUP4 ADD DUP6 PUSH2 0x12CC JUMP JUMPDEST PUSH2 0x1614 PUSH1 0x20 DUP4 ADD DUP5 PUSH2 0x120A JUMP JUMPDEST SWAP4 SWAP3 POP POP POP JUMP JUMPDEST PUSH0 DUP2 ISZERO ISZERO SWAP1 POP SWAP2 SWAP1 POP JUMP JUMPDEST PUSH2 0x162F DUP2 PUSH2 0x161B JUMP JUMPDEST DUP2 EQ PUSH2 0x1639 JUMPI PUSH0 PUSH0 REVERT JUMPDEST POP JUMP JUMPDEST PUSH0 DUP2 MLOAD SWAP1 POP PUSH2 0x164A DUP2 PUSH2 0x1626 JUMP JUMPDEST SWAP3 SWAP2 POP POP JUMP JUMPDEST PUSH0 PUSH1 0x20 DUP3 DUP5 SUB SLT ISZERO PUSH2 0x1665 JUMPI PUSH2 0x1664 PUSH2 0x1115 JUMP JUMPDEST JUMPDEST PUSH0 PUSH2 0x1672 DUP5 DUP3 DUP6 ADD PUSH2 0x163C JUMP JUMPDEST SWAP2 POP POP SWAP3 SWAP2 POP POP JUMP JUMPDEST PUSH32 0x42617A656E206A65207072617A616E0000000000000000000000000000000000 PUSH0 DUP3 ADD MSTORE POP JUMP JUMPDEST PUSH0 PUSH2 0x16AF PUSH1 0xF DUP4 PUSH2 0x13AE JUMP JUMPDEST SWAP2 POP PUSH2 0x16BA DUP3 PUSH2 0x167B JUMP JUMPDEST PUSH1 0x20 DUP3 ADD SWAP1 POP SWAP2 SWAP1 POP JUMP JUMPDEST PUSH0 PUSH1 0x20 DUP3 ADD SWAP1 POP DUP2 DUP2 SUB PUSH0 DUP4 ADD MSTORE PUSH2 0x16DC DUP2 PUSH2 0x16A3 JUMP JUMPDEST SWAP1 POP SWAP2 SWAP1 POP JUMP JUMPDEST PUSH0 PUSH2 0x16ED DUP3 PUSH2 0x1119 JUMP JUMPDEST SWAP2 POP PUSH2 0x16F8 DUP4 PUSH2 0x1119 JUMP JUMPDEST SWAP3 POP DUP3 DUP3 ADD SWAP1 POP DUP1 DUP3 GT ISZERO PUSH2 0x1710 JUMPI PUSH2 0x170F PUSH2 0x148E JUMP JUMPDEST JUMPDEST SWAP3 SWAP2 POP POP JUMP JUMPDEST PUSH32 0x497A6E6F73207A616D6A656E65206A65207072656E697A616B00000000000000 PUSH0 DUP3 ADD MSTORE POP JUMP JUMPDEST PUSH0 PUSH2 0x174A PUSH1 0x19 DUP4 PUSH2 0x13AE JUMP JUMPDEST SWAP2 POP PUSH2 0x1755 DUP3 PUSH2 0x1716 JUMP JUMPDEST PUSH1 0x20 DUP3 ADD SWAP1 POP SWAP2 SWAP1 POP JUMP JUMPDEST PUSH0 PUSH1 0x20 DUP3 ADD SWAP1 POP DUP2 DUP2 SUB PUSH0 DUP4 ADD MSTORE PUSH2 0x1777 DUP2 PUSH2 0x173E JUMP JUMPDEST SWAP1 POP SWAP2 SWAP1 POP JUMP JUMPDEST PUSH32 0x4E65646F766F6C6A6E6F2072657A6572766920544B4200000000000000000000 PUSH0 DUP3 ADD MSTORE POP JUMP JUMPDEST PUSH0 PUSH2 0x17B2 PUSH1 0x16 DUP4 PUSH2 0x13AE JUMP JUMPDEST SWAP2 POP PUSH2 0x17BD DUP3 PUSH2 0x177E JUMP JUMPDEST PUSH1 0x20 DUP3 ADD SWAP1 POP SWAP2 SWAP1 POP JUMP JUMPDEST PUSH0 PUSH1 0x20 DUP3 ADD SWAP1 POP DUP2 DUP2 SUB PUSH0 DUP4 ADD MSTORE PUSH2 0x17DF DUP2 PUSH2 0x17A6 JUMP JUMPDEST SWAP1 POP SWAP2 SWAP1 POP JUMP JUMPDEST PUSH0 PUSH1 0x60 DUP3 ADD SWAP1 POP PUSH2 0x17F9 PUSH0 DUP4 ADD DUP7 PUSH2 0x12CC JUMP JUMPDEST PUSH2 0x1806 PUSH1 0x20 DUP4 ADD DUP6 PUSH2 0x12CC JUMP JUMPDEST PUSH2 0x1813 PUSH1 0x40 DUP4 ADD DUP5 PUSH2 0x120A JUMP JUMPDEST SWAP5 SWAP4 POP POP POP POP JUMP JUMPDEST PUSH32 0x544B41202D3E20544B4200000000000000000000000000000000000000000000 PUSH0 DUP3 ADD MSTORE POP JUMP JUMPDEST PUSH0 PUSH2 0x184F PUSH1 0xA DUP4 PUSH2 0x13AE JUMP JUMPDEST SWAP2 POP PUSH2 0x185A DUP3 PUSH2 0x181B JUMP JUMPDEST PUSH1 0x20 DUP3 ADD SWAP1 POP SWAP2 SWAP1 POP JUMP JUMPDEST PUSH0 PUSH1 0x60 DUP3 ADD SWAP1 POP DUP2 DUP2 SUB PUSH0 DUP4 ADD MSTORE PUSH2 0x187C DUP2 PUSH2 0x1843 JUMP JUMPDEST SWAP1 POP PUSH2 0x188B PUSH1 0x20 DUP4 ADD DUP6 PUSH2 0x120A JUMP JUMPDEST PUSH2 0x1898 PUSH1 0x40 DUP4 ADD DUP5 PUSH2 0x120A JUMP JUMPDEST SWAP4 SWAP3 POP POP POP JUMP JUMPDEST PUSH32 0x52657A65727665206D6F72616A7520626974692076656365206F642030000000 PUSH0 DUP3 ADD MSTORE POP JUMP JUMPDEST PUSH0 PUSH2 0x18D3 PUSH1 0x1D DUP4 PUSH2 0x13AE JUMP JUMPDEST SWAP2 POP PUSH2 0x18DE DUP3 PUSH2 0x189F JUMP JUMPDEST PUSH1 0x20 DUP3 ADD SWAP1 POP SWAP2 SWAP1 POP JUMP JUMPDEST PUSH0 PUSH1 0x20 DUP3 ADD SWAP1 POP DUP2 DUP2 SUB PUSH0 DUP4 ADD MSTORE PUSH2 0x1900 DUP2 PUSH2 0x18C7 JUMP JUMPDEST SWAP1 POP SWAP2 SWAP1 POP JUMP JUMPDEST PUSH32 0x497A6E6F7369206D6F72616A7520626974692076656369206F64203000000000 PUSH0 DUP3 ADD MSTORE POP JUMP JUMPDEST PUSH0 PUSH2 0x193B PUSH1 0x1C DUP4 PUSH2 0x13AE JUMP JUMPDEST SWAP2 POP PUSH2 0x1946 DUP3 PUSH2 0x1907 JUMP JUMPDEST PUSH1 0x20 DUP3 ADD SWAP1 POP SWAP2 SWAP1 POP JUMP JUMPDEST PUSH0 PUSH1 0x20 DUP3 ADD SWAP1 POP DUP2 DUP2 SUB PUSH0 DUP4 ADD MSTORE PUSH2 0x1968 DUP2 PUSH2 0x192F JUMP JUMPDEST SWAP1 POP SWAP2 SWAP1 POP JUMP JUMPDEST PUSH0 PUSH1 0x60 DUP3 ADD SWAP1 POP PUSH2 0x1982 PUSH0 DUP4 ADD DUP7 PUSH2 0x120A JUMP JUMPDEST PUSH2 0x198F PUSH1 0x20 DUP4 ADD DUP6 PUSH2 0x120A JUMP JUMPDEST PUSH2 0x199C PUSH1 0x40 DUP4 ADD DUP5 PUSH2 0x120A JUMP JUMPDEST SWAP5 SWAP4 POP POP POP POP JUMP JUMPDEST PUSH32 0x4E65646F766F6C6A6E6F2072657A6572766920544B4100000000000000000000 PUSH0 DUP3 ADD MSTORE POP JUMP JUMPDEST PUSH0 PUSH2 0x19D8 PUSH1 0x16 DUP4 PUSH2 0x13AE JUMP JUMPDEST SWAP2 POP PUSH2 0x19E3 DUP3 PUSH2 0x19A4 JUMP JUMPDEST PUSH1 0x20 DUP3 ADD SWAP1 POP SWAP2 SWAP1 POP JUMP JUMPDEST PUSH0 PUSH1 0x20 DUP3 ADD SWAP1 POP DUP2 DUP2 SUB PUSH0 DUP4 ADD MSTORE PUSH2 0x1A05 DUP2 PUSH2 0x19CC JUMP JUMPDEST SWAP1 POP SWAP2 SWAP1 POP JUMP JUMPDEST PUSH32 0x544B42202D3E20544B4100000000000000000000000000000000000000000000 PUSH0 DUP3 ADD MSTORE POP JUMP JUMPDEST PUSH0 PUSH2 0x1A40 PUSH1 0xA DUP4 PUSH2 0x13AE JUMP JUMPDEST SWAP2 POP PUSH2 0x1A4B DUP3 PUSH2 0x1A0C JUMP JUMPDEST PUSH1 0x20 DUP3 ADD SWAP1 POP SWAP2 SWAP1 POP JUMP JUMPDEST PUSH0 PUSH1 0x60 DUP3 ADD SWAP1 POP DUP2 DUP2 SUB PUSH0 DUP4 ADD MSTORE PUSH2 0x1A6D DUP2 PUSH2 0x1A34 JUMP JUMPDEST SWAP1 POP PUSH2 0x1A7C PUSH1 0x20 DUP4 ADD DUP6 PUSH2 0x120A JUMP JUMPDEST PUSH2 0x1A89 PUSH1 0x40 DUP4 ADD DUP5 PUSH2 0x120A JUMP JUMPDEST SWAP4 SWAP3 POP POP POP JUMP INVALID LOG2 PUSH5 0x6970667358 0x22 SLT KECCAK256 CALLDATASIZE RETF SELFBALANCE SWAP3 0xE8 NUMBER CALLF 0xE63A 0xCA 0xB5 SDIV PUSH32 0xC3C0582D1E38F6D0636B32E758CE2F2DFFDF764736F6C634300082200330000 "
				},
				"gasEstimates": {
					"creation": {
						"codeDepositCost": "1370800",
						"executionCost": "infinite",
						"totalCost": "infinite"
					},
					"external": {
						"dodajLikvidnost(uint256,uint256)": "infinite",
						"izracunajCijenu(uint256,uint256,uint256)": "infinite",
						"lpUdio(address)": "2846",
						"mojLPUdio()": "2564",
						"owner()": "2574",
						"povuciLikvidnost(uint256)": "infinite",
						"rezervaA()": "2493",
						"rezervaB()": "2492",
						"stanjeRezervacija()": "infinite",
						"swapAzaB(uint256)": "infinite",
						"swapBzaA(uint256)": "infinite",
						"tokenA()": "infinite",
						"tokenB()": "infinite",
						"ukupniLPUdio()": "2470"
					}
				},
				"methodIdentifiers": {
					"dodajLikvidnost(uint256,uint256)": "a9f5d5ed",
					"izracunajCijenu(uint256,uint256,uint256)": "529e0ada",
					"lpUdio(address)": "b66e94ed",
					"mojLPUdio()": "2e84046b",
					"owner()": "8da5cb5b",
					"povuciLikvidnost(uint256)": "0c5a7c84",
					"rezervaA()": "128540c9",
					"rezervaB()": "3064c16c",
					"stanjeRezervacija()": "c5365c1b",
					"swapAzaB(uint256)": "1f67316e",
					"swapBzaA(uint256)": "ca4a1b8f",
					"tokenA()": "0fc63d10",
					"tokenB()": "5f64b55b",
					"ukupniLPUdio()": "6e7c13b6"
				}
			},
			"storageLayout": {
				"storage": [
					{
						"astId": 5,
						"contract": "contracts/ComplicatedDEX.sol:AmmDEX",
						"label": "owner",
						"offset": 0,
						"slot": "0",
						"type": "t_address"
					},
					{
						"astId": 8,
						"contract": "contracts/ComplicatedDEX.sol:AmmDEX",
						"label": "tokenA",
						"offset": 0,
						"slot": "1",
						"type": "t_contract(TokenA)723"
					},
					{
						"astId": 11,
						"contract": "contracts/ComplicatedDEX.sol:AmmDEX",
						"label": "tokenB",
						"offset": 0,
						"slot": "2",
						"type": "t_contract(TokenB)916"
					},
					{
						"astId": 13,
						"contract": "contracts/ComplicatedDEX.sol:AmmDEX",
						"label": "rezervaA",
						"offset": 0,
						"slot": "3",
						"type": "t_uint256"
					},
					{
						"astId": 15,
						"contract": "contracts/ComplicatedDEX.sol:AmmDEX",
						"label": "rezervaB",
						"offset": 0,
						"slot": "4",
						"type": "t_uint256"
					},
					{
						"astId": 19,
						"contract": "contracts/ComplicatedDEX.sol:AmmDEX",
						"label": "lpUdio",
						"offset": 0,
						"slot": "5",
						"type": "t_mapping(t_address,t_uint256)"
					},
					{
						"astId": 21,
						"contract": "contracts/ComplicatedDEX.sol:AmmDEX",
						"label": "ukupniLPUdio",
						"offset": 0,
						"slot": "6",
						"type": "t_uint256"
					}
				],
				"types": {
					"t_address": {
						"encoding": "inplace",
						"label": "address",
						"numberOfBytes": "20"
					},
					"t_contract(TokenA)723": {
						"encoding": "inplace",
						"label": "contract TokenA",
						"numberOfBytes": "20"
					},
					"t_contract(TokenB)916": {
						"encoding": "inplace",
						"label": "contract TokenB",
						"numberOfBytes": "20"
					},
					"t_mapping(t_address,t_uint256)": {
						"encoding": "mapping",
						"key": "t_address",
						"label": "mapping(address => uint256)",
						"numberOfBytes": "32",
						"value": "t_uint256"
					},
					"t_uint256": {
						"encoding": "inplace",
						"label": "uint256",
						"numberOfBytes": "32"
					}
				}
			},
			"userdoc": {
				"kind": "user",
				"methods": {},
				"version": 1
			}
		}
	}
}